{
    "abi": [
        {
            "type": "constructor",
            "inputs": [
                {
                    "name": "_owner",
                    "type": "address",
                    "internalType": "address"
                },
                {
                    "name": "_evc",
                    "type": "address",
                    "internalType": "address"
                }
            ],
            "stateMutability": "nonpayable"
        },
        {
            "type": "function",
            "name": "EVC",
            "inputs": [],
            "outputs": [
                {
                    "name": "",
                    "type": "address",
                    "internalType": "address"
                }
            ],
            "stateMutability": "view"
        },
        {
            "type": "function",
            "name": "collateralVaultBeacon",
            "inputs": [
                {
                    "name": "targetVault",
                    "type": "address",
                    "internalType": "address"
                }
            ],
            "outputs": [
                {
                    "name": "beacon",
                    "type": "address",
                    "internalType": "address"
                }
            ],
            "stateMutability": "view"
        },
        {
            "type": "function",
            "name": "collateralVaults",
            "inputs": [
                {
                    "name": "borrower",
                    "type": "address",
                    "internalType": "address"
                },
                {
                    "name": "",
                    "type": "uint256",
                    "internalType": "uint256"
                }
            ],
            "outputs": [
                {
                    "name": "collateralVaults",
                    "type": "address",
                    "internalType": "address"
                }
            ],
            "stateMutability": "view"
        },
        {
            "type": "function",
            "name": "createCollateralVault",
            "inputs": [
                {
                    "name": "_asset",
                    "type": "address",
                    "internalType": "address"
                },
                {
                    "name": "_targetVault",
                    "type": "address",
                    "internalType": "address"
                },
                {
                    "name": "_liqLTV",
                    "type": "uint256",
                    "internalType": "uint256"
                }
            ],
            "outputs": [
                {
                    "name": "vault",
                    "type": "address",
                    "internalType": "address"
                }
            ],
            "stateMutability": "nonpayable"
        },
        {
            "type": "function",
            "name": "getCollateralVaults",
            "inputs": [
                {
                    "name": "borrower",
                    "type": "address",
                    "internalType": "address"
                }
            ],
            "outputs": [
                {
                    "name": "",
                    "type": "address[]",
                    "internalType": "address[]"
                }
            ],
            "stateMutability": "view"
        },
        {
            "type": "function",
            "name": "isCollateralVault",
            "inputs": [
                {
                    "name": "",
                    "type": "address",
                    "internalType": "address"
                }
            ],
            "outputs": [
                {
                    "name": "",
                    "type": "bool",
                    "internalType": "bool"
                }
            ],
            "stateMutability": "view"
        },
        {
            "type": "function",
            "name": "nonce",
            "inputs": [
                {
                    "name": "",
                    "type": "address",
                    "internalType": "address"
                }
            ],
            "outputs": [
                {
                    "name": "nonce",
                    "type": "uint256",
                    "internalType": "uint256"
                }
            ],
            "stateMutability": "view"
        },
        {
            "type": "function",
            "name": "owner",
            "inputs": [],
            "outputs": [
                {
                    "name": "",
                    "type": "address",
                    "internalType": "address"
                }
            ],
            "stateMutability": "view"
        },
        {
            "type": "function",
            "name": "pause",
            "inputs": [
                {
                    "name": "p",
                    "type": "bool",
                    "internalType": "bool"
                }
            ],
            "outputs": [],
            "stateMutability": "nonpayable"
        },
        {
            "type": "function",
            "name": "paused",
            "inputs": [],
            "outputs": [
                {
                    "name": "",
                    "type": "bool",
                    "internalType": "bool"
                }
            ],
            "stateMutability": "view"
        },
        {
            "type": "function",
            "name": "renounceOwnership",
            "inputs": [],
            "outputs": [],
            "stateMutability": "nonpayable"
        },
        {
            "type": "function",
            "name": "setBeacon",
            "inputs": [
                {
                    "name": "targetVault",
                    "type": "address",
                    "internalType": "address"
                },
                {
                    "name": "beacon",
                    "type": "address",
                    "internalType": "address"
                }
            ],
            "outputs": [],
            "stateMutability": "nonpayable"
        },
        {
            "type": "function",
            "name": "setCollateralVaultLiquidated",
            "inputs": [
                {
                    "name": "liquidator",
                    "type": "address",
                    "internalType": "address"
                }
            ],
            "outputs": [],
            "stateMutability": "nonpayable"
        },
        {
            "type": "function",
            "name": "setVaultManager",
            "inputs": [
                {
                    "name": "_manager",
                    "type": "address",
                    "internalType": "address"
                }
            ],
            "outputs": [],
            "stateMutability": "nonpayable"
        },
        {
            "type": "function",
            "name": "transferOwnership",
            "inputs": [
                {
                    "name": "newOwner",
                    "type": "address",
                    "internalType": "address"
                }
            ],
            "outputs": [],
            "stateMutability": "nonpayable"
        },
        {
            "type": "function",
            "name": "vaultManager",
            "inputs": [],
            "outputs": [
                {
                    "name": "",
                    "type": "address",
                    "internalType": "contract VaultManager"
                }
            ],
            "stateMutability": "view"
        },
        {
            "type": "event",
            "name": "OwnershipTransferred",
            "inputs": [
                {
                    "name": "previousOwner",
                    "type": "address",
                    "indexed": true,
                    "internalType": "address"
                },
                {
                    "name": "newOwner",
                    "type": "address",
                    "indexed": true,
                    "internalType": "address"
                }
            ],
            "anonymous": false
        },
        {
            "type": "event",
            "name": "Paused",
            "inputs": [
                {
                    "name": "account",
                    "type": "address",
                    "indexed": false,
                    "internalType": "address"
                }
            ],
            "anonymous": false
        },
        {
            "type": "event",
            "name": "T_AddAllowedTargetVault",
            "inputs": [
                {
                    "name": "intermediateVault",
                    "type": "address",
                    "indexed": true,
                    "internalType": "address"
                },
                {
                    "name": "targetVault",
                    "type": "address",
                    "indexed": true,
                    "internalType": "address"
                }
            ],
            "anonymous": false
        },
        {
            "type": "event",
            "name": "T_Borrow",
            "inputs": [
                {
                    "name": "targetAmount",
                    "type": "uint256",
                    "indexed": false,
                    "internalType": "uint256"
                },
                {
                    "name": "receiver",
                    "type": "address",
                    "indexed": true,
                    "internalType": "address"
                }
            ],
            "anonymous": false
        },
        {
            "type": "event",
            "name": "T_CollateralVaultCreated",
            "inputs": [
                {
                    "name": "vault",
                    "type": "address",
                    "indexed": true,
                    "internalType": "address"
                }
            ],
            "anonymous": false
        },
        {
            "type": "event",
            "name": "T_CollateralVaultInitialized",
            "inputs": [],
            "anonymous": false
        },
        {
            "type": "event",
            "name": "T_ControllerDisabled",
            "inputs": [],
            "anonymous": false
        },
        {
            "type": "event",
            "name": "T_Deposit",
            "inputs": [
                {
                    "name": "amount",
                    "type": "uint256",
                    "indexed": false,
                    "internalType": "uint256"
                }
            ],
            "anonymous": false
        },
        {
            "type": "event",
            "name": "T_DepositUnderlying",
            "inputs": [
                {
                    "name": "amount",
                    "type": "uint256",
                    "indexed": false,
                    "internalType": "uint256"
                }
            ],
            "anonymous": false
        },
        {
            "type": "event",
            "name": "T_DoCall",
            "inputs": [
                {
                    "name": "to",
                    "type": "address",
                    "indexed": true,
                    "internalType": "address"
                },
                {
                    "name": "value",
                    "type": "uint256",
                    "indexed": false,
                    "internalType": "uint256"
                },
                {
                    "name": "data",
                    "type": "bytes",
                    "indexed": false,
                    "internalType": "bytes"
                }
            ],
            "anonymous": false
        },
        {
            "type": "event",
            "name": "T_FactoryPause",
            "inputs": [
                {
                    "name": "pause",
                    "type": "bool",
                    "indexed": false,
                    "internalType": "bool"
                }
            ],
            "anonymous": false
        },
        {
            "type": "event",
            "name": "T_HandleExternalLiquidation",
            "inputs": [],
            "anonymous": false
        },
        {
            "type": "event",
            "name": "T_Rebalance",
            "inputs": [],
            "anonymous": false
        },
        {
            "type": "event",
            "name": "T_RedeemUnderlying",
            "inputs": [
                {
                    "name": "amount",
                    "type": "uint256",
                    "indexed": false,
                    "internalType": "uint256"
                },
                {
                    "name": "receiver",
                    "type": "address",
                    "indexed": true,
                    "internalType": "address"
                }
            ],
            "anonymous": false
        },
        {
            "type": "event",
            "name": "T_RemoveAllowedTargetVault",
            "inputs": [
                {
                    "name": "intermediateVault",
                    "type": "address",
                    "indexed": true,
                    "internalType": "address"
                },
                {
                    "name": "targetVault",
                    "type": "address",
                    "indexed": true,
                    "internalType": "address"
                },
                {
                    "name": "index",
                    "type": "uint256",
                    "indexed": false,
                    "internalType": "uint256"
                }
            ],
            "anonymous": false
        },
        {
            "type": "event",
            "name": "T_Repay",
            "inputs": [
                {
                    "name": "repayAmount",
                    "type": "uint256",
                    "indexed": false,
                    "internalType": "uint256"
                }
            ],
            "anonymous": false
        },
        {
            "type": "event",
            "name": "T_SetBeacon",
            "inputs": [
                {
                    "name": "targetVault",
                    "type": "address",
                    "indexed": true,
                    "internalType": "address"
                },
                {
                    "name": "beacon",
                    "type": "address",
                    "indexed": true,
                    "internalType": "address"
                }
            ],
            "anonymous": false
        },
        {
            "type": "event",
            "name": "T_SetCollateralVaultFactory",
            "inputs": [
                {
                    "name": "factory",
                    "type": "address",
                    "indexed": true,
                    "internalType": "address"
                }
            ],
            "anonymous": false
        },
        {
            "type": "event",
            "name": "T_SetCollateralVaultLiquidated",
            "inputs": [
                {
                    "name": "collateralVault",
                    "type": "address",
                    "indexed": true,
                    "internalType": "address"
                },
                {
                    "name": "liquidator",
                    "type": "address",
                    "indexed": true,
                    "internalType": "address"
                }
            ],
            "anonymous": false
        },
        {
            "type": "event",
            "name": "T_SetExternalLiqBuffer",
            "inputs": [
                {
                    "name": "collateralAddress",
                    "type": "address",
                    "indexed": true,
                    "internalType": "address"
                },
                {
                    "name": "liqBuffer",
                    "type": "uint16",
                    "indexed": false,
                    "internalType": "uint16"
                }
            ],
            "anonymous": false
        },
        {
            "type": "event",
            "name": "T_SetIntermediateVault",
            "inputs": [
                {
                    "name": "intermediateVault",
                    "type": "address",
                    "indexed": true,
                    "internalType": "address"
                }
            ],
            "anonymous": false
        },
        {
            "type": "event",
            "name": "T_SetLTV",
            "inputs": [
                {
                    "name": "intermediateVault",
                    "type": "address",
                    "indexed": true,
                    "internalType": "address"
                },
                {
                    "name": "collateralVault",
                    "type": "address",
                    "indexed": true,
                    "internalType": "address"
                },
                {
                    "name": "borrowLimit",
                    "type": "uint16",
                    "indexed": false,
                    "internalType": "uint16"
                },
                {
                    "name": "liquidationLimit",
                    "type": "uint16",
                    "indexed": false,
                    "internalType": "uint16"
                },
                {
                    "name": "rampDuration",
                    "type": "uint32",
                    "indexed": false,
                    "internalType": "uint32"
                }
            ],
            "anonymous": false
        },
        {
            "type": "event",
            "name": "T_SetMaxLiqLTV",
            "inputs": [
                {
                    "name": "collateralAddress",
                    "type": "address",
                    "indexed": true,
                    "internalType": "address"
                },
                {
                    "name": "ltv",
                    "type": "uint16",
                    "indexed": false,
                    "internalType": "uint16"
                }
            ],
            "anonymous": false
        },
        {
            "type": "event",
            "name": "T_SetOracleResolvedVault",
            "inputs": [
                {
                    "name": "collateralAddress",
                    "type": "address",
                    "indexed": true,
                    "internalType": "address"
                },
                {
                    "name": "allow",
                    "type": "bool",
                    "indexed": false,
                    "internalType": "bool"
                }
            ],
            "anonymous": false
        },
        {
            "type": "event",
            "name": "T_SetOracleRouter",
            "inputs": [
                {
                    "name": "newOracleRouter",
                    "type": "address",
                    "indexed": true,
                    "internalType": "address"
                }
            ],
            "anonymous": false
        },
        {
            "type": "event",
            "name": "T_SetTwyneLiqLTV",
            "inputs": [
                {
                    "name": "ltv",
                    "type": "uint256",
                    "indexed": false,
                    "internalType": "uint256"
                }
            ],
            "anonymous": false
        },
        {
            "type": "event",
            "name": "T_SetVaultManager",
            "inputs": [
                {
                    "name": "vaultManager",
                    "type": "address",
                    "indexed": true,
                    "internalType": "address"
                }
            ],
            "anonymous": false
        },
        {
            "type": "event",
            "name": "T_Teleport",
            "inputs": [
                {
                    "name": "toDeposit",
                    "type": "uint256",
                    "indexed": false,
                    "internalType": "uint256"
                },
                {
                    "name": "toBorrow",
                    "type": "uint256",
                    "indexed": false,
                    "internalType": "uint256"
                }
            ],
            "anonymous": false
        },
        {
            "type": "event",
            "name": "T_Withdraw",
            "inputs": [
                {
                    "name": "amount",
                    "type": "uint256",
                    "indexed": false,
                    "internalType": "uint256"
                },
                {
                    "name": "receiver",
                    "type": "address",
                    "indexed": true,
                    "internalType": "address"
                }
            ],
            "anonymous": false
        },
        {
            "type": "event",
            "name": "Unpaused",
            "inputs": [
                {
                    "name": "account",
                    "type": "address",
                    "indexed": false,
                    "internalType": "address"
                }
            ],
            "anonymous": false
        },
        {
            "type": "error",
            "name": "AssetMismatch",
            "inputs": []
        },
        {
            "type": "error",
            "name": "CallerNotOwnerOrCollateralVaultFactory",
            "inputs": []
        },
        {
            "type": "error",
            "name": "CannotRebalance",
            "inputs": []
        },
        {
            "type": "error",
            "name": "ControllerDisabled",
            "inputs": []
        },
        {
            "type": "error",
            "name": "EVC_InvalidAddress",
            "inputs": []
        },
        {
            "type": "error",
            "name": "EnforcedPause",
            "inputs": []
        },
        {
            "type": "error",
            "name": "ExpectedPause",
            "inputs": []
        },
        {
            "type": "error",
            "name": "ExternallyLiquidated",
            "inputs": []
        },
        {
            "type": "error",
            "name": "HealthyNotLiquidatable",
            "inputs": []
        },
        {
            "type": "error",
            "name": "IncorrectIndex",
            "inputs": []
        },
        {
            "type": "error",
            "name": "IntermediateVaultAlreadySet",
            "inputs": []
        },
        {
            "type": "error",
            "name": "IntermediateVaultNotSet",
            "inputs": []
        },
        {
            "type": "error",
            "name": "NotAuthorized",
            "inputs": []
        },
        {
            "type": "error",
            "name": "NotCollateralVault",
            "inputs": []
        },
        {
            "type": "error",
            "name": "NotExternallyLiquidated",
            "inputs": []
        },
        {
            "type": "error",
            "name": "NotIntermediateVault",
            "inputs": []
        },
        {
            "type": "error",
            "name": "OwnableInvalidOwner",
            "inputs": [
                {
                    "name": "owner",
                    "type": "address",
                    "internalType": "address"
                }
            ]
        },
        {
            "type": "error",
            "name": "OwnableUnauthorizedAccount",
            "inputs": [
                {
                    "name": "account",
                    "type": "address",
                    "internalType": "address"
                }
            ]
        },
        {
            "type": "error",
            "name": "ReceiverNotBorrower",
            "inputs": []
        },
        {
            "type": "error",
            "name": "ReceiverNotCollateralVault",
            "inputs": []
        },
        {
            "type": "error",
            "name": "Reentrancy",
            "inputs": []
        },
        {
            "type": "error",
            "name": "RepayingMoreThanMax",
            "inputs": []
        },
        {
            "type": "error",
            "name": "SelfLiquidation",
            "inputs": []
        },
        {
            "type": "error",
            "name": "SnapshotNotTaken",
            "inputs": []
        },
        {
            "type": "error",
            "name": "T_CV_OperationDisabled",
            "inputs": []
        },
        {
            "type": "error",
            "name": "T_OperationDisabled",
            "inputs": []
        },
        {
            "type": "error",
            "name": "ValueOutOfRange",
            "inputs": []
        },
        {
            "type": "error",
            "name": "VaultStatusLiquidatable",
            "inputs": []
        },
        {
            "type": "error",
            "name": "ViolatorNotCollateralVault",
            "inputs": []
        }
    ],
    "bytecode": {
        "object": "0x60a060405234801561000f575f5ffd5b5060405161197238038061197283398101604081905261002e91610118565b80826001600160a01b03811661005d57604051631e4fbdf760e01b81525f600482015260240160405180910390fd5b610066816100ae565b505f805460ff60a01b191690556001600160a01b03811661009a57604051638133abd160e01b815260040160405180910390fd5b6001600160a01b0316608052506101499050565b5f80546001600160a01b038381166001600160a01b0319831681178455604051919092169283917f8be0079c531659141344cd1fd0a4f28419497f9722a3daafe3b4186f6b6457e09190a35050565b80516001600160a01b0381168114610113575f5ffd5b919050565b5f5f60408385031215610129575f5ffd5b610132836100fd565b9150610140602084016100fd565b90509250929050565b6080516117fc6101765f395f818161025f01528181610d8801528181610f210152610f7501526117fc5ff3fe608060405234801561000f575f5ffd5b50600436106100fb575f3560e01c8063715018a611610093578063b543503e11610063578063b543503e14610283578063cf8a322214610296578063d6bac7f6146102a9578063f2fde38b146102de575f5ffd5b8063715018a6146102185780638a4adf24146102205780638da5cb5b14610240578063a70354a11461025d575f5ffd5b8063541edbee116100ce578063541edbee1461019657806357a71baa146101a95780635c975abb146101c957806370ae92d2146101eb575f5ffd5b806302329a29146100ff5780630782959014610114578063079086d01461015157806352dea99e14610183575b5f5ffd5b61011261010d366004611015565b6102f1565b005b610127610122366004611058565b61034b565b60405173ffffffffffffffffffffffffffffffffffffffff90911681526020015b60405180910390f35b61017361015f366004611082565b60026020525f908152604090205460ff1681565b6040519015158152602001610148565b61012761019136600461109d565b61038c565b6101126101a43660046110db565b6108c1565b6101bc6101b7366004611082565b610944565b6040516101489190611112565b5f5474010000000000000000000000000000000000000000900460ff16610173565b61020a6101f9366004611082565b60056020525f908152604090205481565b604051908152602001610148565b6101126109d1565b6004546101279073ffffffffffffffffffffffffffffffffffffffff1681565b5f5473ffffffffffffffffffffffffffffffffffffffff16610127565b7f0000000000000000000000000000000000000000000000000000000000000000610127565b610112610291366004611082565b6109e4565b6101126102a4366004611082565b610a5a565b6101276102b7366004611082565b60016020525f908152604090205473ffffffffffffffffffffffffffffffffffffffff1681565b6101126102ec366004611082565b610b2f565b6102f9610b97565b8061030b57610306610c41565b610313565b610313610cc3565b60405181151581527f9ffbe306addc3fd62817d52bd3de9f4eaf3db2d0aaf2f742d096b9846d3dd3cc9060200160405180910390a150565b6003602052815f5260405f208181548110610364575f80fd5b5f9182526020909120015473ffffffffffffffffffffffffffffffffffffffff169150829050565b5f610395610d32565b61039d610d86565b600480546040517fce504bf500000000000000000000000000000000000000000000000000000000815273ffffffffffffffffffffffffffffffffffffffff878116938201939093525f929091169063ce504bf590602401602060405180830381865afa158015610410573d5f5f3e3d5ffd5b505050506040513d601f19601f82011682018060405250810190610434919061116a565b600480546040517fec97b18c00000000000000000000000000000000000000000000000000000000815273ffffffffffffffffffffffffffffffffffffffff808516938201939093528783166024820152929350169063ec97b18c90604401602060405180830381865afa1580156104ae573d5f5f3e3d5ffd5b505050506040513d601f19601f820116820180604052508101906104d29190611185565b610508576040517f8a6a3c9900000000000000000000000000000000000000000000000000000000815260040160405180910390fd5b5f610511610e33565b73ffffffffffffffffffffffffffffffffffffffff81165f9081526005602052604081208054929350839291610546836111a0565b9091555060405160609290921b7fffffffffffffffffffffffffffffffffffffffff0000000000000000000000001660208301526034820152605401604080517fffffffffffffffffffffffffffffffffffffffffffffffffffffffffffffffe0818403018152828252805160209182012073ffffffffffffffffffffffffffffffffffffffff808a165f9081526001909352929091205490929116906105ec90610ffb565b73ffffffffffffffffffffffffffffffffffffffff90911681526040602082018190525f908201526060018190604051809103905ff5905080158015610634573d5f5f3e3d5ffd5b5073ffffffffffffffffffffffffffffffffffffffff8181165f81815260026020908152604080832080547fffffffffffffffffffffffffffffffffffffffffffffffffffffffffffffff00166001908117909155878616808552600384528285208054928301815585529290932090920180547fffffffffffffffffffffffff000000000000000000000000000000000000000016841790556004805492517fbe2030940000000000000000000000000000000000000000000000000000000081528c8616918101919091526024810191909152604481018990529216606483015291945063be203094906084015f604051808303815f87803b15801561073a575f5ffd5b505af115801561074c573d5f5f3e3d5ffd5b5050600480546040517f21f9dd4800000000000000000000000000000000000000000000000000000000815273ffffffffffffffffffffffffffffffffffffffff8881169382019390935260016024820152911692506321f9dd4891506044015f604051808303815f87803b1580156107c3575f5ffd5b505af11580156107d5573d5f5f3e3d5ffd5b5050600480546040517f8b9925e800000000000000000000000000000000000000000000000000000000815273ffffffffffffffffffffffffffffffffffffffff8781169382019390935287831660248201526127106044820181905260648201525f608482015291169250638b9925e8915060a4015f604051808303815f87803b158015610862575f5ffd5b505af1158015610874573d5f5f3e3d5ffd5b505060405173ffffffffffffffffffffffffffffffffffffffff861692507fd5c014427d17eead1b9e8111804901d992255c3982e066ff0b196835c2747e1591505f90a250509392505050565b6108c9610b97565b73ffffffffffffffffffffffffffffffffffffffff8281165f8181526001602052604080822080547fffffffffffffffffffffffff0000000000000000000000000000000000000000169486169485179055517f02ef2821a980639d4751433ca0875b8cb3c10a1766df6855903ceba1ffa010ac9190a35050565b73ffffffffffffffffffffffffffffffffffffffff81165f908152600360209081526040918290208054835181840281018401909452808452606093928301828280156109c557602002820191905f5260205f20905b815473ffffffffffffffffffffffffffffffffffffffff16815260019091019060200180831161099a575b50505050509050919050565b6109d9610b97565b6109e25f610e41565b565b6109ec610b97565b600480547fffffffffffffffffffffffff00000000000000000000000000000000000000001673ffffffffffffffffffffffffffffffffffffffff83169081179091556040517f0b975cd083078350093c287a36366c9364e6669414749c4f8ea060b1a6207e03905f90a250565b335f9081526002602052604090205460ff16610aa2576040517f8a6a3c9900000000000000000000000000000000000000000000000000000000815260040160405180910390fd5b73ffffffffffffffffffffffffffffffffffffffff81165f818152600360209081526040808320805460018101825590845291832090910180547fffffffffffffffffffffffff00000000000000000000000000000000000000001633908117909155905190917f4cec2177390e430c1c12e2cc1e8b8739182c3d6fdf7f5e0aa45e44eb156c16e791a350565b610b37610b97565b73ffffffffffffffffffffffffffffffffffffffff8116610b8b576040517f1e4fbdf70000000000000000000000000000000000000000000000000000000081525f60048201526024015b60405180910390fd5b610b9481610e41565b50565b610b9f610e33565b73ffffffffffffffffffffffffffffffffffffffff16610bd35f5473ffffffffffffffffffffffffffffffffffffffff1690565b73ffffffffffffffffffffffffffffffffffffffff16146109e257610bf6610e33565b6040517f118cdaa700000000000000000000000000000000000000000000000000000000815273ffffffffffffffffffffffffffffffffffffffff9091166004820152602401610b82565b610c49610eb5565b5f80547fffffffffffffffffffffff00ffffffffffffffffffffffffffffffffffffffff1690557f5db9ee0a495bf2e6ff9c91a7834c1ba4fdd244a5e8aa4e537bd38aeae4b073aa610c99610e33565b60405173ffffffffffffffffffffffffffffffffffffffff909116815260200160405180910390a1565b610ccb610d32565b5f80547fffffffffffffffffffffff00ffffffffffffffffffffffffffffffffffffffff16740100000000000000000000000000000000000000001790557f62e78cea01bee320cd4e420270b5ea74000d11b0c9f74754ebdbfc544b05a258610c99610e33565b5f5474010000000000000000000000000000000000000000900460ff16156109e2576040517fd93c066500000000000000000000000000000000000000000000000000000000815260040160405180910390fd5b7f000000000000000000000000000000000000000000000000000000000000000073ffffffffffffffffffffffffffffffffffffffff81163303610dc75750565b7f1f8b5215000000000000000000000000000000000000000000000000000000005f52306004523360245234604452608060645236608452365f60a4375f3660a401525f5f601f19601f36011660a4015f34855af13d5f5f3e808015610e2f5760403d036040f35b3d5ffd5b5f610e3c610f08565b905090565b5f805473ffffffffffffffffffffffffffffffffffffffff8381167fffffffffffffffffffffffff0000000000000000000000000000000000000000831681178455604051919092169283917f8be0079c531659141344cd1fd0a4f28419497f9722a3daafe3b4186f6b6457e09190a35050565b5f5474010000000000000000000000000000000000000000900460ff166109e2576040517f8dfc202b00000000000000000000000000000000000000000000000000000000815260040160405180910390fd5b5f3373ffffffffffffffffffffffffffffffffffffffff7f0000000000000000000000000000000000000000000000000000000000000000168103610ff6576040517f18503a1e0000000000000000000000000000000000000000000000000000000081525f60048201527f000000000000000000000000000000000000000000000000000000000000000073ffffffffffffffffffffffffffffffffffffffff16906318503a1e906024016040805180830381865afa158015610fce573d5f5f3e3d5ffd5b505050506040513d601f19601f82011682018060405250810190610ff291906111fc565b5090505b919050565b61059d8061122a83390190565b8015158114610b94575f5ffd5b5f60208284031215611025575f5ffd5b813561103081611008565b9392505050565b73ffffffffffffffffffffffffffffffffffffffff81168114610b94575f5ffd5b5f5f60408385031215611069575f5ffd5b823561107481611037565b946020939093013593505050565b5f60208284031215611092575f5ffd5b813561103081611037565b5f5f5f606084860312156110af575f5ffd5b83356110ba81611037565b925060208401356110ca81611037565b929592945050506040919091013590565b5f5f604083850312156110ec575f5ffd5b82356110f781611037565b9150602083013561110781611037565b809150509250929050565b602080825282518282018190525f918401906040840190835b8181101561115f57835173ffffffffffffffffffffffffffffffffffffffff1683526020938401939092019160010161112b565b509095945050505050565b5f6020828403121561117a575f5ffd5b815161103081611037565b5f60208284031215611195575f5ffd5b815161103081611008565b5f7fffffffffffffffffffffffffffffffffffffffffffffffffffffffffffffffff82036111f5577f4e487b71000000000000000000000000000000000000000000000000000000005f52601160045260245ffd5b5060010190565b5f5f6040838503121561120d575f5ffd5b825161121881611037565b60208401519092506111078161100856fe60a060405260405161059d38038061059d83398101604081905261002291610354565b61002c828261003e565b506001600160a01b0316608052610445565b610047826100fb565b6040516001600160a01b038316907f1cf3b03a6cf19fa2baba4df148e9dcabedea7f8a5c07840e207e5c089be95d3e905f90a28051156100ef576100ea826001600160a01b0316635c60da1b6040518163ffffffff1660e01b8152600401602060405180830381865afa1580156100c0573d5f5f3e3d5ffd5b505050506040513d601f19601f820116820180604052508101906100e49190610416565b82610209565b505050565b6100f761027c565b5050565b806001600160a01b03163b5f0361013557604051631933b43b60e21b81526001600160a01b03821660048201526024015b60405180910390fd5b807fa3f0ad74e5423aebfd80d3ef4346578335a9a72aeaee59ff6cb3582b35133d5080546001600160a01b0319166001600160a01b0392831617905560408051635c60da1b60e01b815290515f92841691635c60da1b9160048083019260209291908290030181865afa1580156101ae573d5f5f3e3d5ffd5b505050506040513d601f19601f820116820180604052508101906101d29190610416565b9050806001600160a01b03163b5f036100f757604051634c9c8ce360e01b81526001600160a01b038216600482015260240161012c565b60605f5f846001600160a01b031684604051610225919061042f565b5f60405180830381855af49150503d805f811461025d576040519150601f19603f3d011682016040523d82523d5f602084013e610262565b606091505b50909250905061027385838361029d565b95945050505050565b341561029b5760405163b398979f60e01b815260040160405180910390fd5b565b6060826102b2576102ad826102fc565b6102f5565b81511580156102c957506001600160a01b0384163b155b156102f257604051639996b31560e01b81526001600160a01b038516600482015260240161012c565b50805b9392505050565b80511561030c5780518082602001fd5b60405163d6bda27560e01b815260040160405180910390fd5b80516001600160a01b038116811461033b575f5ffd5b919050565b634e487b7160e01b5f52604160045260245ffd5b5f5f60408385031215610365575f5ffd5b61036e83610325565b60208401519092506001600160401b03811115610389575f5ffd5b8301601f81018513610399575f5ffd5b80516001600160401b038111156103b2576103b2610340565b604051601f8201601f19908116603f011681016001600160401b03811182821017156103e0576103e0610340565b6040528181528282016020018710156103f7575f5ffd5b8160208401602083015e5f602083830101528093505050509250929050565b5f60208284031215610426575f5ffd5b6102f582610325565b5f82518060208501845e5f920191825250919050565b60805161014161045c5f395f602301526101415ff3fe608060405261000c61000e565b005b61001e610019610020565b6100b3565b565b5f7f000000000000000000000000000000000000000000000000000000000000000073ffffffffffffffffffffffffffffffffffffffff16635c60da1b6040518163ffffffff1660e01b8152600401602060405180830381865afa15801561008a573d5f5f3e3d5ffd5b505050506040513d601f19601f820116820180604052508101906100ae91906100d1565b905090565b365f5f375f5f365f845af43d5f5f3e8080156100cd573d5ff35b3d5ffd5b5f602082840312156100e1575f5ffd5b815173ffffffffffffffffffffffffffffffffffffffff81168114610104575f5ffd5b939250505056fea2646970667358221220ef488b95a70944818b6cc64d0b6757c5ec5198d5e89d8cfda58fbbd9f83cdb5964736f6c634300081c0033a2646970667358221220d7cb65bad0374c89004fe9c75a5bd42d7da617ca5d60d81d6f836c4e38d5c85064736f6c634300081c0033",
        "linkReferences": {}
    },
    "methodIdentifiers": {
        "EVC()": "a70354a1",
        "collateralVaultBeacon(address)": "d6bac7f6",
        "collateralVaults(address,uint256)": "07829590",
        "createCollateralVault(address,address,uint256)": "52dea99e",
        "getCollateralVaults(address)": "57a71baa",
        "isCollateralVault(address)": "079086d0",
        "nonce(address)": "70ae92d2",
        "owner()": "8da5cb5b",
        "pause(bool)": "02329a29",
        "paused()": "5c975abb",
        "renounceOwnership()": "715018a6",
        "setBeacon(address,address)": "541edbee",
        "setCollateralVaultLiquidated(address)": "cf8a3222",
        "setVaultManager(address)": "b543503e",
        "transferOwnership(address)": "f2fde38b",
        "vaultManager()": "8a4adf24"
    },
    "id": 150
}