{
    "abi": [
        {
            "type": "constructor",
            "inputs": [
                {
                    "name": "_evc",
                    "type": "address",
                    "internalType": "address"
                },
                {
                    "name": "_aavePool",
                    "type": "address",
                    "internalType": "address"
                },
                {
                    "name": "_incentiveController",
                    "type": "address",
                    "internalType": "address"
                }
            ],
            "stateMutability": "nonpayable"
        },
        {
            "type": "fallback",
            "stateMutability": "nonpayable"
        },
        {
            "type": "function",
            "name": "EVC",
            "inputs": [],
            "outputs": [
                {
                    "name": "",
                    "type": "address",
                    "internalType": "address"
                }
            ],
            "stateMutability": "view"
        },
        {
            "type": "function",
            "name": "INCENTIVES_CONTROLLER",
            "inputs": [],
            "outputs": [
                {
                    "name": "",
                    "type": "address",
                    "internalType": "contract IRewardsController"
                }
            ],
            "stateMutability": "view"
        },
        {
            "type": "function",
            "name": "aToken",
            "inputs": [],
            "outputs": [
                {
                    "name": "",
                    "type": "address",
                    "internalType": "address"
                }
            ],
            "stateMutability": "view"
        },
        {
            "type": "function",
            "name": "aaveDataProvider",
            "inputs": [],
            "outputs": [
                {
                    "name": "",
                    "type": "address",
                    "internalType": "contract IPoolDataProvider"
                }
            ],
            "stateMutability": "view"
        },
        {
            "type": "function",
            "name": "aaveDebtToken",
            "inputs": [],
            "outputs": [
                {
                    "name": "",
                    "type": "address",
                    "internalType": "address"
                }
            ],
            "stateMutability": "view"
        },
        {
            "type": "function",
            "name": "asset",
            "inputs": [],
            "outputs": [
                {
                    "name": "",
                    "type": "address",
                    "internalType": "address"
                }
            ],
            "stateMutability": "view"
        },
        {
            "type": "function",
            "name": "balanceOf",
            "inputs": [
                {
                    "name": "user",
                    "type": "address",
                    "internalType": "address"
                }
            ],
            "outputs": [
                {
                    "name": "",
                    "type": "uint256",
                    "internalType": "uint256"
                }
            ],
            "stateMutability": "view"
        },
        {
            "type": "function",
            "name": "borrow",
            "inputs": [
                {
                    "name": "_targetAmount",
                    "type": "uint256",
                    "internalType": "uint256"
                },
                {
                    "name": "_receiver",
                    "type": "address",
                    "internalType": "address"
                }
            ],
            "outputs": [],
            "stateMutability": "nonpayable"
        },
        {
            "type": "function",
            "name": "borrower",
            "inputs": [],
            "outputs": [
                {
                    "name": "",
                    "type": "address",
                    "internalType": "address"
                }
            ],
            "stateMutability": "view"
        },
        {
            "type": "function",
            "name": "canLiquidate",
            "inputs": [],
            "outputs": [
                {
                    "name": "",
                    "type": "bool",
                    "internalType": "bool"
                }
            ],
            "stateMutability": "view"
        },
        {
            "type": "function",
            "name": "canRebalance",
            "inputs": [],
            "outputs": [
                {
                    "name": "",
                    "type": "uint256",
                    "internalType": "uint256"
                }
            ],
            "stateMutability": "view"
        },
        {
            "type": "function",
            "name": "categoryId",
            "inputs": [],
            "outputs": [
                {
                    "name": "",
                    "type": "uint8",
                    "internalType": "uint8"
                }
            ],
            "stateMutability": "view"
        },
        {
            "type": "function",
            "name": "checkVaultStatus",
            "inputs": [],
            "outputs": [
                {
                    "name": "",
                    "type": "bytes4",
                    "internalType": "bytes4"
                }
            ],
            "stateMutability": "nonpayable"
        },
        {
            "type": "function",
            "name": "claimRewards",
            "inputs": [
                {
                    "name": "assets",
                    "type": "address[]",
                    "internalType": "address[]"
                }
            ],
            "outputs": [],
            "stateMutability": "nonpayable"
        },
        {
            "type": "function",
            "name": "collateralForBorrower",
            "inputs": [
                {
                    "name": "B",
                    "type": "uint256",
                    "internalType": "uint256"
                },
                {
                    "name": "C",
                    "type": "uint256",
                    "internalType": "uint256"
                }
            ],
            "outputs": [
                {
                    "name": "",
                    "type": "uint256",
                    "internalType": "uint256"
                }
            ],
            "stateMutability": "view"
        },
        {
            "type": "function",
            "name": "collateralVaultFactory",
            "inputs": [],
            "outputs": [
                {
                    "name": "",
                    "type": "address",
                    "internalType": "contract CollateralVaultFactory"
                }
            ],
            "stateMutability": "view"
        },
        {
            "type": "function",
            "name": "convertToAssets",
            "inputs": [
                {
                    "name": "shares",
                    "type": "uint256",
                    "internalType": "uint256"
                }
            ],
            "outputs": [
                {
                    "name": "",
                    "type": "uint256",
                    "internalType": "uint256"
                }
            ],
            "stateMutability": "pure"
        },
        {
            "type": "function",
            "name": "deposit",
            "inputs": [
                {
                    "name": "assets",
                    "type": "uint256",
                    "internalType": "uint256"
                }
            ],
            "outputs": [],
            "stateMutability": "nonpayable"
        },
        {
            "type": "function",
            "name": "depositUnderlying",
            "inputs": [
                {
                    "name": "underlying",
                    "type": "uint256",
                    "internalType": "uint256"
                }
            ],
            "outputs": [],
            "stateMutability": "nonpayable"
        },
        {
            "type": "function",
            "name": "handleExternalLiquidation",
            "inputs": [],
            "outputs": [],
            "stateMutability": "nonpayable"
        },
        {
            "type": "function",
            "name": "initialize",
            "inputs": [
                {
                    "name": "__asset",
                    "type": "address",
                    "internalType": "contract IERC20"
                },
                {
                    "name": "__borrower",
                    "type": "address",
                    "internalType": "address"
                },
                {
                    "name": "__liqLTV",
                    "type": "uint256",
                    "internalType": "uint256"
                },
                {
                    "name": "__vaultManager",
                    "type": "address",
                    "internalType": "contract VaultManager"
                },
                {
                    "name": "__targetAsset",
                    "type": "address",
                    "internalType": "address"
                },
                {
                    "name": "__categoryId",
                    "type": "uint8",
                    "internalType": "uint8"
                }
            ],
            "outputs": [],
            "stateMutability": "nonpayable"
        },
        {
            "type": "function",
            "name": "intermediateVault",
            "inputs": [],
            "outputs": [
                {
                    "name": "",
                    "type": "address",
                    "internalType": "contract IEVault"
                }
            ],
            "stateMutability": "view"
        },
        {
            "type": "function",
            "name": "isExternallyLiquidated",
            "inputs": [],
            "outputs": [
                {
                    "name": "",
                    "type": "bool",
                    "internalType": "bool"
                }
            ],
            "stateMutability": "view"
        },
        {
            "type": "function",
            "name": "liquidate",
            "inputs": [],
            "outputs": [],
            "stateMutability": "nonpayable"
        },
        {
            "type": "function",
            "name": "maxRelease",
            "inputs": [],
            "outputs": [
                {
                    "name": "",
                    "type": "uint256",
                    "internalType": "uint256"
                }
            ],
            "stateMutability": "view"
        },
        {
            "type": "function",
            "name": "maxRepay",
            "inputs": [],
            "outputs": [
                {
                    "name": "",
                    "type": "uint256",
                    "internalType": "uint256"
                }
            ],
            "stateMutability": "view"
        },
        {
            "type": "function",
            "name": "name",
            "inputs": [],
            "outputs": [
                {
                    "name": "",
                    "type": "string",
                    "internalType": "string"
                }
            ],
            "stateMutability": "view"
        },
        {
            "type": "function",
            "name": "rebalance",
            "inputs": [],
            "outputs": [],
            "stateMutability": "nonpayable"
        },
        {
            "type": "function",
            "name": "redeemUnderlying",
            "inputs": [
                {
                    "name": "assets",
                    "type": "uint256",
                    "internalType": "uint256"
                },
                {
                    "name": "receiver",
                    "type": "address",
                    "internalType": "address"
                }
            ],
            "outputs": [
                {
                    "name": "underlying",
                    "type": "uint256",
                    "internalType": "uint256"
                }
            ],
            "stateMutability": "nonpayable"
        },
        {
            "type": "function",
            "name": "repay",
            "inputs": [
                {
                    "name": "_amount",
                    "type": "uint256",
                    "internalType": "uint256"
                }
            ],
            "outputs": [],
            "stateMutability": "nonpayable"
        },
        {
            "type": "function",
            "name": "setTwyneLiqLTV",
            "inputs": [
                {
                    "name": "_ltv",
                    "type": "uint256",
                    "internalType": "uint256"
                }
            ],
            "outputs": [],
            "stateMutability": "nonpayable"
        },
        {
            "type": "function",
            "name": "skim",
            "inputs": [],
            "outputs": [],
            "stateMutability": "nonpayable"
        },
        {
            "type": "function",
            "name": "symbol",
            "inputs": [],
            "outputs": [
                {
                    "name": "",
                    "type": "string",
                    "internalType": "string"
                }
            ],
            "stateMutability": "view"
        },
        {
            "type": "function",
            "name": "targetAsset",
            "inputs": [],
            "outputs": [
                {
                    "name": "",
                    "type": "address",
                    "internalType": "address"
                }
            ],
            "stateMutability": "view"
        },
        {
            "type": "function",
            "name": "targetVault",
            "inputs": [],
            "outputs": [
                {
                    "name": "",
                    "type": "address",
                    "internalType": "address"
                }
            ],
            "stateMutability": "view"
        },
        {
            "type": "function",
            "name": "tenPowAssetDecimals",
            "inputs": [],
            "outputs": [
                {
                    "name": "",
                    "type": "uint256",
                    "internalType": "uint256"
                }
            ],
            "stateMutability": "view"
        },
        {
            "type": "function",
            "name": "tenPowVAssetDecimals",
            "inputs": [],
            "outputs": [
                {
                    "name": "",
                    "type": "uint256",
                    "internalType": "uint256"
                }
            ],
            "stateMutability": "view"
        },
        {
            "type": "function",
            "name": "totalAssetsDepositedOrReserved",
            "inputs": [],
            "outputs": [
                {
                    "name": "",
                    "type": "uint256",
                    "internalType": "uint256"
                }
            ],
            "stateMutability": "view"
        },
        {
            "type": "function",
            "name": "twyneLiqLTV",
            "inputs": [],
            "outputs": [
                {
                    "name": "",
                    "type": "uint256",
                    "internalType": "uint256"
                }
            ],
            "stateMutability": "view"
        },
        {
            "type": "function",
            "name": "twyneVaultManager",
            "inputs": [],
            "outputs": [
                {
                    "name": "",
                    "type": "address",
                    "internalType": "contract VaultManager"
                }
            ],
            "stateMutability": "view"
        },
        {
            "type": "function",
            "name": "underlyingAsset",
            "inputs": [],
            "outputs": [
                {
                    "name": "",
                    "type": "address",
                    "internalType": "address"
                }
            ],
            "stateMutability": "view"
        },
        {
            "type": "function",
            "name": "version",
            "inputs": [],
            "outputs": [
                {
                    "name": "",
                    "type": "uint256",
                    "internalType": "uint256"
                }
            ],
            "stateMutability": "pure"
        },
        {
            "type": "function",
            "name": "withdraw",
            "inputs": [
                {
                    "name": "assets",
                    "type": "uint256",
                    "internalType": "uint256"
                },
                {
                    "name": "receiver",
                    "type": "address",
                    "internalType": "address"
                }
            ],
            "outputs": [],
            "stateMutability": "nonpayable"
        },
        {
            "type": "event",
            "name": "Initialized",
            "inputs": [
                {
                    "name": "version",
                    "type": "uint64",
                    "indexed": false,
                    "internalType": "uint64"
                }
            ],
            "anonymous": false
        },
        {
            "type": "event",
            "name": "T_AddAllowedTargetVault",
            "inputs": [
                {
                    "name": "intermediateVault",
                    "type": "address",
                    "indexed": true,
                    "internalType": "address"
                },
                {
                    "name": "targetVault",
                    "type": "address",
                    "indexed": true,
                    "internalType": "address"
                }
            ],
            "anonymous": false
        },
        {
            "type": "event",
            "name": "T_AddAllowedTargetVaultAsset",
            "inputs": [
                {
                    "name": "intermediateVault",
                    "type": "address",
                    "indexed": true,
                    "internalType": "address"
                },
                {
                    "name": "targetVault",
                    "type": "address",
                    "indexed": true,
                    "internalType": "address"
                },
                {
                    "name": "targetAsset",
                    "type": "address",
                    "indexed": true,
                    "internalType": "address"
                }
            ],
            "anonymous": false
        },
        {
            "type": "event",
            "name": "T_Borrow",
            "inputs": [
                {
                    "name": "targetAmount",
                    "type": "uint256",
                    "indexed": false,
                    "internalType": "uint256"
                },
                {
                    "name": "receiver",
                    "type": "address",
                    "indexed": true,
                    "internalType": "address"
                }
            ],
            "anonymous": false
        },
        {
            "type": "event",
            "name": "T_CategoryIdSet",
            "inputs": [
                {
                    "name": "targetVault",
                    "type": "address",
                    "indexed": true,
                    "internalType": "address"
                },
                {
                    "name": "collateral",
                    "type": "address",
                    "indexed": true,
                    "internalType": "address"
                },
                {
                    "name": "debt",
                    "type": "address",
                    "indexed": true,
                    "internalType": "address"
                },
                {
                    "name": "categoryId",
                    "type": "uint8",
                    "indexed": false,
                    "internalType": "uint8"
                }
            ],
            "anonymous": false
        },
        {
            "type": "event",
            "name": "T_CollateralVaultCreated",
            "inputs": [
                {
                    "name": "vault",
                    "type": "address",
                    "indexed": true,
                    "internalType": "address"
                }
            ],
            "anonymous": false
        },
        {
            "type": "event",
            "name": "T_CollateralVaultInitialized",
            "inputs": [],
            "anonymous": false
        },
        {
            "type": "event",
            "name": "T_ControllerDisabled",
            "inputs": [],
            "anonymous": false
        },
        {
            "type": "event",
            "name": "T_Deposit",
            "inputs": [
                {
                    "name": "amount",
                    "type": "uint256",
                    "indexed": false,
                    "internalType": "uint256"
                }
            ],
            "anonymous": false
        },
        {
            "type": "event",
            "name": "T_DepositUnderlying",
            "inputs": [
                {
                    "name": "amount",
                    "type": "uint256",
                    "indexed": false,
                    "internalType": "uint256"
                }
            ],
            "anonymous": false
        },
        {
            "type": "event",
            "name": "T_DoCall",
            "inputs": [
                {
                    "name": "to",
                    "type": "address",
                    "indexed": true,
                    "internalType": "address"
                },
                {
                    "name": "value",
                    "type": "uint256",
                    "indexed": false,
                    "internalType": "uint256"
                },
                {
                    "name": "data",
                    "type": "bytes",
                    "indexed": false,
                    "internalType": "bytes"
                }
            ],
            "anonymous": false
        },
        {
            "type": "event",
            "name": "T_FactoryPause",
            "inputs": [
                {
                    "name": "pause",
                    "type": "bool",
                    "indexed": false,
                    "internalType": "bool"
                }
            ],
            "anonymous": false
        },
        {
            "type": "event",
            "name": "T_HandleExternalLiquidation",
            "inputs": [],
            "anonymous": false
        },
        {
            "type": "event",
            "name": "T_LeverageDownExecuted",
            "inputs": [
                {
                    "name": "collateralVault",
                    "type": "address",
                    "indexed": true,
                    "internalType": "address"
                }
            ],
            "anonymous": false
        },
        {
            "type": "event",
            "name": "T_LeverageUpExecuted",
            "inputs": [
                {
                    "name": "collateralVault",
                    "type": "address",
                    "indexed": true,
                    "internalType": "address"
                }
            ],
            "anonymous": false
        },
        {
            "type": "event",
            "name": "T_Rebalance",
            "inputs": [],
            "anonymous": false
        },
        {
            "type": "event",
            "name": "T_RedeemUnderlying",
            "inputs": [
                {
                    "name": "amount",
                    "type": "uint256",
                    "indexed": false,
                    "internalType": "uint256"
                },
                {
                    "name": "receiver",
                    "type": "address",
                    "indexed": true,
                    "internalType": "address"
                }
            ],
            "anonymous": false
        },
        {
            "type": "event",
            "name": "T_RemoveAllowedTargetVault",
            "inputs": [
                {
                    "name": "intermediateVault",
                    "type": "address",
                    "indexed": true,
                    "internalType": "address"
                },
                {
                    "name": "targetVault",
                    "type": "address",
                    "indexed": true,
                    "internalType": "address"
                },
                {
                    "name": "index",
                    "type": "uint256",
                    "indexed": false,
                    "internalType": "uint256"
                }
            ],
            "anonymous": false
        },
        {
            "type": "event",
            "name": "T_Repay",
            "inputs": [
                {
                    "name": "repayAmount",
                    "type": "uint256",
                    "indexed": false,
                    "internalType": "uint256"
                }
            ],
            "anonymous": false
        },
        {
            "type": "event",
            "name": "T_SetBeacon",
            "inputs": [
                {
                    "name": "targetVault",
                    "type": "address",
                    "indexed": true,
                    "internalType": "address"
                },
                {
                    "name": "beacon",
                    "type": "address",
                    "indexed": true,
                    "internalType": "address"
                }
            ],
            "anonymous": false
        },
        {
            "type": "event",
            "name": "T_SetCollateralVaultFactory",
            "inputs": [
                {
                    "name": "factory",
                    "type": "address",
                    "indexed": true,
                    "internalType": "address"
                }
            ],
            "anonymous": false
        },
        {
            "type": "event",
            "name": "T_SetCollateralVaultLiquidated",
            "inputs": [
                {
                    "name": "collateralVault",
                    "type": "address",
                    "indexed": true,
                    "internalType": "address"
                },
                {
                    "name": "liquidator",
                    "type": "address",
                    "indexed": true,
                    "internalType": "address"
                }
            ],
            "anonymous": false
        },
        {
            "type": "event",
            "name": "T_SetExternalLiqBuffer",
            "inputs": [
                {
                    "name": "collateralAddress",
                    "type": "address",
                    "indexed": true,
                    "internalType": "address"
                },
                {
                    "name": "liqBuffer",
                    "type": "uint16",
                    "indexed": false,
                    "internalType": "uint16"
                }
            ],
            "anonymous": false
        },
        {
            "type": "event",
            "name": "T_SetIntermediateVault",
            "inputs": [
                {
                    "name": "intermediateVault",
                    "type": "address",
                    "indexed": true,
                    "internalType": "address"
                }
            ],
            "anonymous": false
        },
        {
            "type": "event",
            "name": "T_SetLTV",
            "inputs": [
                {
                    "name": "intermediateVault",
                    "type": "address",
                    "indexed": true,
                    "internalType": "address"
                },
                {
                    "name": "collateralVault",
                    "type": "address",
                    "indexed": true,
                    "internalType": "address"
                },
                {
                    "name": "borrowLimit",
                    "type": "uint16",
                    "indexed": false,
                    "internalType": "uint16"
                },
                {
                    "name": "liquidationLimit",
                    "type": "uint16",
                    "indexed": false,
                    "internalType": "uint16"
                },
                {
                    "name": "rampDuration",
                    "type": "uint32",
                    "indexed": false,
                    "internalType": "uint32"
                }
            ],
            "anonymous": false
        },
        {
            "type": "event",
            "name": "T_SetMaxLiqLTV",
            "inputs": [
                {
                    "name": "collateralAddress",
                    "type": "address",
                    "indexed": true,
                    "internalType": "address"
                },
                {
                    "name": "ltv",
                    "type": "uint16",
                    "indexed": false,
                    "internalType": "uint16"
                }
            ],
            "anonymous": false
        },
        {
            "type": "event",
            "name": "T_SetOracleResolvedVault",
            "inputs": [
                {
                    "name": "collateralAddress",
                    "type": "address",
                    "indexed": true,
                    "internalType": "address"
                },
                {
                    "name": "allow",
                    "type": "bool",
                    "indexed": false,
                    "internalType": "bool"
                }
            ],
            "anonymous": false
        },
        {
            "type": "event",
            "name": "T_SetOracleResolvedVault",
            "inputs": [
                {
                    "name": "oracleRouter",
                    "type": "address",
                    "indexed": true,
                    "internalType": "address"
                },
                {
                    "name": "collateralAddress",
                    "type": "address",
                    "indexed": true,
                    "internalType": "address"
                },
                {
                    "name": "allow",
                    "type": "bool",
                    "indexed": false,
                    "internalType": "bool"
                }
            ],
            "anonymous": false
        },
        {
            "type": "event",
            "name": "T_SetOracleRouter",
            "inputs": [
                {
                    "name": "newOracleRouter",
                    "type": "address",
                    "indexed": true,
                    "internalType": "address"
                }
            ],
            "anonymous": false
        },
        {
            "type": "event",
            "name": "T_SetTwyneLiqLTV",
            "inputs": [
                {
                    "name": "ltv",
                    "type": "uint256",
                    "indexed": false,
                    "internalType": "uint256"
                }
            ],
            "anonymous": false
        },
        {
            "type": "event",
            "name": "T_SetVaultManager",
            "inputs": [
                {
                    "name": "vaultManager",
                    "type": "address",
                    "indexed": true,
                    "internalType": "address"
                }
            ],
            "anonymous": false
        },
        {
            "type": "event",
            "name": "T_Skim",
            "inputs": [
                {
                    "name": "amount",
                    "type": "uint256",
                    "indexed": false,
                    "internalType": "uint256"
                }
            ],
            "anonymous": false
        },
        {
            "type": "event",
            "name": "T_Teleport",
            "inputs": [
                {
                    "name": "toDeposit",
                    "type": "uint256",
                    "indexed": false,
                    "internalType": "uint256"
                },
                {
                    "name": "toBorrow",
                    "type": "uint256",
                    "indexed": false,
                    "internalType": "uint256"
                }
            ],
            "anonymous": false
        },
        {
            "type": "event",
            "name": "T_Withdraw",
            "inputs": [
                {
                    "name": "amount",
                    "type": "uint256",
                    "indexed": false,
                    "internalType": "uint256"
                },
                {
                    "name": "receiver",
                    "type": "address",
                    "indexed": true,
                    "internalType": "address"
                }
            ],
            "anonymous": false
        },
        {
            "type": "error",
            "name": "AssetMismatch",
            "inputs": []
        },
        {
            "type": "error",
            "name": "BadDebtNotSettled",
            "inputs": []
        },
        {
            "type": "error",
            "name": "CallerNotCollateralVault",
            "inputs": []
        },
        {
            "type": "error",
            "name": "CallerNotOwnerOrCollateralVaultFactory",
            "inputs": []
        },
        {
            "type": "error",
            "name": "CannotRebalance",
            "inputs": []
        },
        {
            "type": "error",
            "name": "ControllerDisabled",
            "inputs": []
        },
        {
            "type": "error",
            "name": "EVC_InvalidAddress",
            "inputs": []
        },
        {
            "type": "error",
            "name": "E_TransferFromFailed",
            "inputs": [
                {
                    "name": "errorPermit2",
                    "type": "bytes",
                    "internalType": "bytes"
                },
                {
                    "name": "errorTransferFrom",
                    "type": "bytes",
                    "internalType": "bytes"
                }
            ]
        },
        {
            "type": "error",
            "name": "EnforcedPause",
            "inputs": []
        },
        {
            "type": "error",
            "name": "ExternalPositionUnhealthy",
            "inputs": []
        },
        {
            "type": "error",
            "name": "ExternallyLiquidated",
            "inputs": []
        },
        {
            "type": "error",
            "name": "HealthyNotLiquidatable",
            "inputs": []
        },
        {
            "type": "error",
            "name": "IncorrectIndex",
            "inputs": []
        },
        {
            "type": "error",
            "name": "IntermediateVaultAlreadySet",
            "inputs": []
        },
        {
            "type": "error",
            "name": "IntermediateVaultNotSet",
            "inputs": []
        },
        {
            "type": "error",
            "name": "InvalidInitialization",
            "inputs": []
        },
        {
            "type": "error",
            "name": "InvalidReserveIndex",
            "inputs": []
        },
        {
            "type": "error",
            "name": "NoLiquidationForZeroReserve",
            "inputs": []
        },
        {
            "type": "error",
            "name": "NotAuthorized",
            "inputs": []
        },
        {
            "type": "error",
            "name": "NotCollateralVault",
            "inputs": []
        },
        {
            "type": "error",
            "name": "NotExternallyLiquidated",
            "inputs": []
        },
        {
            "type": "error",
            "name": "NotInitializing",
            "inputs": []
        },
        {
            "type": "error",
            "name": "NotIntermediateVault",
            "inputs": []
        },
        {
            "type": "error",
            "name": "OnlyWETH",
            "inputs": []
        },
        {
            "type": "error",
            "name": "ReceiverNotBorrower",
            "inputs": []
        },
        {
            "type": "error",
            "name": "ReceiverNotCollateralVault",
            "inputs": []
        },
        {
            "type": "error",
            "name": "Reentrancy",
            "inputs": []
        },
        {
            "type": "error",
            "name": "ReentrancyGuardReentrantCall",
            "inputs": []
        },
        {
            "type": "error",
            "name": "RepayingMoreThanMax",
            "inputs": []
        },
        {
            "type": "error",
            "name": "SafeERC20FailedOperation",
            "inputs": [
                {
                    "name": "token",
                    "type": "address",
                    "internalType": "address"
                }
            ]
        },
        {
            "type": "error",
            "name": "SelfLiquidation",
            "inputs": []
        },
        {
            "type": "error",
            "name": "SnapshotNotTaken",
            "inputs": []
        },
        {
            "type": "error",
            "name": "T_CV_OperationDisabled",
            "inputs": []
        },
        {
            "type": "error",
            "name": "T_CallerNotBorrower",
            "inputs": []
        },
        {
            "type": "error",
            "name": "T_CallerNotMorpho",
            "inputs": []
        },
        {
            "type": "error",
            "name": "T_CallerNotSelf",
            "inputs": []
        },
        {
            "type": "error",
            "name": "T_DebtMoreThanMax",
            "inputs": []
        },
        {
            "type": "error",
            "name": "T_FeedDecimalsNotCorrect",
            "inputs": []
        },
        {
            "type": "error",
            "name": "T_InvalidCollateralVault",
            "inputs": []
        },
        {
            "type": "error",
            "name": "T_OperationDisabled",
            "inputs": []
        },
        {
            "type": "error",
            "name": "T_QuoteNotUSD",
            "inputs": []
        },
        {
            "type": "error",
            "name": "T_WithdrawMoreThanMax",
            "inputs": []
        },
        {
            "type": "error",
            "name": "ValueOutOfRange",
            "inputs": []
        },
        {
            "type": "error",
            "name": "VaultStatusLiquidatable",
            "inputs": []
        },
        {
            "type": "error",
            "name": "ViolatorNotCollateralVault",
            "inputs": []
        }
    ],
    "bytecode": {
        "object": "0x610100604052348015610010575f5ffd5b5060405161619038038061619083398101604081905261002f91610216565b8282816001600160a01b03811661005957604051638133abd160e01b815260040160405180910390fd5b6001600160a01b0390811660805290811660a05260408051630150a5d760e21b815290519185169250630542975c9160048083019260209291908290030181865afa1580156100aa573d5f5f3e3d5ffd5b505050506040513d601f19601f820116820180604052508101906100ce9190610260565b6001600160a01b031663e860accb6040518163ffffffff1660e01b8152600401602060405180830381865afa158015610109573d5f5f3e3d5ffd5b505050506040513d601f19601f8201168201806040525081019061012d9190610260565b6001600160a01b0390811660c052811660e052610148610150565b505050610282565b7ff0c57e16840df040f15088dc2f81fe391c3923bec73e23a9662efc9c229c6a00805468010000000000000000900460ff16156101a05760405163f92ee8a960e01b815260040160405180910390fd5b80546001600160401b03908116146101ff5780546001600160401b0319166001600160401b0390811782556040519081527fc7f505b2f371ae2175ee4913f4499e1f2633a7b5936321eed1cdaeb6115181d29060200160405180910390a15b50565b6001600160a01b03811681146101ff575f5ffd5b5f5f5f60608486031215610228575f5ffd5b835161023381610202565b602085015190935061024481610202565b604085015190925061025581610202565b809150509250925092565b5f60208284031215610270575f5ffd5b815161027b81610202565b9392505050565b60805160a05160c05160e051615dfb6103955f395f81816103ab01526130a801525f818161059e015281816129dd0152614ede01525f81816103f201528181610a4c01528181610cf001528181612ab401528181612b4701528181613d1501528181613f89015281816141c40152818161435a015281816144f401528181614c8b01528181614d4f0152614e1d01525f81816105c20152818161085a01528181610feb015281816112d5015281816115a30152818161174501528181611b23015281816121c6015281816124340152818161266e01528181612fa1015281816133680152818161341201528181613466015281816143d1015281816143fb015281816149d00152614a5a0152615dfb5ff3fe608060405234801561000f575f5ffd5b50600436106102e6575f3560e01c80637d7c2a1c1161018f578063b9f5be41116100e1578063e18b419f11610095578063f106778f1161006f578063f106778f146106ae578063f9f031df146106c1578063fc472b4f146106d4576102e6565b8063e18b419f14610680578063e8ea9aae14610688578063f09336981461069b576102e6565b8063ca19bcd4116100c6578063ca19bcd41461064c578063cd13ee771461065f578063d09f270114610677576102e6565b8063b9f5be4114610630578063c33d5c7114610643576102e6565b8063a06880c011610143578063a70354a11161011d578063a70354a1146105c0578063b503a2b9146105e6578063b6b55f251461061d576102e6565b8063a06880c01461057e578063a0c1f15e14610586578063a4f4acc514610599576102e6565b80637ff80498116101745780637ff8049814610527578063800aac031461053a57806395d89b4114610542576102e6565b80637d7c2a1c1461050c5780637df1f1b914610514576102e6565b806338d52e0f11610248578063548e2132116101fc57806368851d2f116101d657806368851d2f146104dd57806370a08231146104e65780637158da7c146104f9576102e6565b8063548e2132146104bb57806354fd4d50146104c35780635519129a146104ca576102e6565b80634b3d12231161022d5780634b3d12231461045c5780634b3fd148146104955780635297ffbb146104a8576102e6565b806338d52e0f146104385780633d4403ac14610449576102e6565b80631dd19cb41161029f57806328a070251161028457806328a07025146104145780632ee1e7be1461041c578063371fd8e614610425576102e6565b80631dd19cb4146103e55780631f92db45146103ed576102e6565b806307a2d13a116102d057806307a2d13a1461037f5780630e308a5e1461039e57806310d0ab22146103a6576102e6565b8062f714ce1461031857806306fdde031461032d575b6040517f335c5fec00000000000000000000000000000000000000000000000000000000815260040160405180910390fd5b61032b610326366004615361565b6106e7565b005b6103696040518060400160405280601081526020017f436f6c6c61746572616c205661756c740000000000000000000000000000000081525081565b60405161037691906153db565b60405180910390f35b61039061038d3660046153ed565b90565b604051908152602001610376565b61032b61092b565b6103cd7f000000000000000000000000000000000000000000000000000000000000000081565b6040516001600160a01b039091168152602001610376565b61032b6110a8565b6103cd7f000000000000000000000000000000000000000000000000000000000000000081565b61032b61139d565b610390603e5481565b61032b6104333660046153ed565b611630565b6007546001600160a01b03166103cd565b603a546103cd906001600160a01b031681565b610464611817565b6040517fffffffff000000000000000000000000000000000000000000000000000000009091168152602001610376565b61032b6104a3366004615361565b61198b565b6005546103cd906001600160a01b031681565b610390611bee565b6001610390565b6006546103cd906001600160a01b031681565b61039060015481565b6103906104f4366004615404565b611c76565b603d546103cd906001600160a01b031681565b61032b611db7565b6002546103cd906001600160a01b031681565b6004546103cd906001600160a01b031681565b610390611ea6565b6103696040518060400160405280600281526020017f435600000000000000000000000000000000000000000000000000000000000081525081565b610390611f37565b603c546103cd906001600160a01b031681565b6103cd7f000000000000000000000000000000000000000000000000000000000000000081565b7f00000000000000000000000000000000000000000000000000000000000000006103cd565b603d5461060b9074010000000000000000000000000000000000000000900460ff1681565b60405160ff9091168152602001610376565b61032b61062b3660046153ed565b611fe9565b61032b61063e3660046153ed565b612287565b610390603f5481565b61032b61065a3660046153ed565b6124c4565b6106676126fe565b6040519015158152602001610376565b61039060035481565b610667612769565b61032b61069636600461542d565b6127da565b6103906106a9366004615361565b612dae565b603b546103cd906001600160a01b031681565b61032b6106cf36600461556b565b613074565b6103906106e2366004615600565b613146565b6106ef613366565b6002546001600160a01b0316610703613406565b6001600160a01b031614610743576040517f4a1d1a9700000000000000000000000000000000000000000000000000000000815260040160405180910390fd5b61074b6134dd565b610781576040517f111c379d00000000000000000000000000000000000000000000000000000000815260040160405180910390fd5b61078961356a565b6107916135eb565b6001545f61079d611ea6565b6107a7908361564d565b90505f1984036107b9578093506107f3565b808411156107f3576040517f2755faea00000000000000000000000000000000000000000000000000000000815260040160405180910390fd5b6107fd848361564d565b60015561081c6108156007546001600160a01b031690565b84866135f9565b61082c61082761366d565b61376e565b6040517f30f316670000000000000000000000000000000000000000000000000000000081523060048201527f00000000000000000000000000000000000000000000000000000000000000006001600160a01b0316906330f31667906024015f604051808303815f87803b1580156108a3575f5ffd5b505af11580156108b5573d5f5f3e3d5ffd5b50505050826001600160a01b03167f226e3a154752424088fa9e17a43d1d4eb4738179083b3e9fb71b0a14e0949dcd856040516108f491815260200190565b60405180910390a2505061092760017f9b779b17422d0df92223018b32b4d1fa46e071723d6817e2486d003becc55f0055565b5050565b610933613366565b61093b61356a565b6109436135eb565b5f6109566007546001600160a01b031690565b600154603c546040517f1da24f3e00000000000000000000000000000000000000000000000000000000815230600482015292935090915f916001600160a01b031690631da24f3e90602401602060405180830381865afa1580156109bd573d5f5f3e3d5ffd5b505050506040513d601f19601f820116820180604052508101906109e19190615660565b9050808211610a1c576040517fdbd904f500000000000000000000000000000000000000000000000000000000815260040160405180910390fd5b6040517fbf92857c0000000000000000000000000000000000000000000000000000000081523060048201525f907f00000000000000000000000000000000000000000000000000000000000000006001600160a01b03169063bf92857c9060240160c060405180830381865afa158015610a99573d5f5f3e3d5ffd5b505050506040513d601f19601f82011682018060405250810190610abd9190615677565b95505050505050670de0b6b3a7640000811015610b06576040517ff1cd786c00000000000000000000000000000000000000000000000000000000815260040160405180910390fd5b506001600160a01b03831663fdebd167610b20838561564d565b6040518263ffffffff1660e01b8152600401610b3e91815260200190565b5f604051808303815f87803b158015610b55575f5ffd5b505af1158015610b67573d5f5f3e3d5ffd5b505050505f610b74611ea6565b90505f610b7f613406565b9050815f03610bcf576002546001600160a01b03828116911614610bcf576040517f818e158000000000000000000000000000000000000000000000000000000000815260040160405180910390fd5b5f610bd8611bee565b6040517f70a082310000000000000000000000000000000000000000000000000000000081523060048201529091505f906001600160a01b038816906370a0823190602401602060405180830381865afa158015610c38573d5f5f3e3d5ffd5b505050506040513d601f19601f82011682018060405250810190610c5c9190615660565b90505f5f5f610c6c848689613970565b919450925090508415610d5e57603a54610ca1906001600160a01b03168730886e22d473030f116ddee9f6b43ac78ba3613db4565b603a546040517f573ade810000000000000000000000000000000000000000000000000000000081526001600160a01b03918216600482015260248101879052600260448201523060648201527f00000000000000000000000000000000000000000000000000000000000000009091169063573ade81906084016020604051808303815f875af1158015610d38573d5f5f3e3d5ffd5b505050506040513d601f19601f82011682018060405250810190610d5c9190615660565b505b6040517fd0be1d000000000000000000000000000000000000000000000000000000000081525f60048201526001600160a01b038b169063d0be1d00906024015f604051808303815f87803b158015610db5575f5ffd5b505af1158015610dc7573d5f5f3e3d5ffd5b505050505f831115610e64576040517f090edf9a000000000000000000000000000000000000000000000000000000008152600481018490526001600160a01b0387811660248301523060448301528b169063090edf9a906064016020604051808303815f875af1158015610e3e573d5f5f3e3d5ffd5b505050506040513d601f19601f82011682018060405250810190610e629190615660565b505b8015610eff576002546040517f090edf9a000000000000000000000000000000000000000000000000000000008152600481018390526001600160a01b039182166024820152306044820152908b169063090edf9a906064016020604051808303815f875af1158015610ed9573d5f5f3e3d5ffd5b505050506040513d601f19601f82011682018060405250810190610efd9190615660565b505b8115610f92576006546040517facb70815000000000000000000000000000000000000000000000000000000008152600481018490523060248201526001600160a01b039091169063acb70815906044016020604051808303815f875af1158015610f6c573d5f5f3e3d5ffd5b505050506040513d601f19601f82011682018060405250810190610f909190615660565b505b5f6001819055600280547fffffffffffffffffffffffff0000000000000000000000000000000000000000169055604080517fa37d54af00000000000000000000000000000000000000000000000000000000815290517f00000000000000000000000000000000000000000000000000000000000000006001600160a01b03169263a37d54af926004808201939182900301818387803b158015611035575f5ffd5b505af1158015611047573d5f5f3e3d5ffd5b50506040517f201069227b1c078db0bf2f6c8d33cb0ae064045c18ce10c1017f360997ae8d3e92505f9150a1505050505050505050506110a660017f9b779b17422d0df92223018b32b4d1fa46e071723d6817e2486d003becc55f0055565b565b6110b0613366565b6002546001600160a01b03166110c4613406565b6001600160a01b031614611104576040517f4a1d1a9700000000000000000000000000000000000000000000000000000000815260040160405180910390fd5b61110c6134dd565b611142576040517f111c379d00000000000000000000000000000000000000000000000000000000815260040160405180910390fd5b60055f9054906101000a90046001600160a01b03166001600160a01b0316635c975abb6040518163ffffffff1660e01b8152600401602060405180830381865afa158015611192573d5f5f3e3d5ffd5b505050506040513d601f19601f820116820180604052508101906111b691906156cc565b156111ed576040517fd93c066500000000000000000000000000000000000000000000000000000000815260040160405180910390fd5b6111f561356a565b5f6112086007546001600160a01b031690565b6040517f70a082310000000000000000000000000000000000000000000000000000000081523060048201526001600160a01b0391909116906370a0823190602401602060405180830381865afa158015611265573d5f5f3e3d5ffd5b505050506040513d601f19601f820116820180604052508101906112899190615660565b6001549091506112976135eb565b60018290556112a761082761366d565b6040517f30f316670000000000000000000000000000000000000000000000000000000081523060048201527f00000000000000000000000000000000000000000000000000000000000000006001600160a01b0316906330f31667906024015f604051808303815f87803b15801561131e575f5ffd5b505af1158015611330573d5f5f3e3d5ffd5b505050507fbf070d83d8b5b8f55a9661ab7e6003ff366d49ace118b225d25a86194f4004d18183611361919061564d565b60405190815260200160405180910390a150506110a660017f9b779b17422d0df92223018b32b4d1fa46e071723d6817e2486d003becc55f0055565b6113a5613366565b6113ad61356a565b6113b56135eb565b6113bd6134dd565b6113f3576040517f111c379d00000000000000000000000000000000000000000000000000000000815260040160405180910390fd5b5f6113fc613406565b6002549091506001600160a01b0390811690821603611447576040517f44511af100000000000000000000000000000000000000000000000000000000815260040160405180910390fd5b61144f613f38565b611485576040517f8e9797c500000000000000000000000000000000000000000000000000000000815260040160405180910390fd5b5f5f61148f614188565b915091506114d56114a86007546001600160a01b031690565b60025485906001600160a01b03166114c08686613146565b6e22d473030f116ddee9f6b43ac78ba3613db4565b600280547fffffffffffffffffffffffff0000000000000000000000000000000000000000166001600160a01b038581169182179092556005546040517fcf8a322200000000000000000000000000000000000000000000000000000000815260048101929092529091169063cf8a3222906024015f604051808303815f87803b158015611561575f5ffd5b505af1158015611573573d5f5f3e3d5ffd5b50506040517f30f316670000000000000000000000000000000000000000000000000000000081523060048201527f00000000000000000000000000000000000000000000000000000000000000006001600160a01b031692506330f3166791506024015f604051808303815f87803b1580156115ee575f5ffd5b505af1158015611600573d5f5f3e3d5ffd5b505050505050506110a660017f9b779b17422d0df92223018b32b4d1fa46e071723d6817e2486d003becc55f0055565b611638613366565b6002546001600160a01b031661164c613406565b6001600160a01b03161461168c576040517f4a1d1a9700000000000000000000000000000000000000000000000000000000815260040160405180910390fd5b6116946134dd565b6116ca576040517f111c379d00000000000000000000000000000000000000000000000000000000815260040160405180910390fd5b6116d261356a565b6116da6135eb565b5f6116e3611bee565b90505f1982036116f55780915061172f565b8082111561172f576040517f4fc5c4ba00000000000000000000000000000000000000000000000000000000815260040160405180910390fd5b611738826142dd565b61174361082761366d565b7f00000000000000000000000000000000000000000000000000000000000000006001600160a01b031663a37d54af6040518163ffffffff1660e01b81526004015f604051808303815f87803b15801561179b575f5ffd5b505af11580156117ad573d5f5f3e3d5ffd5b505050507fda868d2eef48a736c565bda78058f72b57b928b32f991f0002678ce45172398b826040516117e291815260200190565b60405180910390a15061181460017f9b779b17422d0df92223018b32b4d1fa46e071723d6817e2486d003becc55f0055565b50565b5f6118206143c6565b5f545f0361185a576040517fcb85efac00000000000000000000000000000000000000000000000000000000815260040160405180910390fd5b611862613f38565b15611899576040517f9c166fd000000000000000000000000000000000000000000000000000000000815260040160405180910390fd5b6002546001600160a01b0316611963576006546040517fd283e75f0000000000000000000000000000000000000000000000000000000081523060048201526001600160a01b039091169063d283e75f90602401602060405180830381865afa158015611908573d5f5f3e3d5ffd5b505050506040513d601f19601f8201168201806040525081019061192c9190615660565b15611963576040517f0c00c96200000000000000000000000000000000000000000000000000000000815260040160405180910390fd5b505f80557f4b3d12230000000000000000000000000000000000000000000000000000000090565b611993613366565b6002546001600160a01b03166119a7613406565b6001600160a01b0316146119e7576040517f4a1d1a9700000000000000000000000000000000000000000000000000000000815260040160405180910390fd5b6119ef6134dd565b611a25576040517f111c379d00000000000000000000000000000000000000000000000000000000815260040160405180910390fd5b60055f9054906101000a90046001600160a01b03166001600160a01b0316635c975abb6040518163ffffffff1660e01b8152600401602060405180830381865afa158015611a75573d5f5f3e3d5ffd5b505050506040513d601f19601f82011682018060405250810190611a9991906156cc565b15611ad0576040517fd93c066500000000000000000000000000000000000000000000000000000000815260040160405180910390fd5b611ad861356a565b611ae06135eb565b611aea82826144b2565b611af561082761366d565b6040517f30f316670000000000000000000000000000000000000000000000000000000081523060048201527f00000000000000000000000000000000000000000000000000000000000000006001600160a01b0316906330f31667906024015f604051808303815f87803b158015611b6c575f5ffd5b505af1158015611b7e573d5f5f3e3d5ffd5b50505050806001600160a01b03167fde4f42b1727454f62e0f8b803f786bdf0c725998ffe2608545decdaad324b67083604051611bbd91815260200190565b60405180910390a261092760017f9b779b17422d0df92223018b32b4d1fa46e071723d6817e2486d003becc55f0055565b603b546040517f70a082310000000000000000000000000000000000000000000000000000000081523060048201525f916001600160a01b0316906370a0823190602401602060405180830381865afa158015611c4d573d5f5f3e3d5ffd5b505050506040513d601f19601f82011682018060405250810190611c719190615660565b905090565b5f611ca27f9b779b17422d0df92223018b32b4d1fa46e071723d6817e2486d003becc55f005460021490565b15611cd9576040517f3ee5aeb500000000000000000000000000000000000000000000000000000000815260040160405180910390fd5b6001600160a01b0382163014611cf057505f919050565b6002546001600160a01b0316611d0757505f919050565b600154603c546040517f1da24f3e0000000000000000000000000000000000000000000000000000000081523060048201526001600160a01b0390911690631da24f3e90602401602060405180830381865afa158015611d69573d5f5f3e3d5ffd5b505050506040513d601f19601f82011682018060405250810190611d8d9190615660565b811115611d9c57505f92915050565b611da4611ea6565b611dae908261564d565b9150505b919050565b611dbf613366565b611dc761356a565b5f611dd061366d565b90508060015411611e0d576040517f302a624a00000000000000000000000000000000000000000000000000000000815260040160405180910390fd5b611e156134dd565b611e4b576040517f111c379d00000000000000000000000000000000000000000000000000000000815260040160405180910390fd5b611e548161376e565b6040517f7f89682ae65a1f951f91061a52d68beff208a52bbbb13b88ff3045a6c6d1bf92905f90a1506110a660017f9b779b17422d0df92223018b32b4d1fa46e071723d6817e2486d003becc55f0055565b6006546040517fd283e75f0000000000000000000000000000000000000000000000000000000081523060048201525f91611c71916001600160a01b039091169063d283e75f90602401602060405180830381865afa158015611f0b573d5f5f3e3d5ffd5b505050506040513d601f19601f82011682018060405250810190611f2f9190615660565b6001546145f8565b5f611f637f9b779b17422d0df92223018b32b4d1fa46e071723d6817e2486d003becc55f005460021490565b15611f9a576040517f3ee5aeb500000000000000000000000000000000000000000000000000000000815260040160405180910390fd5b5f611fa361366d565b90508060015411611fe0576040517f302a624a00000000000000000000000000000000000000000000000000000000815260040160405180910390fd5b60015403905090565b611ff1613366565b6002546001600160a01b0316612005613406565b6001600160a01b031614612045576040517f4a1d1a9700000000000000000000000000000000000000000000000000000000815260040160405180910390fd5b61204d6134dd565b612083576040517f111c379d00000000000000000000000000000000000000000000000000000000815260040160405180910390fd5b60055f9054906101000a90046001600160a01b03166001600160a01b0316635c975abb6040518163ffffffff1660e01b8152600401602060405180830381865afa1580156120d3573d5f5f3e3d5ffd5b505050506040513d601f19601f820116820180604052508101906120f791906156cc565b1561212e576040517fd93c066500000000000000000000000000000000000000000000000000000000815260040160405180910390fd5b61213661356a565b61213e6135eb565b6121766121536007546001600160a01b031690565b6002546001600160a01b031630846e22d473030f116ddee9f6b43ac78ba3613db4565b8060015f82825461218791906156e5565b90915550612198905061082761366d565b6040517f30f316670000000000000000000000000000000000000000000000000000000081523060048201527f00000000000000000000000000000000000000000000000000000000000000006001600160a01b0316906330f31667906024015f604051808303815f87803b15801561220f575f5ffd5b505af1158015612221573d5f5f3e3d5ffd5b505050507f729fe3250be1fe37041d8f9ee1649d82d8578a0230154a04fc00143efcb3d0ea8160405161225691815260200190565b60405180910390a161181460017f9b779b17422d0df92223018b32b4d1fa46e071723d6817e2486d003becc55f0055565b61228f613366565b6002546001600160a01b03166122a3613406565b6001600160a01b0316146122e3576040517f4a1d1a9700000000000000000000000000000000000000000000000000000000815260040160405180910390fd5b6122eb6134dd565b612321576040517f111c379d00000000000000000000000000000000000000000000000000000000815260040160405180910390fd5b60055f9054906101000a90046001600160a01b03166001600160a01b0316635c975abb6040518163ffffffff1660e01b8152600401602060405180830381865afa158015612371573d5f5f3e3d5ffd5b505050506040513d601f19601f8201168201806040525081019061239591906156cc565b156123cc576040517fd93c066500000000000000000000000000000000000000000000000000000000815260040160405180910390fd5b6123d461356a565b6123dc6135eb565b6123e58161460a565b60015f8282546123f591906156e5565b90915550612406905061082761366d565b6040517f30f316670000000000000000000000000000000000000000000000000000000081523060048201527f00000000000000000000000000000000000000000000000000000000000000006001600160a01b0316906330f31667906024015f604051808303815f87803b15801561247d575f5ffd5b505af115801561248f573d5f5f3e3d5ffd5b505050507f8570c637af651287ed477b5c53ba29ef8d7dbb8c10a7cc4f496d870b5bea2ea88160405161225691815260200190565b6124cc613366565b6002546001600160a01b03166124e0613406565b6001600160a01b031614612520576040517f4a1d1a9700000000000000000000000000000000000000000000000000000000815260040160405180910390fd5b6125286134dd565b61255e576040517f111c379d00000000000000000000000000000000000000000000000000000000815260040160405180910390fd5b60055f9054906101000a90046001600160a01b03166001600160a01b0316635c975abb6040518163ffffffff1660e01b8152600401602060405180830381865afa1580156125ae573d5f5f3e3d5ffd5b505050506040513d601f19601f820116820180604052508101906125d291906156cc565b15612609576040517fd93c066500000000000000000000000000000000000000000000000000000000815260040160405180910390fd5b61261161356a565b6126196135eb565b6007546126309082906001600160a01b03166146d6565b600381905561264061082761366d565b6040517f30f316670000000000000000000000000000000000000000000000000000000081523060048201527f00000000000000000000000000000000000000000000000000000000000000006001600160a01b0316906330f31667906024015f604051808303815f87803b1580156126b7575f5ffd5b505af11580156126c9573d5f5f3e3d5ffd5b505050507f4ed6247dd07fa547f2a5675b8a09ba23414bcbb7250a9de94f2a17eb8fc560408160405161225691815260200190565b5f61272a7f9b779b17422d0df92223018b32b4d1fa46e071723d6817e2486d003becc55f005460021490565b15612761576040517f3ee5aeb500000000000000000000000000000000000000000000000000000000815260040160405180910390fd5b611c71613f38565b5f6127957f9b779b17422d0df92223018b32b4d1fa46e071723d6817e2486d003becc55f005460021490565b156127cc576040517f3ee5aeb500000000000000000000000000000000000000000000000000000000815260040160405180910390fd5b6127d46134dd565b15905090565b7ff0c57e16840df040f15088dc2f81fe391c3923bec73e23a9662efc9c229c6a00805468010000000000000000810460ff16159067ffffffffffffffff165f811580156128245750825b90505f8267ffffffffffffffff1660011480156128405750303b155b90508115801561284e575080155b15612885576040517ff92ee8a900000000000000000000000000000000000000000000000000000000815260040160405180910390fd5b84547fffffffffffffffffffffffffffffffffffffffffffffffff000000000000000016600117855583156128e65784547fffffffffffffffffffffffffffffffffffffffffffffff00ffffffffffffffff16680100000000000000001785555b85603d60146101000a81548160ff021916908360ff1602179055505f8b6001600160a01b03166338d52e0f6040518163ffffffff1660e01b8152600401602060405180830381865afa15801561293e573d5f5f3e3d5ffd5b505050506040513d601f19601f820116820180604052508101906129629190615703565b603d80547fffffffffffffffffffffffff0000000000000000000000000000000000000000166001600160a01b03831617905590506129a38c8c8c8c61485c565b6040517fd2493b6c0000000000000000000000000000000000000000000000000000000081526001600160a01b0389811660048301525f917f00000000000000000000000000000000000000000000000000000000000000009091169063d2493b6c90602401606060405180830381865afa158015612a24573d5f5f3e3d5ffd5b505050506040513d601f19601f82011682018060405250810190612a48919061571e565b603a80547fffffffffffffffffffffffff0000000000000000000000000000000000000000166001600160a01b038e8116919091179091556040517f28530a4700000000000000000000000000000000000000000000000000000000815260ff8d1660048201529194507f00000000000000000000000000000000000000000000000000000000000000001692506328530a4791506024015f604051808303815f87803b158015612af7575f5ffd5b505af1158015612b09573d5f5f3e3d5ffd5b5050603b80547fffffffffffffffffffffffff0000000000000000000000000000000000000000166001600160a01b03851617905550612b6d9050897f00000000000000000000000000000000000000000000000000000000000000005f19614b6c565b612b79828e5f19614b6c565b5f8d6001600160a01b031663a0c1f15e6040518163ffffffff1660e01b8152600401602060405180830381865afa158015612bb6573d5f5f3e3d5ffd5b505050506040513d601f19601f82011682018060405250810190612bda9190615703565b9050612be8818f5f19614b6c565b80603c5f6101000a8154816001600160a01b0302191690836001600160a01b031602179055508d6001600160a01b031663313ce5676040518163ffffffff1660e01b8152600401602060405180830381865afa158015612c4a573d5f5f3e3d5ffd5b505050506040513d601f19601f82011682018060405250810190612c6e9190615768565b612c7c9060ff16600a61585e565b603e55603b54604080517f313ce56700000000000000000000000000000000000000000000000000000000815290516001600160a01b039092169163313ce567916004808201926020929091908290030181865afa158015612ce0573d5f5f3e3d5ffd5b505050506040513d601f19601f82011682018060405250810190612d049190615768565b612d129060ff16600a61585e565b603f556040517f12a9cc17c88558b7be75e6263660f7e37d1b75b5370e41a69e6c5ecde2ef510b905f90a15050508315612da15784547fffffffffffffffffffffffffffffffffffffffffffffff00ffffffffffffffff168555604051600181527fc7f505b2f371ae2175ee4913f4499e1f2633a7b5936321eed1cdaeb6115181d29060200160405180910390a15b5050505050505050505050565b5f612db7613366565b6002546001600160a01b0316612dcb613406565b6001600160a01b031614612e0b576040517f4a1d1a9700000000000000000000000000000000000000000000000000000000815260040160405180910390fd5b612e136134dd565b612e49576040517f111c379d00000000000000000000000000000000000000000000000000000000815260040160405180910390fd5b612e5161356a565b612e596135eb565b6001545f612e65611ea6565b612e6f908361564d565b90505f198503612e8157809450612ebb565b80851115612ebb576040517f2755faea00000000000000000000000000000000000000000000000000000000815260040160405180910390fd5b612ec5858361564d565b600155612ed361082761366d565b6007546001600160a01b03166040517fba087652000000000000000000000000000000000000000000000000000000008152600481018790526001600160a01b038681166024830152306044830152919091169063ba087652906064016020604051808303815f875af1158015612f4c573d5f5f3e3d5ffd5b505050506040513d601f19601f82011682018060405250810190612f709190615660565b6040517f30f316670000000000000000000000000000000000000000000000000000000081523060048201529093507f00000000000000000000000000000000000000000000000000000000000000006001600160a01b0316906330f31667906024015f604051808303815f87803b158015612fea575f5ffd5b505af1158015612ffc573d5f5f3e3d5ffd5b50505050836001600160a01b03167f3339ef804667402c8f3f362db72e43c0db110e5350d243b388abd9c534d147bb8660405161303b91815260200190565b60405180910390a2505061306e60017f9b779b17422d0df92223018b32b4d1fa46e071723d6817e2486d003becc55f0055565b92915050565b600480546040517fbb492bf50000000000000000000000000000000000000000000000000000000081526001600160a01b037f000000000000000000000000000000000000000000000000000000000000000081169363bb492bf5936130e1938793919091169101615869565b5f604051808303815f875af11580156130fc573d5f5f3e3d5ffd5b505050506040513d5f823e601f3d9081017fffffffffffffffffffffffffffffffffffffffffffffffffffffffffffffffe0168201604052613141919081019061592d565b505050565b5f5f61315a6007546001600160a01b031690565b90505f61316682614c29565b600480546040517f01d488eb0000000000000000000000000000000000000000000000000000000081526001600160a01b03868116938201939093529116906301d488eb90602401602060405180830381865afa1580156131c9573d5f5f3e3d5ffd5b505050506040513d601f19601f820116820180604052508101906131ed9190615a05565b61ffff166131fb9190615a1e565b600480546040517f7b6b84470000000000000000000000000000000000000000000000000000000081526001600160a01b03868116938201939093529293505f92911690637b6b844790602401602060405180830381865afa158015613263573d5f5f3e3d5ffd5b505050506040513d601f19601f820116820180604052508101906132879190615a05565b61ffff1690506132978582615a1e565b6132a387612710615a1e565b106132b3575f935050505061306e565b6132bd8583615a1e565b866132ca61271080615a1e565b6132d49190615a1e565b116132f5576132eb6132e6878761564d565b614f59565b935050505061306e565b6132eb8261330583612710615a1e565b61330f919061564d565b61331b90612710615a1e565b61332788612710615a1e565b6133318885615a1e565b61333b919061564d565b8461334861271080615a1e565b613352919061564d565b61335c9190615a1e565b6132e69190615a62565b7f00000000000000000000000000000000000000000000000000000000000000006001600160a01b038116330361339a5750565b7f1f8b5215000000000000000000000000000000000000000000000000000000005f52306004523360245234604452608060645236608452365f60a4375f3660a401525f5f601f19601f36011660a4015f34855af13d5f5f3e8080156134025760403d036040f35b3d5ffd5b5f336001600160a01b037f0000000000000000000000000000000000000000000000000000000000000000168103611db2576040517f18503a1e0000000000000000000000000000000000000000000000000000000081525f60048201527f00000000000000000000000000000000000000000000000000000000000000006001600160a01b0316906318503a1e906024016040805180830381865afa1580156134b2573d5f5f3e3d5ffd5b505050506040513d601f19601f820116820180604052508101906134d69190615a9a565b5092915050565b603c546040517f1da24f3e0000000000000000000000000000000000000000000000000000000081523060048201525f916001600160a01b031690631da24f3e90602401602060405180830381865afa15801561353c573d5f5f3e3d5ffd5b505050506040513d601f19601f820116820180604052508101906135609190615660565b6001541115905090565b7f9b779b17422d0df92223018b32b4d1fa46e071723d6817e2486d003becc55f0080547ffffffffffffffffffffffffffffffffffffffffffffffffffffffffffffffffe016135e5576040517f3ee5aeb500000000000000000000000000000000000000000000000000000000815260040160405180910390fd5b60029055565b5f545f036110a65760015f55565b6040516001600160a01b0383811660248301526044820183905261314191859182169063a9059cbb906064015b604051602081830303815290604052915060e01b6020820180517bffffffffffffffffffffffffffffffffffffffffffffffffffffffff8381831617835250505050615002565b5f5f613677611ea6565b600154613684919061564d565b6004549091505f906001600160a01b03166301d488eb6136ac6007546001600160a01b031690565b6040517fffffffff0000000000000000000000000000000000000000000000000000000060e084901b1681526001600160a01b039091166004820152602401602060405180830381865afa158015613706573d5f5f3e3d5ffd5b505050506040513d601f19601f8201168201806040525081019061372a9190615a05565b61ffff166137375f614c29565b6137419190615a1e565b9050613767612710600354846137579190615a1e565b6137619190615a1e565b82615087565b9250505090565b60015481811115613822576006546001600160a01b031663acb70815613794848461564d565b6040517fffffffff0000000000000000000000000000000000000000000000000000000060e084901b16815260048101919091523060248201526044016020604051808303815f875af11580156137ed573d5f5f3e3d5ffd5b505050506040513d601f19601f820116820180604052508101906138119190615660565b61381b908261564d565b90506138cf565b818110156138cf576006546001600160a01b0316634b3fd148613845838561564d565b6040517fffffffff0000000000000000000000000000000000000000000000000000000060e084901b16815260048101919091523060248201526044016020604051808303815f875af115801561389e573d5f5f3e3d5ffd5b505050506040513d601f19601f820116820180604052508101906138c29190615660565b6138cc90826156e5565b90505b6007546040517fd0be1d00000000000000000000000000000000000000000000000000000000008152600481018390526001600160a01b039091169063d0be1d00906024015f604051808303815f87803b15801561392b575f5ffd5b505af115801561393d573d5f5f3e3d5ffd5b5050506001919091555050565b60017f9b779b17422d0df92223018b32b4d1fa46e071723d6817e2486d003becc55f0055565b5f5f5f5f6139866007546001600160a01b031690565b9050855f036139b8575f61399a88876145f8565b90505f6139a7828a61564d565b5f9650919450909250613dab915050565b5f816001600160a01b031663311cd5a46040518163ffffffff1660e01b8152600401602060405180830381865afa1580156139f5573d5f5f3e3d5ffd5b505050506040513d601f19601f82011682018060405250810190613a199190615703565b6001600160a01b031663fca513a86040518163ffffffff1660e01b8152600401602060405180830381865afa158015613a54573d5f5f3e3d5ffd5b505050506040513d601f19601f82011682018060405250810190613a789190615703565b603a546040517fb3596f070000000000000000000000000000000000000000000000000000000081526001600160a01b03918216600482015291169063b3596f0790602401602060405180830381865afa158015613ad8573d5f5f3e3d5ffd5b505050506040513d601f19601f82011682018060405250810190613afc9190615660565b603f54600480546040517f7b6b84470000000000000000000000000000000000000000000000000000000081526001600160a01b03878116938201939093529394505f93911690637b6b844790602401602060405180830381865afa158015613b67573d5f5f3e3d5ffd5b505050506040513d601f19601f82011682018060405250810190613b8b9190615a05565b61ffff16613b9b6127108b615a1e565b613ba59190615a62565b613baf9084615a1e565b613bb99190615a62565b9050826001600160a01b03166350d25bcd6040518163ffffffff1660e01b8152600401602060405180830381865afa158015613bf7573d5f5f3e3d5ffd5b505050506040513d601f19601f82011682018060405250810190613c1b9190615660565b603e54613c289083615a1e565b613c329190615a62565b9050613c3e89826145f8565b90505f613c54613c4e838c61564d565b896145f8565b9050613c60818b61564d565b91505f603e54856001600160a01b03166350d25bcd6040518163ffffffff1660e01b8152600401602060405180830381865afa158015613ca2573d5f5f3e3d5ffd5b505050506040513d601f19601f82011682018060405250810190613cc69190615660565b613cd09085615a1e565b613cda9190615a62565b6040517fbf92857c0000000000000000000000000000000000000000000000000000000081523060048201529091505f906001600160a01b037f0000000000000000000000000000000000000000000000000000000000000000169063bf92857c9060240160c060405180830381865afa158015613d5a573d5f5f3e3d5ffd5b505050506040513d601f19601f82011682018060405250810190613d7e9190615677565b505050509150505f613d908284613146565b90505f613d9d828761564d565b9a5093985096505050505050505b93509350939050565b5f6060806001600160a01b03841615801590613dd757506001600160a01b038511155b15613ed3576040516001600160a01b03888116602483015287811660448301528681166064830152898116608483015285169060a401604080517fffffffffffffffffffffffffffffffffffffffffffffffffffffffffffffffe08184030181529181526020820180517bffffffffffffffffffffffffffffffffffffffffffffffffffffffff167f36c785160000000000000000000000000000000000000000000000000000000017905251613e8e9190615acd565b5f604051808303815f865af19150503d805f8114613ec7576040519150601f19603f3d011682016040523d82523d5f602084013e613ecc565b606091505b5090935091505b82613eea57613ee4888888886150bb565b90935090505b82613f2e5781816040517f9773bb71000000000000000000000000000000000000000000000000000000008152600401613f25929190615ae3565b60405180910390fd5b5050505050505050565b5f5f613f4c6007546001600160a01b031690565b6040517fbf92857c0000000000000000000000000000000000000000000000000000000081523060048201529091505f9081906001600160a01b037f0000000000000000000000000000000000000000000000000000000000000000169063bf92857c9060240160c060405180830381865afa158015613fce573d5f5f3e3d5ffd5b505050506040513d601f19601f82011682018060405250810190613ff29190615677565b95505050509250506127105f196140099190615a62565b811115614019575f935050505090565b61402d612710670de0b6b3a7640000615a1e565b600480546040517f01d488eb0000000000000000000000000000000000000000000000000000000081526001600160a01b03878116938201939093528492909116906301d488eb90602401602060405180830381865afa158015614093573d5f5f3e3d5ffd5b505050506040513d601f19601f820116820180604052508101906140b79190615a05565b61ffff166140c59190615a1e565b10156140d5576001935050505090565b5f603e54846001600160a01b03166350d25bcd6040518163ffffffff1660e01b8152600401602060405180830381865afa158015614115573d5f5f3e3d5ffd5b505050506040513d601f19601f820116820180604052508101906141399190615660565b614141611ea6565b60015461414e919061564d565b6141589190615a1e565b6141629190615a62565b9050806003546141729190615a1e565b61417e61271085615a1e565b1194505050505090565b6040517fbf92857c0000000000000000000000000000000000000000000000000000000081523060048201525f90819081906001600160a01b037f0000000000000000000000000000000000000000000000000000000000000000169063bf92857c9060240160c060405180830381865afa158015614209573d5f5f3e3d5ffd5b505050506040513d601f19601f8201168201806040525081019061422d9190615677565b505050509150505f603e5461424a6007546001600160a01b031690565b6001600160a01b03166350d25bcd6040518163ffffffff1660e01b8152600401602060405180830381865afa158015614285573d5f5f3e3d5ffd5b505050506040513d601f19601f820116820180604052508101906142a99190615660565b6142b1611ea6565b6001546142be919061564d565b6142c89190615a1e565b6142d29190615a62565b919491935090915050565b603a5460025461430b916001600160a01b03908116911630846e22d473030f116ddee9f6b43ac78ba3613db4565b603a546040517f573ade810000000000000000000000000000000000000000000000000000000081526001600160a01b03918216600482015260248101839052600260448201523060648201527f00000000000000000000000000000000000000000000000000000000000000009091169063573ade81906084016020604051808303815f875af11580156143a2573d5f5f3e3d5ffd5b505050506040513d601f19601f820116820180604052508101906109279190615660565b336001600160a01b037f00000000000000000000000000000000000000000000000000000000000000001614158061447b57507f00000000000000000000000000000000000000000000000000000000000000006001600160a01b031663e21e537c6040518163ffffffff1660e01b8152600401602060405180830381865afa158015614455573d5f5f3e3d5ffd5b505050506040513d601f19601f8201168201806040525081019061447991906156cc565b155b156110a6576040517fea8e4eb500000000000000000000000000000000000000000000000000000000815260040160405180910390fd5b603d546040517f5a3b74b90000000000000000000000000000000000000000000000000000000081526001600160a01b039182166004820152600160248201527f000000000000000000000000000000000000000000000000000000000000000091821690635a3b74b9906044015f604051808303815f87803b158015614537575f5ffd5b505af1158015614549573d5f5f3e3d5ffd5b5050603a546040517fa415bcad0000000000000000000000000000000000000000000000000000000081526001600160a01b039182166004820181905260248201889052600260448301525f60648301523060848301529350908416915063a415bcad9060a4015f604051808303815f87803b1580156145c7575f5ffd5b505af11580156145d9573d5f5f3e3d5ffd5b506145f2925050506001600160a01b03821684866135f9565b50505050565b5f8282188284100282185b9392505050565b5f5f61461e6007546001600160a01b031690565b603d5460025491925061464f916001600160a01b03918216911630866e22d473030f116ddee9f6b43ac78ba3613db4565b6040517f6e553f65000000000000000000000000000000000000000000000000000000008152600481018490523060248201526001600160a01b03821690636e553f65906044016020604051808303815f875af11580156146b2573d5f5f3e3d5ffd5b505050506040513d601f19601f82011682018060405250810190611dae9190615660565b600480546040517f01d488eb0000000000000000000000000000000000000000000000000000000081526001600160a01b03848116938201939093525f92909116906301d488eb90602401602060405180830381865afa15801561473c573d5f5f3e3d5ffd5b505050506040513d601f19601f820116820180604052508101906147609190615a05565b600480546040517f7b6b84470000000000000000000000000000000000000000000000000000000081526001600160a01b038681169382019390935261ffff9390931693505f92911690637b6b844790602401602060405180830381865afa1580156147ce573d5f5f3e3d5ffd5b505050506040513d601f19601f820116820180604052508101906147f29190615a05565b61ffff16905061480461271085615a1e565b8261480e5f614c29565b6148189190615a1e565b111580156148265750808411155b6145f2576040517f4eb4f9fb00000000000000000000000000000000000000000000000000000000815260040160405180910390fd5b6148646151e6565b61486c61524d565b600780547fffffffffffffffffffffffff00000000000000000000000000000000000000009081166001600160a01b03878116918217909355600280548316878516179055600480548316938516938417815560058054339416939093179092556040517fce504bf5000000000000000000000000000000000000000000000000000000008152918201525f919063ce504bf590602401602060405180830381865afa15801561491e573d5f5f3e3d5ffd5b505050506040513d601f19601f820116820180604052508101906149429190615703565b600680547fffffffffffffffffffffffff0000000000000000000000000000000000000000166001600160a01b038316179055905061498183866146d6565b600383905561499285825f19614b6c565b6040517fc368516c0000000000000000000000000000000000000000000000000000000081523060048201526001600160a01b0382811660248301527f0000000000000000000000000000000000000000000000000000000000000000169063c368516c906044015f604051808303815f87803b158015614a11575f5ffd5b505af1158015614a23573d5f5f3e3d5ffd5b50506040517fd44fee5a000000000000000000000000000000000000000000000000000000008152306004820181905260248201527f00000000000000000000000000000000000000000000000000000000000000006001600160a01b0316925063d44fee5a91506044015f604051808303815f87803b158015614aa5575f5ffd5b505af1158015614ab7573d5f5f3e3d5ffd5b50505050806001600160a01b03166338d52e0f6040518163ffffffff1660e01b8152600401602060405180830381865afa158015614af7573d5f5f3e3d5ffd5b505050506040513d601f19601f82011682018060405250810190614b1b9190615703565b6001600160a01b0316856001600160a01b031614614b65576040517f83c1010a00000000000000000000000000000000000000000000000000000000815260040160405180910390fd5b5050505050565b604080516001600160a01b038416602482015260448082018490528251808303909101815260649091019091526020810180517bffffffffffffffffffffffffffffffffffffffffffffffffffffffff167f095ea7b300000000000000000000000000000000000000000000000000000000179052614beb848261525d565b6145f2576040516001600160a01b0384811660248301525f6044830152614c1f91869182169063095ea7b390606401613626565b6145f28482615002565b603d545f9074010000000000000000000000000000000000000000900460ff1615614ea157603d546040517f35ea6a750000000000000000000000000000000000000000000000000000000081526001600160a01b0391821660048201525f917f000000000000000000000000000000000000000000000000000000000000000016906335ea6a75906024016101e060405180830381865afa158015614cd1573d5f5f3e3d5ffd5b505050506040513d601f19601f82011682018060405250810190614cf59190615b83565b60e00151603d546040517fb0771dba0000000000000000000000000000000000000000000000000000000081527401000000000000000000000000000000000000000090910460ff16600482015261ffff90911691505f907f00000000000000000000000000000000000000000000000000000000000000006001600160a01b03169063b0771dba90602401602060405180830381865afa158015614d9c573d5f5f3e3d5ffd5b505050506040513d601f19601f82011682018060405250810190614dc09190615cad565b9050614dcc81836152a6565b15614e9e57603d546040517fb286f4670000000000000000000000000000000000000000000000000000000081527401000000000000000000000000000000000000000090910460ff1660048201527f00000000000000000000000000000000000000000000000000000000000000006001600160a01b03169063b286f46790602401606060405180830381865afa158015614e6a573d5f5f3e3d5ffd5b505050506040513d601f19601f82011682018060405250810190614e8e9190615cc6565b6020015161ffff16949350505050565b50505b603d546040517f3e1501410000000000000000000000000000000000000000000000000000000081526001600160a01b0391821660048201525f917f00000000000000000000000000000000000000000000000000000000000000001690633e1501419060240161014060405180830381865afa158015614f24573d5f5f3e3d5ffd5b505050506040513d601f19601f82011682018060405250810190614f489190615d32565b50959b9a5050505050505050505050565b5f614f6c6007546001600160a01b031690565b6001600160a01b03166350d25bcd6040518163ffffffff1660e01b8152600401602060405180830381865afa158015614fa7573d5f5f3e3d5ffd5b505050506040513d601f19601f82011682018060405250810190614fcb9190615660565b603e54614fd89084615a1e565b614fe29190615a62565b905061306e614fef611ea6565b600154614ffc919061564d565b826145f8565b5f5f60205f8451602086015f885af180615021576040513d5f823e3d81fd5b50505f513d91508115615038578060011415615045565b6001600160a01b0384163b155b156145f2576040517f5274afe70000000000000000000000000000000000000000000000000000000081526001600160a01b0385166004820152602401613f25565b5f815f03615099576150996012615301565b8160018403816150ab576150ab615a35565b046001018315155b029392505050565b6040516001600160a01b0384811660248301528381166044830152606482018390525f9160609183918291891690608401604080517fffffffffffffffffffffffffffffffffffffffffffffffffffffffffffffffe08184030181529181526020820180517bffffffffffffffffffffffffffffffffffffffffffffffffffffffff167f23b872dd000000000000000000000000000000000000000000000000000000001790525161516d9190615acd565b5f604051808303815f865af19150503d805f81146151a6576040519150601f19603f3d011682016040523d82523d5f602084013e6151ab565b606091505b50915091506151ba8282615312565b6151c5575f816151d7565b600160405180602001604052805f8152505b93509350505094509492505050565b7ff0c57e16840df040f15088dc2f81fe391c3923bec73e23a9662efc9c229c6a005468010000000000000000900460ff166110a6576040517fd7e6bcf800000000000000000000000000000000000000000000000000000000815260040160405180910390fd5b6152556151e6565b6110a6615345565b5f5f5f5f60205f8651602088015f8a5af192503d91505f51905082801561529c5750811561528e578060011461529c565b5f866001600160a01b03163b115b9695505050505050565b5f608082106152e1576040517f85e98beb00000000000000000000000000000000000000000000000000000000815260040160405180910390fd5b506fffffffffffffffffffffffffffffffff91909116901c600116151590565b634e487b715f52806020526024601cfd5b5f8280156146035750815115806146035750602082511015801561460357508180602001905181019061460391906156cc565b61394a6151e6565b6001600160a01b0381168114611814575f5ffd5b5f5f60408385031215615372575f5ffd5b8235915060208301356153848161534d565b809150509250929050565b5f81518084528060208401602086015e5f6020828601015260207fffffffffffffffffffffffffffffffffffffffffffffffffffffffffffffffe0601f83011685010191505092915050565b602081525f614603602083018461538f565b5f602082840312156153fd575f5ffd5b5035919050565b5f60208284031215615414575f5ffd5b81356146038161534d565b60ff81168114611814575f5ffd5b5f5f5f5f5f5f60c08789031215615442575f5ffd5b863561544d8161534d565b9550602087013561545d8161534d565b94506040870135935060608701356154748161534d565b925060808701356154848161534d565b915060a08701356154948161541f565b809150509295509295509295565b7f4e487b71000000000000000000000000000000000000000000000000000000005f52604160045260245ffd5b6040516101e0810167ffffffffffffffff811182821017156154f3576154f36154a2565b60405290565b604051601f82017fffffffffffffffffffffffffffffffffffffffffffffffffffffffffffffffe016810167ffffffffffffffff81118282101715615540576155406154a2565b604052919050565b5f67ffffffffffffffff821115615561576155616154a2565b5060051b60200190565b5f6020828403121561557b575f5ffd5b813567ffffffffffffffff811115615591575f5ffd5b8201601f810184136155a1575f5ffd5b80356155b46155af82615548565b6154f9565b8082825260208201915060208360051b8501019250868311156155d5575f5ffd5b6020840193505b8284101561529c5783356155ef8161534d565b8252602093840193909101906155dc565b5f5f60408385031215615611575f5ffd5b50508035926020909101359150565b7f4e487b71000000000000000000000000000000000000000000000000000000005f52601160045260245ffd5b8181038181111561306e5761306e615620565b5f60208284031215615670575f5ffd5b5051919050565b5f5f5f5f5f5f60c0878903121561568c575f5ffd5b50508451602086015160408701516060880151608089015160a090990151939a929950909790965094509092509050565b80518015158114611db2575f5ffd5b5f602082840312156156dc575f5ffd5b614603826156bd565b8082018082111561306e5761306e615620565b8051611db28161534d565b5f60208284031215615713575f5ffd5b81516146038161534d565b5f5f5f60608486031215615730575f5ffd5b835161573b8161534d565b602085015190935061574c8161534d565b604085015190925061575d8161534d565b809150509250925092565b5f60208284031215615778575f5ffd5b81516146038161541f565b6001815b60018411156157be578085048111156157a2576157a2615620565b60018416156157b057908102905b60019390931c928002615787565b935093915050565b5f826157d45750600161306e565b816157e057505f61306e565b81600181146157f657600281146158005761581c565b600191505061306e565b60ff84111561581157615811615620565b50506001821b61306e565b5060208310610133831016604e8410600b841016171561583f575081810a61306e565b61584b5f198484615783565b805f19048211156150b3576150b3615620565b5f61460383836157c6565b604080825283519082018190525f9060208501906060840190835b818110156158ab5783516001600160a01b0316835260209384019390920191600101615884565b505080925050506001600160a01b03831660208301529392505050565b5f82601f8301126158d7575f5ffd5b81516158e56155af82615548565b8082825260208201915060208360051b860101925085831115615906575f5ffd5b602085015b8381101561592357805183526020928301920161590b565b5095945050505050565b5f5f6040838503121561593e575f5ffd5b825167ffffffffffffffff811115615954575f5ffd5b8301601f81018513615964575f5ffd5b80516159726155af82615548565b8082825260208201915060208360051b850101925087831115615993575f5ffd5b6020840193505b828410156159be5783516159ad8161534d565b82526020938401939091019061599a565b80955050505050602083015167ffffffffffffffff8111156159de575f5ffd5b6159ea858286016158c8565b9150509250929050565b805161ffff81168114611db2575f5ffd5b5f60208284031215615a15575f5ffd5b614603826159f4565b808202811582820484141761306e5761306e615620565b7f4e487b71000000000000000000000000000000000000000000000000000000005f52601260045260245ffd5b5f82615a95577f4e487b71000000000000000000000000000000000000000000000000000000005f52601260045260245ffd5b500490565b5f5f60408385031215615aab575f5ffd5b8251615ab68161534d565b9150615ac4602084016156bd565b90509250929050565b5f82518060208501845e5f920191825250919050565b604081525f615af5604083018561538f565b8281036020840152615b07818561538f565b95945050505050565b5f60208284031215615b20575f5ffd5b6040516020810167ffffffffffffffff81118282101715615b4357615b436154a2565b6040529151825250919050565b80516fffffffffffffffffffffffffffffffff81168114611db2575f5ffd5b805164ffffffffff81168114611db2575f5ffd5b5f6101e0828403128015615b95575f5ffd5b50615b9e6154cf565b615ba88484615b10565b8152615bb660208401615b50565b6020820152615bc760408401615b50565b6040820152615bd860608401615b50565b6060820152615be960808401615b50565b6080820152615bfa60a08401615b50565b60a0820152615c0b60c08401615b6f565b60c0820152615c1c60e084016159f4565b60e0820152615c2e61010084016156f8565b610100820152615c4161012084016156f8565b610120820152615c5461014084016156f8565b610140820152615c6761016084016156f8565b610160820152615c7a6101808401615b50565b610180820152615c8d6101a08401615b50565b6101a0820152615ca06101c08401615b50565b6101c08201529392505050565b5f60208284031215615cbd575f5ffd5b61460382615b50565b5f6060828403128015615cd7575f5ffd5b506040516060810167ffffffffffffffff81118282101715615cfb57615cfb6154a2565b604052615d07836159f4565b8152615d15602084016159f4565b6020820152615d26604084016159f4565b60408201529392505050565b5f5f5f5f5f5f5f5f5f5f6101408b8d031215615d4c575f5ffd5b8a5160208c015160408d015160608e015160808f0151939d50919b50995097509550615d7a60a08c016156bd565b9450615d8860c08c016156bd565b9350615d9660e08c016156bd565b9250615da56101008c016156bd565b9150615db46101208c016156bd565b90509295989b9194979a509295985056fea264697066735822122088165d304a90bb8831108701e823666934657b21eb83f885bfd2c2c084a505bd64736f6c634300081c0033",
        "linkReferences": {}
    },
    "methodIdentifiers": {
        "EVC()": "a70354a1",
        "INCENTIVES_CONTROLLER()": "10d0ab22",
        "aToken()": "a0c1f15e",
        "aaveDataProvider()": "a4f4acc5",
        "aaveDebtToken()": "f106778f",
        "asset()": "38d52e0f",
        "balanceOf(address)": "70a08231",
        "borrow(uint256,address)": "4b3fd148",
        "borrower()": "7df1f1b9",
        "canLiquidate()": "cd13ee77",
        "canRebalance()": "a06880c0",
        "categoryId()": "b503a2b9",
        "checkVaultStatus()": "4b3d1223",
        "claimRewards(address[])": "f9f031df",
        "collateralForBorrower(uint256,uint256)": "fc472b4f",
        "collateralVaultFactory()": "5297ffbb",
        "convertToAssets(uint256)": "07a2d13a",
        "deposit(uint256)": "b6b55f25",
        "depositUnderlying(uint256)": "b9f5be41",
        "handleExternalLiquidation()": "0e308a5e",
        "initialize(address,address,uint256,address,address,uint8)": "e8ea9aae",
        "intermediateVault()": "5519129a",
        "isExternallyLiquidated()": "e18b419f",
        "liquidate()": "28a07025",
        "maxRelease()": "800aac03",
        "maxRepay()": "548e2132",
        "name()": "06fdde03",
        "rebalance()": "7d7c2a1c",
        "redeemUnderlying(uint256,address)": "f0933698",
        "repay(uint256)": "371fd8e6",
        "setTwyneLiqLTV(uint256)": "ca19bcd4",
        "skim()": "1dd19cb4",
        "symbol()": "95d89b41",
        "targetAsset()": "3d4403ac",
        "targetVault()": "1f92db45",
        "tenPowAssetDecimals()": "2ee1e7be",
        "tenPowVAssetDecimals()": "c33d5c71",
        "totalAssetsDepositedOrReserved()": "68851d2f",
        "twyneLiqLTV()": "d09f2701",
        "twyneVaultManager()": "7ff80498",
        "underlyingAsset()": "7158da7c",
        "version()": "54fd4d50",
        "withdraw(uint256,address)": "00f714ce"
    },
    "id": 237
}