{
    "abi": [
        {
            "type": "constructor",
            "inputs": [
                {
                    "name": "_evc",
                    "type": "address",
                    "internalType": "address"
                },
                {
                    "name": "_governor",
                    "type": "address",
                    "internalType": "address"
                }
            ],
            "stateMutability": "nonpayable"
        },
        {
            "type": "function",
            "name": "EVC",
            "inputs": [],
            "outputs": [
                {
                    "name": "",
                    "type": "address",
                    "internalType": "address"
                }
            ],
            "stateMutability": "view"
        },
        {
            "type": "function",
            "name": "fallbackOracle",
            "inputs": [],
            "outputs": [
                {
                    "name": "",
                    "type": "address",
                    "internalType": "address"
                }
            ],
            "stateMutability": "view"
        },
        {
            "type": "function",
            "name": "getConfiguredOracle",
            "inputs": [
                {
                    "name": "base",
                    "type": "address",
                    "internalType": "address"
                },
                {
                    "name": "quote",
                    "type": "address",
                    "internalType": "address"
                }
            ],
            "outputs": [
                {
                    "name": "",
                    "type": "address",
                    "internalType": "address"
                }
            ],
            "stateMutability": "view"
        },
        {
            "type": "function",
            "name": "getQuote",
            "inputs": [
                {
                    "name": "inAmount",
                    "type": "uint256",
                    "internalType": "uint256"
                },
                {
                    "name": "base",
                    "type": "address",
                    "internalType": "address"
                },
                {
                    "name": "quote",
                    "type": "address",
                    "internalType": "address"
                }
            ],
            "outputs": [
                {
                    "name": "",
                    "type": "uint256",
                    "internalType": "uint256"
                }
            ],
            "stateMutability": "view"
        },
        {
            "type": "function",
            "name": "getQuotes",
            "inputs": [
                {
                    "name": "inAmount",
                    "type": "uint256",
                    "internalType": "uint256"
                },
                {
                    "name": "base",
                    "type": "address",
                    "internalType": "address"
                },
                {
                    "name": "quote",
                    "type": "address",
                    "internalType": "address"
                }
            ],
            "outputs": [
                {
                    "name": "",
                    "type": "uint256",
                    "internalType": "uint256"
                },
                {
                    "name": "",
                    "type": "uint256",
                    "internalType": "uint256"
                }
            ],
            "stateMutability": "view"
        },
        {
            "type": "function",
            "name": "govSetConfig",
            "inputs": [
                {
                    "name": "base",
                    "type": "address",
                    "internalType": "address"
                },
                {
                    "name": "quote",
                    "type": "address",
                    "internalType": "address"
                },
                {
                    "name": "oracle",
                    "type": "address",
                    "internalType": "address"
                }
            ],
            "outputs": [],
            "stateMutability": "nonpayable"
        },
        {
            "type": "function",
            "name": "govSetFallbackOracle",
            "inputs": [
                {
                    "name": "_fallbackOracle",
                    "type": "address",
                    "internalType": "address"
                }
            ],
            "outputs": [],
            "stateMutability": "nonpayable"
        },
        {
            "type": "function",
            "name": "govSetResolvedVault",
            "inputs": [
                {
                    "name": "vault",
                    "type": "address",
                    "internalType": "address"
                },
                {
                    "name": "set",
                    "type": "bool",
                    "internalType": "bool"
                }
            ],
            "outputs": [],
            "stateMutability": "nonpayable"
        },
        {
            "type": "function",
            "name": "governor",
            "inputs": [],
            "outputs": [
                {
                    "name": "",
                    "type": "address",
                    "internalType": "address"
                }
            ],
            "stateMutability": "view"
        },
        {
            "type": "function",
            "name": "name",
            "inputs": [],
            "outputs": [
                {
                    "name": "",
                    "type": "string",
                    "internalType": "string"
                }
            ],
            "stateMutability": "view"
        },
        {
            "type": "function",
            "name": "resolveOracle",
            "inputs": [
                {
                    "name": "inAmount",
                    "type": "uint256",
                    "internalType": "uint256"
                },
                {
                    "name": "base",
                    "type": "address",
                    "internalType": "address"
                },
                {
                    "name": "quote",
                    "type": "address",
                    "internalType": "address"
                }
            ],
            "outputs": [
                {
                    "name": "",
                    "type": "uint256",
                    "internalType": "uint256"
                },
                {
                    "name": "",
                    "type": "address",
                    "internalType": "address"
                },
                {
                    "name": "",
                    "type": "address",
                    "internalType": "address"
                },
                {
                    "name": "",
                    "type": "address",
                    "internalType": "address"
                }
            ],
            "stateMutability": "view"
        },
        {
            "type": "function",
            "name": "resolvedVaults",
            "inputs": [
                {
                    "name": "vault",
                    "type": "address",
                    "internalType": "address"
                }
            ],
            "outputs": [
                {
                    "name": "asset",
                    "type": "address",
                    "internalType": "address"
                }
            ],
            "stateMutability": "view"
        },
        {
            "type": "function",
            "name": "transferGovernance",
            "inputs": [
                {
                    "name": "newGovernor",
                    "type": "address",
                    "internalType": "address"
                }
            ],
            "outputs": [],
            "stateMutability": "nonpayable"
        },
        {
            "type": "event",
            "name": "ConfigSet",
            "inputs": [
                {
                    "name": "asset0",
                    "type": "address",
                    "indexed": true,
                    "internalType": "address"
                },
                {
                    "name": "asset1",
                    "type": "address",
                    "indexed": true,
                    "internalType": "address"
                },
                {
                    "name": "oracle",
                    "type": "address",
                    "indexed": true,
                    "internalType": "address"
                }
            ],
            "anonymous": false
        },
        {
            "type": "event",
            "name": "FallbackOracleSet",
            "inputs": [
                {
                    "name": "fallbackOracle",
                    "type": "address",
                    "indexed": true,
                    "internalType": "address"
                }
            ],
            "anonymous": false
        },
        {
            "type": "event",
            "name": "GovernorSet",
            "inputs": [
                {
                    "name": "oldGovernor",
                    "type": "address",
                    "indexed": true,
                    "internalType": "address"
                },
                {
                    "name": "newGovernor",
                    "type": "address",
                    "indexed": true,
                    "internalType": "address"
                }
            ],
            "anonymous": false
        },
        {
            "type": "event",
            "name": "ResolvedVaultSet",
            "inputs": [
                {
                    "name": "vault",
                    "type": "address",
                    "indexed": true,
                    "internalType": "address"
                },
                {
                    "name": "asset",
                    "type": "address",
                    "indexed": true,
                    "internalType": "address"
                }
            ],
            "anonymous": false
        },
        {
            "type": "error",
            "name": "ControllerDisabled",
            "inputs": []
        },
        {
            "type": "error",
            "name": "EVC_InvalidAddress",
            "inputs": []
        },
        {
            "type": "error",
            "name": "Governance_CallerNotGovernor",
            "inputs": []
        },
        {
            "type": "error",
            "name": "NotAuthorized",
            "inputs": []
        },
        {
            "type": "error",
            "name": "PriceOracle_InvalidConfiguration",
            "inputs": []
        },
        {
            "type": "error",
            "name": "PriceOracle_NotSupported",
            "inputs": [
                {
                    "name": "base",
                    "type": "address",
                    "internalType": "address"
                },
                {
                    "name": "quote",
                    "type": "address",
                    "internalType": "address"
                }
            ]
        }
    ],
    "bytecode": {
        "object": "0x60a06040523480156200001157600080fd5b50604051620013d8380380620013d8833981016040819052620000349162000120565b8181816001600160a01b0381166200005f57604051638133abd160e01b815260040160405180910390fd5b6001600160a01b03166080526200007681620000a8565b50506001600160a01b038116620000a0576040516301a4c16560e21b815260040160405180910390fd5b505062000158565b600080546040516001600160a01b03808516939216917ff31bb200dbf42bb9cecaa49dceb87eae178b024ad3cf2930b4aaac5cb0f96ec091a3600080546001600160a01b0319166001600160a01b0392909216919091179055565b80516001600160a01b03811681146200011b57600080fd5b919050565b600080604083850312156200013457600080fd5b6200013f8362000103565b91506200014f6020840162000103565b90509250929050565b608051611241620001976000396000818161026e01528181610b6f01528181610b9901528181610d2501528181610e3a0152610e8f01526112416000f3fe608060405234801561001057600080fd5b50600436106100df5760003560e01c80638418e6f31161008c578063ae68676c11610066578063ae68676c14610292578063d38bfff4146102b3578063d6c02926146102c6578063eab49501146102d957600080fd5b80638418e6f31461020a5780638aa7760814610259578063a70354a11461026c57600080fd5b80630c340a24116100bd5780630c340a241461016f5780635ca40017146101b4578063629838e5146101ea57600080fd5b80630579e61f146100e457806306c570c11461011157806306fdde0314610126575b600080fd5b6100f76100f2366004611011565b6102ec565b604080519283526020830191909152015b60405180910390f35b61012461011f366004611053565b6103de565b005b6101626040518060400160405280600b81526020017f45756c6572526f7574657200000000000000000000000000000000000000000081525081565b6040516101089190611083565b60005461018f9073ffffffffffffffffffffffffffffffffffffffff1681565b60405173ffffffffffffffffffffffffffffffffffffffff9091168152602001610108565b61018f6101c23660046110f0565b60026020526000908152604090205473ffffffffffffffffffffffffffffffffffffffff1681565b60015461018f9073ffffffffffffffffffffffffffffffffffffffff1681565b61021d610218366004611011565b61055b565b6040805194855273ffffffffffffffffffffffffffffffffffffffff938416602086015291831691840191909152166060820152608001610108565b61018f61026736600461110d565b610744565b7f000000000000000000000000000000000000000000000000000000000000000061018f565b6102a56102a0366004611011565b610790565b604051908152602001610108565b6101246102c13660046110f0565b61087b565b6101246102d4366004611154565b6108fd565b6101246102e73660046110f0565b610a73565b60008060006102fc86868661055b565b9298509096509450905073ffffffffffffffffffffffffffffffffffffffff8085169086160361033257858692509250506103d6565b6040517f0579e61f0000000000000000000000000000000000000000000000000000000081526004810187905273ffffffffffffffffffffffffffffffffffffffff86811660248301528581166044830152821690630579e61f906064016040805180830381865afa1580156103ac573d6000803e3d6000fd5b505050506040513d601f19601f820116820180604052508101906103d09190611182565b92509250505b935093915050565b6103e6610b58565b60005473ffffffffffffffffffffffffffffffffffffffff16610407610e20565b73ffffffffffffffffffffffffffffffffffffffff1614610454576040517ff9e36c0300000000000000000000000000000000000000000000000000000000815260040160405180910390fd5b8173ffffffffffffffffffffffffffffffffffffffff168373ffffffffffffffffffffffffffffffffffffffff16036104b9576040517f0693059400000000000000000000000000000000000000000000000000000000815260040160405180910390fd5b6000806104c68585610f17565b73ffffffffffffffffffffffffffffffffffffffff8281166000818152600360209081526040808320868616808552925280832080547fffffffffffffffffffffffff000000000000000000000000000000000000000016958b16958617905551959750939550919390917f4ac83f39568b63f952374c82351889b07aff4f7e261232a20ba5a2a6d82b9ce091a45050505050565b6000806000808473ffffffffffffffffffffffffffffffffffffffff168673ffffffffffffffffffffffffffffffffffffffff16036105a55750859250849150839050600061073b565b60006105b18787610744565b905073ffffffffffffffffffffffffffffffffffffffff8116156105df57879450869350859250905061073b565b73ffffffffffffffffffffffffffffffffffffffff8088166000908152600260205260409020541680156106b8576040517f07a2d13a000000000000000000000000000000000000000000000000000000008152600481018a905273ffffffffffffffffffffffffffffffffffffffff8916906307a2d13a90602401602060405180830381865afa158015610678573d6000803e3d6000fd5b505050506040513d601f19601f8201168201806040525081019061069c91906111a6565b98506106a989828961055b565b9550955095509550505061073b565b60015473ffffffffffffffffffffffffffffffffffffffff1691508161072e576040517f4ca22af000000000000000000000000000000000000000000000000000000000815273ffffffffffffffffffffffffffffffffffffffff808a1660048301528816602482015260440160405180910390fd5b5087945086935085925090505b93509350935093565b60008060006107538585610f17565b73ffffffffffffffffffffffffffffffffffffffff9182166000908152600360209081526040808320938516835292905220541695945050505050565b60008061079e85858561055b565b9297509095509350905073ffffffffffffffffffffffffffffffffffffffff808416908516036107d15784915050610874565b6040517fae68676c0000000000000000000000000000000000000000000000000000000081526004810186905273ffffffffffffffffffffffffffffffffffffffff8581166024830152848116604483015282169063ae68676c90606401602060405180830381865afa15801561084c573d6000803e3d6000fd5b505050506040513d601f19601f8201168201806040525081019061087091906111a6565b9150505b9392505050565b610883610b58565b60005473ffffffffffffffffffffffffffffffffffffffff166108a4610e20565b73ffffffffffffffffffffffffffffffffffffffff16146108f1576040517ff9e36c0300000000000000000000000000000000000000000000000000000000815260040160405180910390fd5b6108fa81610f62565b50565b610905610b58565b60005473ffffffffffffffffffffffffffffffffffffffff16610926610e20565b73ffffffffffffffffffffffffffffffffffffffff1614610973576040517ff9e36c0300000000000000000000000000000000000000000000000000000000815260040160405180910390fd5b6000816109815760006109f0565b8273ffffffffffffffffffffffffffffffffffffffff166338d52e0f6040518163ffffffff1660e01b8152600401602060405180830381865afa1580156109cc573d6000803e3d6000fd5b505050506040513d601f19601f820116820180604052508101906109f091906111bf565b73ffffffffffffffffffffffffffffffffffffffff84811660008181526002602052604080822080547fffffffffffffffffffffffff000000000000000000000000000000000000000016948616948517905551939450919290917f15beaec71c94ee69b5a824e905ca6d1260da10196b715c38b565b80180f630ce91a3505050565b610a7b610b58565b60005473ffffffffffffffffffffffffffffffffffffffff16610a9c610e20565b73ffffffffffffffffffffffffffffffffffffffff1614610ae9576040517ff9e36c0300000000000000000000000000000000000000000000000000000000815260040160405180910390fd5b600180547fffffffffffffffffffffffff00000000000000000000000000000000000000001673ffffffffffffffffffffffffffffffffffffffff83169081179091556040517fef21cd88756d665855f56a2652b7eda229d6f3102988a95975e46964d24d478a90600090a250565b73ffffffffffffffffffffffffffffffffffffffff7f0000000000000000000000000000000000000000000000000000000000000000163303610e1e5760007f000000000000000000000000000000000000000000000000000000000000000073ffffffffffffffffffffffffffffffffffffffff16633a1a3a1d6040518163ffffffff1660e01b8152600401602060405180830381865afa158015610c02573d6000803e3d6000fd5b505050506040513d601f19601f82011682018060405250810190610c2691906111a6565b905077ff00000000000000000000000000000000000000000000008116151580610c68575076ff00000000000000000000000000000000000000000000811615155b80610c8a575075ff000000000000000000000000000000000000000000811615155b15610cc1576040517fea8e4eb500000000000000000000000000000000000000000000000000000000815260040160405180910390fd5b600073ffffffffffffffffffffffffffffffffffffffff82166040517f442b172c00000000000000000000000000000000000000000000000000000000815273ffffffffffffffffffffffffffffffffffffffff80831660048301529192506000917f0000000000000000000000000000000000000000000000000000000000000000169063442b172c90602401602060405180830381865afa158015610d6c573d6000803e3d6000fd5b505050506040513d601f19601f82011682018060405250810190610d9091906111bf565b905073ffffffffffffffffffffffffffffffffffffffff811615801590610de357508173ffffffffffffffffffffffffffffffffffffffff168173ffffffffffffffffffffffffffffffffffffffff1614155b15610e1a576040517fea8e4eb500000000000000000000000000000000000000000000000000000000815260040160405180910390fd5b5050505b565b60003373ffffffffffffffffffffffffffffffffffffffff7f0000000000000000000000000000000000000000000000000000000000000000168103610f12576040517f18503a1e000000000000000000000000000000000000000000000000000000008152600060048201527f000000000000000000000000000000000000000000000000000000000000000073ffffffffffffffffffffffffffffffffffffffff16906318503a1e906024016040805180830381865afa158015610eea573d6000803e3d6000fd5b505050506040513d601f19601f82011682018060405250810190610f0e91906111dc565b5090505b919050565b6000808273ffffffffffffffffffffffffffffffffffffffff168473ffffffffffffffffffffffffffffffffffffffff1610610f54578284610f57565b83835b915091509250929050565b6000805460405173ffffffffffffffffffffffffffffffffffffffff808516939216917ff31bb200dbf42bb9cecaa49dceb87eae178b024ad3cf2930b4aaac5cb0f96ec091a3600080547fffffffffffffffffffffffff00000000000000000000000000000000000000001673ffffffffffffffffffffffffffffffffffffffff92909216919091179055565b73ffffffffffffffffffffffffffffffffffffffff811681146108fa57600080fd5b60008060006060848603121561102657600080fd5b83359250602084013561103881610fef565b9150604084013561104881610fef565b809150509250925092565b60008060006060848603121561106857600080fd5b833561107381610fef565b9250602084013561103881610fef565b60006020808352835180602085015260005b818110156110b157858101830151858201604001528201611095565b5060006040828601015260407fffffffffffffffffffffffffffffffffffffffffffffffffffffffffffffffe0601f8301168501019250505092915050565b60006020828403121561110257600080fd5b813561087481610fef565b6000806040838503121561112057600080fd5b823561112b81610fef565b9150602083013561113b81610fef565b809150509250929050565b80151581146108fa57600080fd5b6000806040838503121561116757600080fd5b823561117281610fef565b9150602083013561113b81611146565b6000806040838503121561119557600080fd5b505080516020909101519092909150565b6000602082840312156111b857600080fd5b5051919050565b6000602082840312156111d157600080fd5b815161087481610fef565b600080604083850312156111ef57600080fd5b82516111fa81610fef565b602084015190925061113b8161114656fea26469706673582212204044838d6f70110721df9e6f21b70468156d8af8b417897fad14c21921f5928764736f6c63430008170033",
        "linkReferences": {}
    },
    "methodIdentifiers": {
        "EVC()": "a70354a1",
        "fallbackOracle()": "629838e5",
        "getConfiguredOracle(address,address)": "8aa77608",
        "getQuote(uint256,address,address)": "ae68676c",
        "getQuotes(uint256,address,address)": "0579e61f",
        "govSetConfig(address,address,address)": "06c570c1",
        "govSetFallbackOracle(address)": "eab49501",
        "govSetResolvedVault(address,bool)": "d6c02926",
        "governor()": "0c340a24",
        "name()": "06fdde03",
        "resolveOracle(uint256,address,address)": "8418e6f3",
        "resolvedVaults(address)": "5ca40017",
        "transferGovernance(address)": "d38bfff4"
    },
    "id": 53
}