{"abi":[{"type":"constructor","inputs":[{"name":"_evc","type":"address","internalType":"address"},{"name":"_targetVault","type":"address","internalType":"address"}],"stateMutability":"nonpayable"},{"type":"fallback","stateMutability":"nonpayable"},{"type":"function","name":"EVC","inputs":[],"outputs":[{"name":"","type":"address","internalType":"address"}],"stateMutability":"view"},{"type":"function","name":"asset","inputs":[],"outputs":[{"name":"","type":"address","internalType":"address"}],"stateMutability":"view"},{"type":"function","name":"balanceOf","inputs":[{"name":"user","type":"address","internalType":"address"}],"outputs":[{"name":"","type":"uint256","internalType":"uint256"}],"stateMutability":"view"},{"type":"function","name":"borrow","inputs":[{"name":"_targetAmount","type":"uint256","internalType":"uint256"},{"name":"_receiver","type":"address","internalType":"address"}],"outputs":[],"stateMutability":"nonpayable"},{"type":"function","name":"borrower","inputs":[],"outputs":[{"name":"","type":"address","internalType":"address"}],"stateMutability":"view"},{"type":"function","name":"canLiquidate","inputs":[],"outputs":[{"name":"","type":"bool","internalType":"bool"}],"stateMutability":"view"},{"type":"function","name":"canRebalance","inputs":[],"outputs":[{"name":"","type":"uint256","internalType":"uint256"}],"stateMutability":"view"},{"type":"function","name":"checkVaultStatus","inputs":[],"outputs":[{"name":"","type":"bytes4","internalType":"bytes4"}],"stateMutability":"nonpayable"},{"type":"function","name":"collateralForBorrower","inputs":[{"name":"B","type":"uint256","internalType":"uint256"},{"name":"C","type":"uint256","internalType":"uint256"}],"outputs":[{"name":"","type":"uint256","internalType":"uint256"}],"stateMutability":"view"},{"type":"function","name":"collateralVaultFactory","inputs":[],"outputs":[{"name":"","type":"address","internalType":"contract CollateralVaultFactory"}],"stateMutability":"view"},{"type":"function","name":"convertToAssets","inputs":[{"name":"shares","type":"uint256","internalType":"uint256"}],"outputs":[{"name":"","type":"uint256","internalType":"uint256"}],"stateMutability":"pure"},{"type":"function","name":"deposit","inputs":[{"name":"assets","type":"uint256","internalType":"uint256"}],"outputs":[],"stateMutability":"nonpayable"},{"type":"function","name":"depositUnderlying","inputs":[{"name":"underlying","type":"uint256","internalType":"uint256"}],"outputs":[],"stateMutability":"nonpayable"},{"type":"function","name":"eulerEVC","inputs":[],"outputs":[{"name":"","type":"address","internalType":"contract IEVC"}],"stateMutability":"view"},{"type":"function","name":"handleExternalLiquidation","inputs":[],"outputs":[],"stateMutability":"nonpayable"},{"type":"function","name":"initialize","inputs":[{"name":"__asset","type":"address","internalType":"contract IERC20"},{"name":"__borrower","type":"address","internalType":"address"},{"name":"__liqLTV","type":"uint256","internalType":"uint256"},{"name":"__vaultManager","type":"address","internalType":"contract VaultManager"}],"outputs":[],"stateMutability":"nonpayable"},{"type":"function","name":"intermediateVault","inputs":[],"outputs":[{"name":"","type":"address","internalType":"contract IEVault"}],"stateMutability":"view"},{"type":"function","name":"isExternallyLiquidated","inputs":[],"outputs":[{"name":"","type":"bool","internalType":"bool"}],"stateMutability":"view"},{"type":"function","name":"liquidate","inputs":[],"outputs":[],"stateMutability":"nonpayable"},{"type":"function","name":"maxRelease","inputs":[],"outputs":[{"name":"","type":"uint256","internalType":"uint256"}],"stateMutability":"view"},{"type":"function","name":"maxRepay","inputs":[],"outputs":[{"name":"","type":"uint256","internalType":"uint256"}],"stateMutability":"view"},{"type":"function","name":"name","inputs":[],"outputs":[{"name":"","type":"string","internalType":"string"}],"stateMutability":"view"},{"type":"function","name":"rebalance","inputs":[],"outputs":[],"stateMutability":"nonpayable"},{"type":"function","name":"redeemUnderlying","inputs":[{"name":"assets","type":"uint256","internalType":"uint256"},{"name":"receiver","type":"address","internalType":"address"}],"outputs":[{"name":"underlying","type":"uint256","internalType":"uint256"}],"stateMutability":"nonpayable"},{"type":"function","name":"repay","inputs":[{"name":"_amount","type":"uint256","internalType":"uint256"}],"outputs":[],"stateMutability":"nonpayable"},{"type":"function","name":"setTwyneLiqLTV","inputs":[{"name":"_ltv","type":"uint256","internalType":"uint256"}],"outputs":[],"stateMutability":"nonpayable"},{"type":"function","name":"skim","inputs":[],"outputs":[],"stateMutability":"nonpayable"},{"type":"function","name":"symbol","inputs":[],"outputs":[{"name":"","type":"string","internalType":"string"}],"stateMutability":"view"},{"type":"function","name":"targetAsset","inputs":[],"outputs":[{"name":"","type":"address","internalType":"address"}],"stateMutability":"view"},{"type":"function","name":"targetVault","inputs":[],"outputs":[{"name":"","type":"address","internalType":"address"}],"stateMutability":"view"},{"type":"function","name":"teleport","inputs":[{"name":"toDeposit","type":"uint256","internalType":"uint256"},{"name":"toBorrow","type":"uint256","internalType":"uint256"},{"name":"subAccountId","type":"uint8","internalType":"uint8"}],"outputs":[],"stateMutability":"nonpayable"},{"type":"function","name":"totalAssetsDepositedOrReserved","inputs":[],"outputs":[{"name":"","type":"uint256","internalType":"uint256"}],"stateMutability":"view"},{"type":"function","name":"twyneLiqLTV","inputs":[],"outputs":[{"name":"","type":"uint256","internalType":"uint256"}],"stateMutability":"view"},{"type":"function","name":"twyneVaultManager","inputs":[],"outputs":[{"name":"","type":"address","internalType":"contract VaultManager"}],"stateMutability":"view"},{"type":"function","name":"version","inputs":[],"outputs":[{"name":"","type":"uint256","internalType":"uint256"}],"stateMutability":"pure"},{"type":"function","name":"withdraw","inputs":[{"name":"assets","type":"uint256","internalType":"uint256"},{"name":"receiver","type":"address","internalType":"address"}],"outputs":[],"stateMutability":"nonpayable"},{"type":"event","name":"Initialized","inputs":[{"name":"version","type":"uint64","indexed":false,"internalType":"uint64"}],"anonymous":false},{"type":"event","name":"T_AddAllowedTargetVault","inputs":[{"name":"intermediateVault","type":"address","indexed":true,"internalType":"address"},{"name":"targetVault","type":"address","indexed":true,"internalType":"address"}],"anonymous":false},{"type":"event","name":"T_AddAllowedTargetVaultAsset","inputs":[{"name":"intermediateVault","type":"address","indexed":true,"internalType":"address"},{"name":"targetVault","type":"address","indexed":true,"internalType":"address"},{"name":"targetAsset","type":"address","indexed":true,"internalType":"address"}],"anonymous":false},{"type":"event","name":"T_Borrow","inputs":[{"name":"targetAmount","type":"uint256","indexed":false,"internalType":"uint256"},{"name":"receiver","type":"address","indexed":true,"internalType":"address"}],"anonymous":false},{"type":"event","name":"T_CategoryIdSet","inputs":[{"name":"targetVault","type":"address","indexed":true,"internalType":"address"},{"name":"collateral","type":"address","indexed":true,"internalType":"address"},{"name":"debt","type":"address","indexed":true,"internalType":"address"},{"name":"categoryId","type":"uint8","indexed":false,"internalType":"uint8"}],"anonymous":false},{"type":"event","name":"T_CollateralVaultCreated","inputs":[{"name":"vault","type":"address","indexed":true,"internalType":"address"}],"anonymous":false},{"type":"event","name":"T_CollateralVaultInitialized","inputs":[],"anonymous":false},{"type":"event","name":"T_ControllerDisabled","inputs":[],"anonymous":false},{"type":"event","name":"T_Deposit","inputs":[{"name":"amount","type":"uint256","indexed":false,"internalType":"uint256"}],"anonymous":false},{"type":"event","name":"T_DepositUnderlying","inputs":[{"name":"amount","type":"uint256","indexed":false,"internalType":"uint256"}],"anonymous":false},{"type":"event","name":"T_DoCall","inputs":[{"name":"to","type":"address","indexed":true,"internalType":"address"},{"name":"value","type":"uint256","indexed":false,"internalType":"uint256"},{"name":"data","type":"bytes","indexed":false,"internalType":"bytes"}],"anonymous":false},{"type":"event","name":"T_FactoryPause","inputs":[{"name":"pause","type":"bool","indexed":false,"internalType":"bool"}],"anonymous":false},{"type":"event","name":"T_HandleExternalLiquidation","inputs":[],"anonymous":false},{"type":"event","name":"T_LeverageDownExecuted","inputs":[{"name":"collateralVault","type":"address","indexed":true,"internalType":"address"}],"anonymous":false},{"type":"event","name":"T_LeverageUpExecuted","inputs":[{"name":"collateralVault","type":"address","indexed":true,"internalType":"address"}],"anonymous":false},{"type":"event","name":"T_Rebalance","inputs":[],"anonymous":false},{"type":"event","name":"T_RedeemUnderlying","inputs":[{"name":"amount","type":"uint256","indexed":false,"internalType":"uint256"},{"name":"receiver","type":"address","indexed":true,"internalType":"address"}],"anonymous":false},{"type":"event","name":"T_RemoveAllowedTargetVault","inputs":[{"name":"intermediateVault","type":"address","indexed":true,"internalType":"address"},{"name":"targetVault","type":"address","indexed":true,"internalType":"address"},{"name":"index","type":"uint256","indexed":false,"internalType":"uint256"}],"anonymous":false},{"type":"event","name":"T_Repay","inputs":[{"name":"repayAmount","type":"uint256","indexed":false,"internalType":"uint256"}],"anonymous":false},{"type":"event","name":"T_SetBeacon","inputs":[{"name":"targetVault","type":"address","indexed":true,"internalType":"address"},{"name":"beacon","type":"address","indexed":true,"internalType":"address"}],"anonymous":false},{"type":"event","name":"T_SetCollateralVaultFactory","inputs":[{"name":"factory","type":"address","indexed":true,"internalType":"address"}],"anonymous":false},{"type":"event","name":"T_SetCollateralVaultLiquidated","inputs":[{"name":"collateralVault","type":"address","indexed":true,"internalType":"address"},{"name":"liquidator","type":"address","indexed":true,"internalType":"address"}],"anonymous":false},{"type":"event","name":"T_SetExternalLiqBuffer","inputs":[{"name":"collateralAddress","type":"address","indexed":true,"internalType":"address"},{"name":"liqBuffer","type":"uint16","indexed":false,"internalType":"uint16"}],"anonymous":false},{"type":"event","name":"T_SetIntermediateVault","inputs":[{"name":"intermediateVault","type":"address","indexed":true,"internalType":"address"}],"anonymous":false},{"type":"event","name":"T_SetLTV","inputs":[{"name":"intermediateVault","type":"address","indexed":true,"internalType":"address"},{"name":"collateralVault","type":"address","indexed":true,"internalType":"address"},{"name":"borrowLimit","type":"uint16","indexed":false,"internalType":"uint16"},{"name":"liquidationLimit","type":"uint16","indexed":false,"internalType":"uint16"},{"name":"rampDuration","type":"uint32","indexed":false,"internalType":"uint32"}],"anonymous":false},{"type":"event","name":"T_SetMaxLiqLTV","inputs":[{"name":"collateralAddress","type":"address","indexed":true,"internalType":"address"},{"name":"ltv","type":"uint16","indexed":false,"internalType":"uint16"}],"anonymous":false},{"type":"event","name":"T_SetOracleResolvedVault","inputs":[{"name":"collateralAddress","type":"address","indexed":true,"internalType":"address"},{"name":"allow","type":"bool","indexed":false,"internalType":"bool"}],"anonymous":false},{"type":"event","name":"T_SetOracleResolvedVault","inputs":[{"name":"oracleRouter","type":"address","indexed":true,"internalType":"address"},{"name":"collateralAddress","type":"address","indexed":true,"internalType":"address"},{"name":"allow","type":"bool","indexed":false,"internalType":"bool"}],"anonymous":false},{"type":"event","name":"T_SetOracleRouter","inputs":[{"name":"newOracleRouter","type":"address","indexed":true,"internalType":"address"}],"anonymous":false},{"type":"event","name":"T_SetTwyneLiqLTV","inputs":[{"name":"ltv","type":"uint256","indexed":false,"internalType":"uint256"}],"anonymous":false},{"type":"event","name":"T_SetVaultManager","inputs":[{"name":"vaultManager","type":"address","indexed":true,"internalType":"address"}],"anonymous":false},{"type":"event","name":"T_Skim","inputs":[{"name":"amount","type":"uint256","indexed":false,"internalType":"uint256"}],"anonymous":false},{"type":"event","name":"T_Teleport","inputs":[{"name":"toDeposit","type":"uint256","indexed":false,"internalType":"uint256"},{"name":"toBorrow","type":"uint256","indexed":false,"internalType":"uint256"}],"anonymous":false},{"type":"event","name":"T_Withdraw","inputs":[{"name":"amount","type":"uint256","indexed":false,"internalType":"uint256"},{"name":"receiver","type":"address","indexed":true,"internalType":"address"}],"anonymous":false},{"type":"error","name":"AssetMismatch","inputs":[]},{"type":"error","name":"BadDebtNotSettled","inputs":[]},{"type":"error","name":"CallerNotCollateralVault","inputs":[]},{"type":"error","name":"CallerNotOwnerOrCollateralVaultFactory","inputs":[]},{"type":"error","name":"CannotRebalance","inputs":[]},{"type":"error","name":"ControllerDisabled","inputs":[]},{"type":"error","name":"EVC_InvalidAddress","inputs":[]},{"type":"error","name":"E_EmptyError","inputs":[]},{"type":"error","name":"E_TransferFromFailed","inputs":[{"name":"errorPermit2","type":"bytes","internalType":"bytes"},{"name":"errorTransferFrom","type":"bytes","internalType":"bytes"}]},{"type":"error","name":"EnforcedPause","inputs":[]},{"type":"error","name":"ExternalPositionUnhealthy","inputs":[]},{"type":"error","name":"ExternallyLiquidated","inputs":[]},{"type":"error","name":"HealthyNotLiquidatable","inputs":[]},{"type":"error","name":"IncorrectIndex","inputs":[]},{"type":"error","name":"IntermediateVaultAlreadySet","inputs":[]},{"type":"error","name":"IntermediateVaultNotSet","inputs":[]},{"type":"error","name":"InvalidInitialization","inputs":[]},{"type":"error","name":"NoLiquidationForZeroReserve","inputs":[]},{"type":"error","name":"NotAuthorized","inputs":[]},{"type":"error","name":"NotCollateralVault","inputs":[]},{"type":"error","name":"NotExternallyLiquidated","inputs":[]},{"type":"error","name":"NotInitializing","inputs":[]},{"type":"error","name":"NotIntermediateVault","inputs":[]},{"type":"error","name":"OnlyWETH","inputs":[]},{"type":"error","name":"ReceiverNotBorrower","inputs":[]},{"type":"error","name":"Reentrancy","inputs":[]},{"type":"error","name":"ReentrancyGuardReentrantCall","inputs":[]},{"type":"error","name":"RepayingMoreThanMax","inputs":[]},{"type":"error","name":"SafeERC20FailedOperation","inputs":[{"name":"token","type":"address","internalType":"address"}]},{"type":"error","name":"SelfLiquidation","inputs":[]},{"type":"error","name":"SnapshotNotTaken","inputs":[]},{"type":"error","name":"T_CV_OperationDisabled","inputs":[]},{"type":"error","name":"T_CallerNotBorrower","inputs":[]},{"type":"error","name":"T_CallerNotMorpho","inputs":[]},{"type":"error","name":"T_CallerNotSelf","inputs":[]},{"type":"error","name":"T_DebtMoreThanMax","inputs":[]},{"type":"error","name":"T_FeedDecimalsNotCorrect","inputs":[]},{"type":"error","name":"T_InvalidCollateralVault","inputs":[]},{"type":"error","name":"T_OperationDisabled","inputs":[]},{"type":"error","name":"T_QuoteNotUSD","inputs":[]},{"type":"error","name":"T_WithdrawMoreThanMax","inputs":[]},{"type":"error","name":"ValueOutOfRange","inputs":[]},{"type":"error","name":"VaultStatusLiquidatable","inputs":[]},{"type":"error","name":"ViolatorNotCollateralVault","inputs":[]}],"bytecode":{"object":"0x610100604052348015610010575f5ffd5b5060405161612338038061612383398101604081905261002f9161022f565b8181816001600160a01b03811661005957604051638133abd160e01b815260040160405180910390fd5b6001600160a01b039081166080521660a0819052604080516338d52e0f60e01b815290519192506338d52e0f9160048083019260209291908290030181865afa1580156100a8573d5f5f3e3d5ffd5b505050506040513d601f19601f820116820180604052508101906100cc9190610260565b6001600160a01b031660c0816001600160a01b03168152505060a0516001600160a01b031663a70354a16040518163ffffffff1660e01b8152600401602060405180830381865afa158015610123573d5f5f3e3d5ffd5b505050506040513d601f19601f820116820180604052508101906101479190610260565b6001600160a01b031660e05261015b610162565b5050610280565b7ff0c57e16840df040f15088dc2f81fe391c3923bec73e23a9662efc9c229c6a00805468010000000000000000900460ff16156101b25760405163f92ee8a960e01b815260040160405180910390fd5b80546001600160401b03908116146102115780546001600160401b0319166001600160401b0390811782556040519081527fc7f505b2f371ae2175ee4913f4499e1f2633a7b5936321eed1cdaeb6115181d29060200160405180910390a15b50565b80516001600160a01b038116811461022a575f5ffd5b919050565b5f5f60408385031215610240575f5ffd5b61024983610214565b915061025760208401610214565b90509250929050565b5f60208284031215610270575f5ffd5b61027982610214565b9392505050565b60805160a05160c05160e051615d436103e05f395f81816104390152818161217c015281816129b80152612a6b01525f818161039101528181610a6d01528181612ac901528181613b8901526147ee01525f81816103260152818161093601528181610ad90152818161189201528181611d9b01528181611f4d01528181611f91015281816120530152818161209701528181612a4301528181612aea0152818161377401528181613e70015281816141ec0152818161434a015281816145cb0152818161486301528181614a00015261513a01525f81816105060152818161073801528181610c6101528181610f4901528181611217015281816113b9015281816117970152818161220a01528181612564015281816127d201528181612db9015281816131180152818161340d015281816134b70152818161350b015281816148e00152818161490a01528181614d220152614dac0152615d435ff3fe608060405234801561000f575f5ffd5b5060043610610259575f3560e01c806370a0823111610143578063b6b55f25116100bb578063cd13ee771161008a578063e18b419f1161006f578063e18b419f14610597578063f09336981461059f578063fc472b4f146105b257610259565b8063cd13ee7714610576578063d09f27011461058e57610259565b8063b6b55f251461052a578063b9f5be411461053d578063be20309414610550578063ca19bcd41461056357610259565b8063800aac031161011257806395d89b41116100f757806395d89b41146104c0578063a06880c0146104fc578063a70354a11461050457610259565b8063800aac03146104a557806381054573146104ad57610259565b806370a08231146104645780637d7c2a1c146104775780637df1f1b91461047f5780637ff804981461049257610259565b80633d4403ac116101d6578063548e2132116101a55780635519129a1161018a5780635519129a146104215780635b3046fd1461043457806368851d2f1461045b57610259565b8063548e21321461041257806354fd4d501461041a57610259565b80633d4403ac1461038c5780634b3d1223146103b35780634b3fd148146103ec5780635297ffbb146103ff57610259565b80631dd19cb41161022d57806328a070251161021257806328a0702514610360578063371fd8e61461036857806338d52e0f1461037b57610259565b80631dd19cb4146103195780631f92db451461032157610259565b8062f714ce1461028b57806306fdde03146102a057806307a2d13a146102f25780630e308a5e14610311575b6040517f335c5fec00000000000000000000000000000000000000000000000000000000815260040160405180910390fd5b61029e6102993660046158d7565b6105c5565b005b6102dc6040518060400160405280601081526020017f436f6c6c61746572616c205661756c740000000000000000000000000000000081525081565b6040516102e99190615951565b60405180910390f35b610303610300366004615963565b90565b6040519081526020016102e9565b61029e610809565b61029e610d1c565b6103487f000000000000000000000000000000000000000000000000000000000000000081565b6040516001600160a01b0390911681526020016102e9565b61029e611011565b61029e610376366004615963565b6112a4565b6007546001600160a01b0316610348565b6103487f000000000000000000000000000000000000000000000000000000000000000081565b6103bb61148b565b6040517fffffffff0000000000000000000000000000000000000000000000000000000090911681526020016102e9565b61029e6103fa3660046158d7565b6115ff565b600554610348906001600160a01b031681565b610303611862565b6002610303565b600654610348906001600160a01b031681565b6103487f000000000000000000000000000000000000000000000000000000000000000081565b61030360015481565b61030361047236600461597a565b611908565b61029e611a53565b600254610348906001600160a01b031681565b600454610348906001600160a01b031681565b610303611b42565b61029e6104bb366004615995565b611bd3565b6102dc6040518060400160405280600281526020017f435600000000000000000000000000000000000000000000000000000000000081525081565b6103036122d5565b7f0000000000000000000000000000000000000000000000000000000000000000610348565b61029e610538366004615963565b612387565b61029e61054b366004615963565b612625565b61029e61055e3660046159d0565b612862565b61029e610571366004615963565b612c0f565b61057e612e49565b60405190151581526020016102e9565b61030360035481565b61057e612eb4565b6103036105ad3660046158d7565b612f25565b6103036105c0366004615a20565b6131eb565b6105cd61340b565b6002546001600160a01b03166105e16134ab565b6001600160a01b031614610621576040517f4a1d1a9700000000000000000000000000000000000000000000000000000000815260040160405180910390fd5b610629613582565b61065f576040517f111c379d00000000000000000000000000000000000000000000000000000000815260040160405180910390fd5b610667613620565b61066f6136a1565b6001545f61067b611b42565b6106859083615a6d565b90505f198403610697578093506106d1565b808411156106d1576040517f2755faea00000000000000000000000000000000000000000000000000000000815260040160405180910390fd5b6106db8483615a6d565b6001556106fa6106f36007546001600160a01b031690565b84866136af565b61070a610705613723565b613897565b6040517f30f316670000000000000000000000000000000000000000000000000000000081523060048201527f00000000000000000000000000000000000000000000000000000000000000006001600160a01b0316906330f31667906024015f604051808303815f87803b158015610781575f5ffd5b505af1158015610793573d5f5f3e3d5ffd5b50505050826001600160a01b03167f226e3a154752424088fa9e17a43d1d4eb4738179083b3e9fb71b0a14e0949dcd856040516107d291815260200190565b60405180910390a2505061080560017f9b779b17422d0df92223018b32b4d1fa46e071723d6817e2486d003becc55f0055565b5050565b61081161340b565b610819613620565b6108216136a1565b5f6108346007546001600160a01b031690565b6040517f70a082310000000000000000000000000000000000000000000000000000000081523060048201529091505f906001600160a01b038316906370a0823190602401602060405180830381865afa158015610894573d5f5f3e3d5ffd5b505050506040513d601f19601f820116820180604052508101906108b89190615a80565b905080600154116108f5576040517fdbd904f500000000000000000000000000000000000000000000000000000000815260040160405180910390fd5b6040517fa824bf67000000000000000000000000000000000000000000000000000000008152306004820152600160248201525f9081906001600160a01b037f0000000000000000000000000000000000000000000000000000000000000000169063a824bf67906044016040805180830381865afa15801561097a573d5f5f3e3d5ffd5b505050506040513d601f19601f8201168201806040525081019061099e9190615a97565b91509150808210156109dc576040517ff1cd786c00000000000000000000000000000000000000000000000000000000815260040160405180910390fd5b50505f6109e7611b42565b90505f6109f26134ab565b9050815f03610a42576002546001600160a01b03828116911614610a42576040517f818e158000000000000000000000000000000000000000000000000000000000815260040160405180910390fd5b5f610a4b611862565b90505f5f5f610a5b878588613a1b565b919450925090508315610b5757610aa47f00000000000000000000000000000000000000000000000000000000000000008630876e22d473030f116ddee9f6b43ac78ba3613f0a565b6040517facb70815000000000000000000000000000000000000000000000000000000008152600481018590523060248201527f00000000000000000000000000000000000000000000000000000000000000006001600160a01b03169063acb70815906044016020604051808303815f875af1158015610b27573d5f5f3e3d5ffd5b505050506040513d601f19601f82011682018060405250810190610b4b9190615a80565b50610b5788868561408e565b8015610b7557600254610b759089906001600160a01b03168361408e565b8115610c08576006546040517facb70815000000000000000000000000000000000000000000000000000000008152600481018490523060248201526001600160a01b039091169063acb70815906044016020604051808303815f875af1158015610be2573d5f5f3e3d5ffd5b505050506040513d601f19601f82011682018060405250810190610c069190615a80565b505b5f6001819055600280547fffffffffffffffffffffffff0000000000000000000000000000000000000000169055604080517fa37d54af00000000000000000000000000000000000000000000000000000000815290517f00000000000000000000000000000000000000000000000000000000000000006001600160a01b03169263a37d54af926004808201939182900301818387803b158015610cab575f5ffd5b505af1158015610cbd573d5f5f3e3d5ffd5b50506040517f201069227b1c078db0bf2f6c8d33cb0ae064045c18ce10c1017f360997ae8d3e92505f9150a15050505050505050610d1a60017f9b779b17422d0df92223018b32b4d1fa46e071723d6817e2486d003becc55f0055565b565b610d2461340b565b6002546001600160a01b0316610d386134ab565b6001600160a01b031614610d78576040517f4a1d1a9700000000000000000000000000000000000000000000000000000000815260040160405180910390fd5b610d80613582565b610db6576040517f111c379d00000000000000000000000000000000000000000000000000000000815260040160405180910390fd5b60055f9054906101000a90046001600160a01b03166001600160a01b0316635c975abb6040518163ffffffff1660e01b8152600401602060405180830381865afa158015610e06573d5f5f3e3d5ffd5b505050506040513d601f19601f82011682018060405250810190610e2a9190615ac8565b15610e61576040517fd93c066500000000000000000000000000000000000000000000000000000000815260040160405180910390fd5b610e69613620565b5f610e7c6007546001600160a01b031690565b6040517f70a082310000000000000000000000000000000000000000000000000000000081523060048201526001600160a01b0391909116906370a0823190602401602060405180830381865afa158015610ed9573d5f5f3e3d5ffd5b505050506040513d601f19601f82011682018060405250810190610efd9190615a80565b600154909150610f0b6136a1565b6001829055610f1b610705613723565b6040517f30f316670000000000000000000000000000000000000000000000000000000081523060048201527f00000000000000000000000000000000000000000000000000000000000000006001600160a01b0316906330f31667906024015f604051808303815f87803b158015610f92575f5ffd5b505af1158015610fa4573d5f5f3e3d5ffd5b505050507fbf070d83d8b5b8f55a9661ab7e6003ff366d49ace118b225d25a86194f4004d18183610fd59190615a6d565b60405190815260200160405180910390a15050610d1a60017f9b779b17422d0df92223018b32b4d1fa46e071723d6817e2486d003becc55f0055565b61101961340b565b611021613620565b6110296136a1565b611031613582565b611067576040517f111c379d00000000000000000000000000000000000000000000000000000000815260040160405180910390fd5b5f6110706134ab565b6002549091506001600160a01b03908116908216036110bb576040517f44511af100000000000000000000000000000000000000000000000000000000815260040160405180910390fd5b6110c3614194565b6110f9576040517f8e9797c500000000000000000000000000000000000000000000000000000000815260040160405180910390fd5b5f5f611103614588565b9150915061114961111c6007546001600160a01b031690565b60025485906001600160a01b031661113486866131eb565b6e22d473030f116ddee9f6b43ac78ba3613f0a565b600280547fffffffffffffffffffffffff0000000000000000000000000000000000000000166001600160a01b038581169182179092556005546040517fcf8a322200000000000000000000000000000000000000000000000000000000815260048101929092529091169063cf8a3222906024015f604051808303815f87803b1580156111d5575f5ffd5b505af11580156111e7573d5f5f3e3d5ffd5b50506040517f30f316670000000000000000000000000000000000000000000000000000000081523060048201527f00000000000000000000000000000000000000000000000000000000000000006001600160a01b031692506330f3166791506024015f604051808303815f87803b158015611262575f5ffd5b505af1158015611274573d5f5f3e3d5ffd5b50505050505050610d1a60017f9b779b17422d0df92223018b32b4d1fa46e071723d6817e2486d003becc55f0055565b6112ac61340b565b6002546001600160a01b03166112c06134ab565b6001600160a01b031614611300576040517f4a1d1a9700000000000000000000000000000000000000000000000000000000815260040160405180910390fd5b611308613582565b61133e576040517f111c379d00000000000000000000000000000000000000000000000000000000815260040160405180910390fd5b611346613620565b61134e6136a1565b5f611357611862565b90505f198203611369578091506113a3565b808211156113a3576040517f4fc5c4ba00000000000000000000000000000000000000000000000000000000815260040160405180910390fd5b6113ac826147e5565b6113b7610705613723565b7f00000000000000000000000000000000000000000000000000000000000000006001600160a01b031663a37d54af6040518163ffffffff1660e01b81526004015f604051808303815f87803b15801561140f575f5ffd5b505af1158015611421573d5f5f3e3d5ffd5b505050507fda868d2eef48a736c565bda78058f72b57b928b32f991f0002678ce45172398b8260405161145691815260200190565b60405180910390a15061148860017f9b779b17422d0df92223018b32b4d1fa46e071723d6817e2486d003becc55f0055565b50565b5f6114946148d5565b5f545f036114ce576040517fcb85efac00000000000000000000000000000000000000000000000000000000815260040160405180910390fd5b6114d6614194565b1561150d576040517f9c166fd000000000000000000000000000000000000000000000000000000000815260040160405180910390fd5b6002546001600160a01b03166115d7576006546040517fd283e75f0000000000000000000000000000000000000000000000000000000081523060048201526001600160a01b039091169063d283e75f90602401602060405180830381865afa15801561157c573d5f5f3e3d5ffd5b505050506040513d601f19601f820116820180604052508101906115a09190615a80565b156115d7576040517f0c00c96200000000000000000000000000000000000000000000000000000000815260040160405180910390fd5b505f80557f4b3d12230000000000000000000000000000000000000000000000000000000090565b61160761340b565b6002546001600160a01b031661161b6134ab565b6001600160a01b03161461165b576040517f4a1d1a9700000000000000000000000000000000000000000000000000000000815260040160405180910390fd5b611663613582565b611699576040517f111c379d00000000000000000000000000000000000000000000000000000000815260040160405180910390fd5b60055f9054906101000a90046001600160a01b03166001600160a01b0316635c975abb6040518163ffffffff1660e01b8152600401602060405180830381865afa1580156116e9573d5f5f3e3d5ffd5b505050506040513d601f19601f8201168201806040525081019061170d9190615ac8565b15611744576040517fd93c066500000000000000000000000000000000000000000000000000000000815260040160405180910390fd5b61174c613620565b6117546136a1565b61175e82826149c1565b611769610705613723565b6040517f30f316670000000000000000000000000000000000000000000000000000000081523060048201527f00000000000000000000000000000000000000000000000000000000000000006001600160a01b0316906330f31667906024015f604051808303815f87803b1580156117e0575f5ffd5b505af11580156117f2573d5f5f3e3d5ffd5b50505050806001600160a01b03167fde4f42b1727454f62e0f8b803f786bdf0c725998ffe2608545decdaad324b6708360405161183191815260200190565b60405180910390a261080560017f9b779b17422d0df92223018b32b4d1fa46e071723d6817e2486d003becc55f0055565b6040517fd283e75f0000000000000000000000000000000000000000000000000000000081523060048201525f907f00000000000000000000000000000000000000000000000000000000000000006001600160a01b03169063d283e75f90602401602060405180830381865afa1580156118df573d5f5f3e3d5ffd5b505050506040513d601f19601f820116820180604052508101906119039190615a80565b905090565b5f6119347f9b779b17422d0df92223018b32b4d1fa46e071723d6817e2486d003becc55f005460021490565b1561196b576040517f3ee5aeb500000000000000000000000000000000000000000000000000000000815260040160405180910390fd5b6001600160a01b038216301461198257505f919050565b6002546001600160a01b031661199957505f919050565b6001546007546001600160a01b03166040517f70a082310000000000000000000000000000000000000000000000000000000081523060048201526001600160a01b0391909116906370a0823190602401602060405180830381865afa158015611a05573d5f5f3e3d5ffd5b505050506040513d601f19601f82011682018060405250810190611a299190615a80565b811115611a3857505f92915050565b611a40611b42565b611a4a9082615a6d565b9150505b919050565b611a5b61340b565b611a63613620565b5f611a6c613723565b90508060015411611aa9576040517f302a624a00000000000000000000000000000000000000000000000000000000815260040160405180910390fd5b611ab1613582565b611ae7576040517f111c379d00000000000000000000000000000000000000000000000000000000815260040160405180910390fd5b611af081613897565b6040517f7f89682ae65a1f951f91061a52d68beff208a52bbbb13b88ff3045a6c6d1bf92905f90a150610d1a60017f9b779b17422d0df92223018b32b4d1fa46e071723d6817e2486d003becc55f0055565b6006546040517fd283e75f0000000000000000000000000000000000000000000000000000000081523060048201525f91611903916001600160a01b039091169063d283e75f90602401602060405180830381865afa158015611ba7573d5f5f3e3d5ffd5b505050506040513d601f19601f82011682018060405250810190611bcb9190615a80565b600154614a6a565b611bdb61340b565b6002546001600160a01b0316611bef6134ab565b6001600160a01b031614611c2f576040517f4a1d1a9700000000000000000000000000000000000000000000000000000000815260040160405180910390fd5b611c37613582565b611c6d576040517f111c379d00000000000000000000000000000000000000000000000000000000815260040160405180910390fd5b60055f9054906101000a90046001600160a01b03166001600160a01b0316635c975abb6040518163ffffffff1660e01b8152600401602060405180830381865afa158015611cbd573d5f5f3e3d5ffd5b505050506040513d601f19601f82011682018060405250810190611ce19190615ac8565b15611d18576040517fd93c066500000000000000000000000000000000000000000000000000000000815260040160405180910390fd5b611d20613620565b611d286136a1565b8260015f828254611d399190615ae1565b90915550611d4a9050610705613723565b6002546001600160a01b031660ff82161860018301611e07576040517fd283e75f0000000000000000000000000000000000000000000000000000000081526001600160a01b0382811660048301527f0000000000000000000000000000000000000000000000000000000000000000169063d283e75f90602401602060405180830381865afa158015611de0573d5f5f3e3d5ffd5b505050506040513d601f19601f82011682018060405250810190611e049190615a80565b92505b604080516003808252608082019092525f91816020015b604080516080810182525f80825260208083018290529282015260608082015282525f19909201910181611e1e5790505090506040518060800160405280611e6e6007546001600160a01b031690565b6001600160a01b03908116825230602083018190525f604080850191909152519186166024830152604482015260648101889052606090910190608401604080517fffffffffffffffffffffffffffffffffffffffffffffffffffffffffffffffe08184030181529190526020810180517bffffffffffffffffffffffffffffffffffffffffffffffffffffffff167f23b872dd000000000000000000000000000000000000000000000000000000001790529052815182905f90611f3557611f35615af4565b602002602001018190525060405180608001604052807f00000000000000000000000000000000000000000000000000000000000000006001600160a01b03168152602001306001600160a01b031681526020015f81526020017f00000000000000000000000000000000000000000000000000000000000000006001600160a01b0316634b3fd1488730604051602401611fe39291909182526001600160a01b0316602082015260400190565b604051602081830303815290604052915060e01b6020820180517bffffffffffffffffffffffffffffffffffffffffffffffffffffffff83818316178352505050508152508160018151811061203b5761203b615af4565b602002602001018190525060405180608001604052807f00000000000000000000000000000000000000000000000000000000000000006001600160a01b03168152602001306001600160a01b031681526020015f81526020017f00000000000000000000000000000000000000000000000000000000000000006001600160a01b031663acb7081587866040516024016120e99291909182526001600160a01b0316602082015260400190565b604051602081830303815290604052915060e01b6020820180517bffffffffffffffffffffffffffffffffffffffffffffffffffffffff83818316178352505050508152508160028151811061214157612141615af4565b60209081029190910101526040517fc16ae7a40000000000000000000000000000000000000000000000000000000081526001600160a01b037f0000000000000000000000000000000000000000000000000000000000000000169063c16ae7a4906121b1908490600401615b21565b5f604051808303815f87803b1580156121c8575f5ffd5b505af11580156121da573d5f5f3e3d5ffd5b50506040517f30f316670000000000000000000000000000000000000000000000000000000081523060048201527f00000000000000000000000000000000000000000000000000000000000000006001600160a01b031692506330f3166791506024015f604051808303815f87803b158015612255575f5ffd5b505af1158015612267573d5f5f3e3d5ffd5b505060408051888152602081018890527f4e237f0423b2c96207fb350d6582eaaa4301aa520358058af3b5fdad69ec21bc935001905060405180910390a150506122d060017f9b779b17422d0df92223018b32b4d1fa46e071723d6817e2486d003becc55f0055565b505050565b5f6123017f9b779b17422d0df92223018b32b4d1fa46e071723d6817e2486d003becc55f005460021490565b15612338576040517f3ee5aeb500000000000000000000000000000000000000000000000000000000815260040160405180910390fd5b5f612341613723565b9050806001541161237e576040517f302a624a00000000000000000000000000000000000000000000000000000000815260040160405180910390fd5b60015403905090565b61238f61340b565b6002546001600160a01b03166123a36134ab565b6001600160a01b0316146123e3576040517f4a1d1a9700000000000000000000000000000000000000000000000000000000815260040160405180910390fd5b6123eb613582565b612421576040517f111c379d00000000000000000000000000000000000000000000000000000000815260040160405180910390fd5b60055f9054906101000a90046001600160a01b03166001600160a01b0316635c975abb6040518163ffffffff1660e01b8152600401602060405180830381865afa158015612471573d5f5f3e3d5ffd5b505050506040513d601f19601f820116820180604052508101906124959190615ac8565b156124cc576040517fd93c066500000000000000000000000000000000000000000000000000000000815260040160405180910390fd5b6124d4613620565b6124dc6136a1565b6125146124f16007546001600160a01b031690565b6002546001600160a01b031630846e22d473030f116ddee9f6b43ac78ba3613f0a565b8060015f8282546125259190615ae1565b909155506125369050610705613723565b6040517f30f316670000000000000000000000000000000000000000000000000000000081523060048201527f00000000000000000000000000000000000000000000000000000000000000006001600160a01b0316906330f31667906024015f604051808303815f87803b1580156125ad575f5ffd5b505af11580156125bf573d5f5f3e3d5ffd5b505050507f729fe3250be1fe37041d8f9ee1649d82d8578a0230154a04fc00143efcb3d0ea816040516125f491815260200190565b60405180910390a161148860017f9b779b17422d0df92223018b32b4d1fa46e071723d6817e2486d003becc55f0055565b61262d61340b565b6002546001600160a01b03166126416134ab565b6001600160a01b031614612681576040517f4a1d1a9700000000000000000000000000000000000000000000000000000000815260040160405180910390fd5b612689613582565b6126bf576040517f111c379d00000000000000000000000000000000000000000000000000000000815260040160405180910390fd5b60055f9054906101000a90046001600160a01b03166001600160a01b0316635c975abb6040518163ffffffff1660e01b8152600401602060405180830381865afa15801561270f573d5f5f3e3d5ffd5b505050506040513d601f19601f820116820180604052508101906127339190615ac8565b1561276a576040517fd93c066500000000000000000000000000000000000000000000000000000000815260040160405180910390fd5b612772613620565b61277a6136a1565b61278381614a7c565b60015f8282546127939190615ae1565b909155506127a49050610705613723565b6040517f30f316670000000000000000000000000000000000000000000000000000000081523060048201527f00000000000000000000000000000000000000000000000000000000000000006001600160a01b0316906330f31667906024015f604051808303815f87803b15801561281b575f5ffd5b505af115801561282d573d5f5f3e3d5ffd5b505050507f8570c637af651287ed477b5c53ba29ef8d7dbb8c10a7cc4f496d870b5bea2ea8816040516125f491815260200190565b7ff0c57e16840df040f15088dc2f81fe391c3923bec73e23a9662efc9c229c6a00805468010000000000000000810460ff16159067ffffffffffffffff165f811580156128ac5750825b90505f8267ffffffffffffffff1660011480156128c85750303b155b9050811580156128d6575080155b1561290d576040517ff92ee8a900000000000000000000000000000000000000000000000000000000815260040160405180910390fd5b84547fffffffffffffffffffffffffffffffffffffffffffffffff0000000000000000166001178555831561296e5784547fffffffffffffffffffffffffffffffffffffffffffffff00ffffffffffffffff16680100000000000000001785555b61297a89898989614bae565b6040517fd44fee5a0000000000000000000000000000000000000000000000000000000081523060048201526001600160a01b038a811660248301527f0000000000000000000000000000000000000000000000000000000000000000169063d44fee5a906044015f604051808303815f87803b1580156129f9575f5ffd5b505af1158015612a0b573d5f5f3e3d5ffd5b50506040517fc368516c0000000000000000000000000000000000000000000000000000000081523060048201526001600160a01b037f0000000000000000000000000000000000000000000000000000000000000000811660248301527f000000000000000000000000000000000000000000000000000000000000000016925063c368516c91506044015f604051808303815f87803b158015612aae575f5ffd5b505af1158015612ac0573d5f5f3e3d5ffd5b50505050612b107f00000000000000000000000000000000000000000000000000000000000000007f00000000000000000000000000000000000000000000000000000000000000005f19614eb7565b612b7b896001600160a01b03166338d52e0f6040518163ffffffff1660e01b8152600401602060405180830381865afa158015612b4f573d5f5f3e3d5ffd5b505050506040513d601f19601f82011682018060405250810190612b739190615bdf565b8a5f19614eb7565b6040517f12a9cc17c88558b7be75e6263660f7e37d1b75b5370e41a69e6c5ecde2ef510b905f90a18315612c045784547fffffffffffffffffffffffffffffffffffffffffffffff00ffffffffffffffff168555604051600181527fc7f505b2f371ae2175ee4913f4499e1f2633a7b5936321eed1cdaeb6115181d29060200160405180910390a15b505050505050505050565b612c1761340b565b6002546001600160a01b0316612c2b6134ab565b6001600160a01b031614612c6b576040517f4a1d1a9700000000000000000000000000000000000000000000000000000000815260040160405180910390fd5b612c73613582565b612ca9576040517f111c379d00000000000000000000000000000000000000000000000000000000815260040160405180910390fd5b60055f9054906101000a90046001600160a01b03166001600160a01b0316635c975abb6040518163ffffffff1660e01b8152600401602060405180830381865afa158015612cf9573d5f5f3e3d5ffd5b505050506040513d601f19601f82011682018060405250810190612d1d9190615ac8565b15612d54576040517fd93c066500000000000000000000000000000000000000000000000000000000815260040160405180910390fd5b612d5c613620565b612d646136a1565b600754612d7b9082906001600160a01b0316614f7a565b6003819055612d8b610705613723565b6040517f30f316670000000000000000000000000000000000000000000000000000000081523060048201527f00000000000000000000000000000000000000000000000000000000000000006001600160a01b0316906330f31667906024015f604051808303815f87803b158015612e02575f5ffd5b505af1158015612e14573d5f5f3e3d5ffd5b505050507f4ed6247dd07fa547f2a5675b8a09ba23414bcbb7250a9de94f2a17eb8fc56040816040516125f491815260200190565b5f612e757f9b779b17422d0df92223018b32b4d1fa46e071723d6817e2486d003becc55f005460021490565b15612eac576040517f3ee5aeb500000000000000000000000000000000000000000000000000000000815260040160405180910390fd5b611903614194565b5f612ee07f9b779b17422d0df92223018b32b4d1fa46e071723d6817e2486d003becc55f005460021490565b15612f17576040517f3ee5aeb500000000000000000000000000000000000000000000000000000000815260040160405180910390fd5b612f1f613582565b15905090565b5f612f2e61340b565b6002546001600160a01b0316612f426134ab565b6001600160a01b031614612f82576040517f4a1d1a9700000000000000000000000000000000000000000000000000000000815260040160405180910390fd5b612f8a613582565b612fc0576040517f111c379d00000000000000000000000000000000000000000000000000000000815260040160405180910390fd5b612fc8613620565b612fd06136a1565b6001545f612fdc611b42565b612fe69083615a6d565b90505f198503612ff857809450613032565b80851115613032576040517f2755faea00000000000000000000000000000000000000000000000000000000815260040160405180910390fd5b61303c8583615a6d565b60015561304a610705613723565b6007546001600160a01b03166040517fba087652000000000000000000000000000000000000000000000000000000008152600481018790526001600160a01b038681166024830152306044830152919091169063ba087652906064016020604051808303815f875af11580156130c3573d5f5f3e3d5ffd5b505050506040513d601f19601f820116820180604052508101906130e79190615a80565b6040517f30f316670000000000000000000000000000000000000000000000000000000081523060048201529093507f00000000000000000000000000000000000000000000000000000000000000006001600160a01b0316906330f31667906024015f604051808303815f87803b158015613161575f5ffd5b505af1158015613173573d5f5f3e3d5ffd5b50505050836001600160a01b03167f3339ef804667402c8f3f362db72e43c0db110e5350d243b388abd9c534d147bb866040516131b291815260200190565b60405180910390a250506131e560017f9b779b17422d0df92223018b32b4d1fa46e071723d6817e2486d003becc55f0055565b92915050565b5f5f6131ff6007546001600160a01b031690565b90505f61320b82615100565b600480546040517f01d488eb0000000000000000000000000000000000000000000000000000000081526001600160a01b03868116938201939093529116906301d488eb90602401602060405180830381865afa15801561326e573d5f5f3e3d5ffd5b505050506040513d601f19601f820116820180604052508101906132929190615bfa565b61ffff166132a09190615c1b565b600480546040517f7b6b84470000000000000000000000000000000000000000000000000000000081526001600160a01b03868116938201939093529293505f92911690637b6b844790602401602060405180830381865afa158015613308573d5f5f3e3d5ffd5b505050506040513d601f19601f8201168201806040525081019061332c9190615bfa565b61ffff16905061333c8582615c1b565b61334887612710615c1b565b10613358575f93505050506131e5565b6133628583615c1b565b8661336f61271080615c1b565b6133799190615c1b565b1161339a5761339061338b8787615a6d565b6151af565b93505050506131e5565b613390826133aa83612710615c1b565b6133b49190615a6d565b6133c090612710615c1b565b6133cc88612710615c1b565b6133d68885615c1b565b6133e09190615a6d565b846133ed61271080615c1b565b6133f79190615a6d565b6134019190615c1b565b61338b9190615c5f565b7f00000000000000000000000000000000000000000000000000000000000000006001600160a01b038116330361343f5750565b7f1f8b5215000000000000000000000000000000000000000000000000000000005f52306004523360245234604452608060645236608452365f60a4375f3660a401525f5f601f19601f36011660a4015f34855af13d5f5f3e8080156134a75760403d036040f35b3d5ffd5b5f336001600160a01b037f0000000000000000000000000000000000000000000000000000000000000000168103611a4e576040517f18503a1e0000000000000000000000000000000000000000000000000000000081525f60048201527f00000000000000000000000000000000000000000000000000000000000000006001600160a01b0316906318503a1e906024016040805180830381865afa158015613557573d5f5f3e3d5ffd5b505050506040513d601f19601f8201168201806040525081019061357b9190615c97565b5092915050565b5f6135956007546001600160a01b031690565b6040517f70a082310000000000000000000000000000000000000000000000000000000081523060048201526001600160a01b0391909116906370a0823190602401602060405180830381865afa1580156135f2573d5f5f3e3d5ffd5b505050506040513d601f19601f820116820180604052508101906136169190615a80565b6001541115905090565b7f9b779b17422d0df92223018b32b4d1fa46e071723d6817e2486d003becc55f0080547ffffffffffffffffffffffffffffffffffffffffffffffffffffffffffffffffe0161369b576040517f3ee5aeb500000000000000000000000000000000000000000000000000000000815260040160405180910390fd5b60029055565b5f545f03610d1a5760015f55565b6040516001600160a01b038381166024830152604482018390526122d091859182169063a9059cbb906064015b604051602081830303815290604052915060e01b6020820180517bffffffffffffffffffffffffffffffffffffffffffffffffffffffff8381831617835250505050615402565b5f5f6137376007546001600160a01b031690565b6040517faf5aaeeb0000000000000000000000000000000000000000000000000000000081526001600160a01b0380831660048301529192505f917f0000000000000000000000000000000000000000000000000000000000000000169063af5aaeeb90602401602060405180830381865afa1580156137b9573d5f5f3e3d5ffd5b505050506040513d601f19601f820116820180604052508101906137dd9190615bfa565b600480546040517f01d488eb0000000000000000000000000000000000000000000000000000000081526001600160a01b038681169382019390935261ffff93909316929116906301d488eb90602401602060405180830381865afa158015613848573d5f5f3e3d5ffd5b505050506040513d601f19601f8201168201806040525081019061386c9190615bfa565b61ffff1661387a9190615c1b565b905061389061388a600183615487565b8261561c565b9250505090565b6001548181111561394b576006546001600160a01b031663acb708156138bd8484615a6d565b6040517fffffffff0000000000000000000000000000000000000000000000000000000060e084901b16815260048101919091523060248201526044016020604051808303815f875af1158015613916573d5f5f3e3d5ffd5b505050506040513d601f19601f8201168201806040525081019061393a9190615a80565b6139449082615a6d565b6001555050565b81811015610805576006546001600160a01b0316634b3fd14861396e8385615a6d565b6040517fffffffff0000000000000000000000000000000000000000000000000000000060e084901b16815260048101919091523060248201526044016020604051808303815f875af11580156139c7573d5f5f3e3d5ffd5b505050506040513d601f19601f820116820180604052508101906139eb9190615a80565b6139449082615ae1565b60017f9b779b17422d0df92223018b32b4d1fa46e071723d6817e2486d003becc55f0055565b5f5f5f5f613a316007546001600160a01b031690565b9050855f03613a63575f613a458887614a6a565b90505f613a52828a615a6d565b5f9650919450909250613f01915050565b5f60045f9054906101000a90046001600160a01b03166001600160a01b03166355a29e916040518163ffffffff1660e01b8152600401602060405180830381865afa158015613ab4573d5f5f3e3d5ffd5b505050506040513d601f19601f82011682018060405250810190613ad89190615bdf565b600480546040517f7b6b84470000000000000000000000000000000000000000000000000000000081526001600160a01b03868116938201939093529293505f928285169263ae68676c921690637b6b844790602401602060405180830381865afa158015613b49573d5f5f3e3d5ffd5b505050506040513d601f19601f82011682018060405250810190613b6d9190615bfa565b61ffff16613b7d6127108c615c1b565b613b879190615c5f565b7f0000000000000000000000000000000000000000000000000000000000000000866001600160a01b03166338d52e0f6040518163ffffffff1660e01b8152600401602060405180830381865afa158015613be4573d5f5f3e3d5ffd5b505050506040513d601f19601f82011682018060405250810190613c089190615bdf565b6040517fffffffff0000000000000000000000000000000000000000000000000000000060e086901b16815260048101939093526001600160a01b039182166024840152166044820152606401602060405180830381865afa158015613c70573d5f5f3e3d5ffd5b505050506040513d601f19601f82011682018060405250810190613c949190615a80565b9050613d0c89846001600160a01b031663c6e6f592846040518263ffffffff1660e01b8152600401613cc891815260200190565b602060405180830381865afa158015613ce3573d5f5f3e3d5ffd5b505050506040513d601f19601f82011682018060405250810190613d079190615a80565b614a6a565b90505f613d22613d1c838c615a6d565b89614a6a565b9050613d2e818b615a6d565b91505f836001600160a01b031663ae68676c8487886001600160a01b0316633e8333646040518163ffffffff1660e01b8152600401602060405180830381865afa158015613d7e573d5f5f3e3d5ffd5b505050506040513d601f19601f82011682018060405250810190613da29190615bdf565b6040517fffffffff0000000000000000000000000000000000000000000000000000000060e086901b16815260048101939093526001600160a01b039182166024840152166044820152606401602060405180830381865afa158015613e0a573d5f5f3e3d5ffd5b505050506040513d601f19601f82011682018060405250810190613e2e9190615a80565b6040517fa824bf67000000000000000000000000000000000000000000000000000000008152306004820152600160248201529091505f906001600160a01b037f0000000000000000000000000000000000000000000000000000000000000000169063a824bf67906044016040805180830381865afa158015613eb4573d5f5f3e3d5ffd5b505050506040513d601f19601f82011682018060405250810190613ed89190615a97565b9150505f613ee682846131eb565b90505f613ef38287615a6d565b9a5093985096505050505050505b93509350939050565b5f6060806001600160a01b03841615801590613f2d57506001600160a01b038511155b15614029576040516001600160a01b03888116602483015287811660448301528681166064830152898116608483015285169060a401604080517fffffffffffffffffffffffffffffffffffffffffffffffffffffffffffffffe08184030181529181526020820180517bffffffffffffffffffffffffffffffffffffffffffffffffffffffff167f36c785160000000000000000000000000000000000000000000000000000000017905251613fe49190615cca565b5f604051808303815f865af19150503d805f811461401d576040519150601f19603f3d011682016040523d82523d5f602084013e614022565b606091505b5090935091505b826140405761403a8888888861564f565b90935090505b826140845781816040517f9773bb7100000000000000000000000000000000000000000000000000000000815260040161407b929190615ce0565b60405180910390fd5b5050505050505050565b6040516001600160a01b038381166024830152604482018390525f918291861690606401604080517fffffffffffffffffffffffffffffffffffffffffffffffffffffffffffffffe08184030181529181526020820180517bffffffffffffffffffffffffffffffffffffffffffffffffffffffff167fa9059cbb00000000000000000000000000000000000000000000000000000000179052516141339190615cca565b5f604051808303815f865af19150503d805f811461416c576040519150601f19603f3d011682016040523d82523d5f602084013e614171565b606091505b5091509150614180828261577a565b61418d5761418d816157ad565b5050505050565b5f5f6141a86007546001600160a01b031690565b6040517fa824bf67000000000000000000000000000000000000000000000000000000008152306004820152600160248201529091505f9081906001600160a01b037f0000000000000000000000000000000000000000000000000000000000000000169063a824bf67906044016040805180830381865afa158015614230573d5f5f3e3d5ffd5b505050506040513d601f19601f820116820180604052508101906142549190615a97565b600480546040517f01d488eb0000000000000000000000000000000000000000000000000000000081526001600160a01b03888116938201939093529395509193505f929116906301d488eb90602401602060405180830381865afa1580156142bf573d5f5f3e3d5ffd5b505050506040513d601f19601f820116820180604052508101906142e39190615bfa565b61ffff1690506142f38382615c1b565b6142ff61271084615c1b565b111561431057600194505050505090565b6040517faf5aaeeb0000000000000000000000000000000000000000000000000000000081526001600160a01b0385811660048301525f917f00000000000000000000000000000000000000000000000000000000000000009091169063af5aaeeb90602401602060405180830381865afa158015614391573d5f5f3e3d5ffd5b505050506040513d601f19601f820116820180604052508101906143b59190615bfa565b6143c39061ffff1683615c1b565b90505f60045f9054906101000a90046001600160a01b03166001600160a01b03166355a29e916040518163ffffffff1660e01b8152600401602060405180830381865afa158015614416573d5f5f3e3d5ffd5b505050506040513d601f19601f8201168201806040525081019061443a9190615bdf565b6001600160a01b031663ae68676c6144525f85615487565b600654604080517f3e83336400000000000000000000000000000000000000000000000000000000815290518b926001600160a01b031691633e8333649160048083019260209291908290030181865afa1580156144b2573d5f5f3e3d5ffd5b505050506040513d601f19601f820116820180604052508101906144d69190615bdf565b6040517fffffffff0000000000000000000000000000000000000000000000000000000060e086901b16815260048101939093526001600160a01b039182166024840152166044820152606401602060405180830381865afa15801561453e573d5f5f3e3d5ffd5b505050506040513d601f19601f820116820180604052508101906145629190615a80565b9050806127106145728187615c1b565b61457c9190615c1b565b11965050505050505090565b6040517fa824bf67000000000000000000000000000000000000000000000000000000008152306004820152600160248201525f90819081906001600160a01b037f0000000000000000000000000000000000000000000000000000000000000000169063a824bf67906044016040805180830381865afa15801561460f573d5f5f3e3d5ffd5b505050506040513d601f19601f820116820180604052508101906146339190615a97565b9150505f60045f9054906101000a90046001600160a01b03166001600160a01b03166355a29e916040518163ffffffff1660e01b8152600401602060405180830381865afa158015614687573d5f5f3e3d5ffd5b505050506040513d601f19601f820116820180604052508101906146ab9190615bdf565b6001600160a01b031663ae68676c6146c1611b42565b6001546146ce9190615a6d565b6007546001600160a01b031660065f9054906101000a90046001600160a01b03166001600160a01b0316633e8333646040518163ffffffff1660e01b8152600401602060405180830381865afa15801561472a573d5f5f3e3d5ffd5b505050506040513d601f19601f8201168201806040525081019061474e9190615bdf565b6040517fffffffff0000000000000000000000000000000000000000000000000000000060e086901b16815260048101939093526001600160a01b039182166024840152166044820152606401602060405180830381865afa1580156147b6573d5f5f3e3d5ffd5b505050506040513d601f19601f820116820180604052508101906147da9190615a80565b919491935090915050565b60025461482e907f0000000000000000000000000000000000000000000000000000000000000000906001600160a01b031630846e22d473030f116ddee9f6b43ac78ba3613f0a565b6040517facb70815000000000000000000000000000000000000000000000000000000008152600481018290523060248201527f00000000000000000000000000000000000000000000000000000000000000006001600160a01b03169063acb70815906044016020604051808303815f875af11580156148b1573d5f5f3e3d5ffd5b505050506040513d601f19601f820116820180604052508101906108059190615a80565b336001600160a01b037f00000000000000000000000000000000000000000000000000000000000000001614158061498a57507f00000000000000000000000000000000000000000000000000000000000000006001600160a01b031663e21e537c6040518163ffffffff1660e01b8152600401602060405180830381865afa158015614964573d5f5f3e3d5ffd5b505050506040513d601f19601f820116820180604052508101906149889190615ac8565b155b15610d1a576040517fea8e4eb500000000000000000000000000000000000000000000000000000000815260040160405180910390fd5b6040517f4b3fd148000000000000000000000000000000000000000000000000000000008152600481018390526001600160a01b0382811660248301527f00000000000000000000000000000000000000000000000000000000000000001690634b3fd148906044016020604051808303815f875af1158015614a46573d5f5f3e3d5ffd5b505050506040513d601f19601f820116820180604052508101906122d09190615a80565b5f8282188284100282185b9392505050565b5f5f614a906007546001600160a01b031690565b90505f816001600160a01b03166338d52e0f6040518163ffffffff1660e01b8152600401602060405180830381865afa158015614acf573d5f5f3e3d5ffd5b505050506040513d601f19601f82011682018060405250810190614af39190615bdf565b600254909150614b1f9082906001600160a01b031630876e22d473030f116ddee9f6b43ac78ba3613f0a565b6040517f6e553f65000000000000000000000000000000000000000000000000000000008152600481018590523060248201526001600160a01b03831690636e553f65906044016020604051808303815f875af1158015614b82573d5f5f3e3d5ffd5b505050506040513d601f19601f82011682018060405250810190614ba69190615a80565b949350505050565b614bb66157ee565b614bbe615855565b600780547fffffffffffffffffffffffff00000000000000000000000000000000000000009081166001600160a01b03878116918217909355600280548316878516179055600480548316938516938417815560058054339416939093179092556040517fce504bf5000000000000000000000000000000000000000000000000000000008152918201525f919063ce504bf590602401602060405180830381865afa158015614c70573d5f5f3e3d5ffd5b505050506040513d601f19601f82011682018060405250810190614c949190615bdf565b600680547fffffffffffffffffffffffff0000000000000000000000000000000000000000166001600160a01b0383161790559050614cd38386614f7a565b6003839055614ce485825f19614eb7565b6040517fc368516c0000000000000000000000000000000000000000000000000000000081523060048201526001600160a01b0382811660248301527f0000000000000000000000000000000000000000000000000000000000000000169063c368516c906044015f604051808303815f87803b158015614d63575f5ffd5b505af1158015614d75573d5f5f3e3d5ffd5b50506040517fd44fee5a000000000000000000000000000000000000000000000000000000008152306004820181905260248201527f00000000000000000000000000000000000000000000000000000000000000006001600160a01b0316925063d44fee5a91506044015f604051808303815f87803b158015614df7575f5ffd5b505af1158015614e09573d5f5f3e3d5ffd5b50505050806001600160a01b03166338d52e0f6040518163ffffffff1660e01b8152600401602060405180830381865afa158015614e49573d5f5f3e3d5ffd5b505050506040513d601f19601f82011682018060405250810190614e6d9190615bdf565b6001600160a01b0316856001600160a01b03161461418d576040517f83c1010a00000000000000000000000000000000000000000000000000000000815260040160405180910390fd5b604080516001600160a01b038416602482015260448082018490528251808303909101815260649091019091526020810180517bffffffffffffffffffffffffffffffffffffffffffffffffffffffff167f095ea7b300000000000000000000000000000000000000000000000000000000179052614f368482615865565b614f74576040516001600160a01b0384811660248301525f6044830152614f6a91869182169063095ea7b3906064016136dc565b614f748482615402565b50505050565b600480546040517f01d488eb0000000000000000000000000000000000000000000000000000000081526001600160a01b03848116938201939093525f92909116906301d488eb90602401602060405180830381865afa158015614fe0573d5f5f3e3d5ffd5b505050506040513d601f19601f820116820180604052508101906150049190615bfa565b600480546040517f7b6b84470000000000000000000000000000000000000000000000000000000081526001600160a01b038681169382019390935261ffff9390931693505f92911690637b6b844790602401602060405180830381865afa158015615072573d5f5f3e3d5ffd5b505050506040513d601f19601f820116820180604052508101906150969190615bfa565b61ffff1690506150a861271085615c1b565b826150b285615100565b6150bc9190615c1b565b111580156150ca5750808411155b614f74576040517f4eb4f9fb00000000000000000000000000000000000000000000000000000000815260040160405180910390fd5b6040517faf5aaeeb0000000000000000000000000000000000000000000000000000000081526001600160a01b0382811660048301525f917f00000000000000000000000000000000000000000000000000000000000000009091169063af5aaeeb90602401602060405180830381865afa158015615181573d5f5f3e3d5ffd5b505050506040513d601f19601f820116820180604052508101906151a59190615bfa565b61ffff1692915050565b5f60045f9054906101000a90046001600160a01b03166001600160a01b03166355a29e916040518163ffffffff1660e01b8152600401602060405180830381865afa158015615200573d5f5f3e3d5ffd5b505050506040513d601f19601f820116820180604052508101906152249190615bdf565b6001600160a01b031663ae68676c8360065f9054906101000a90046001600160a01b03166001600160a01b0316633e8333646040518163ffffffff1660e01b8152600401602060405180830381865afa158015615283573d5f5f3e3d5ffd5b505050506040513d601f19601f820116820180604052508101906152a79190615bdf565b6007546001600160a01b03166001600160a01b03166338d52e0f6040518163ffffffff1660e01b8152600401602060405180830381865afa1580156152ee573d5f5f3e3d5ffd5b505050506040513d601f19601f820116820180604052508101906153129190615bdf565b6040517fffffffff0000000000000000000000000000000000000000000000000000000060e086901b16815260048101939093526001600160a01b039182166024840152166044820152606401602060405180830381865afa15801561537a573d5f5f3e3d5ffd5b505050506040513d601f19601f8201168201806040525081019061539e9190615a80565b90506131e56153ab611b42565b6001546153b89190615a6d565b6007546040517fc6e6f592000000000000000000000000000000000000000000000000000000008152600481018590526001600160a01b039091169063c6e6f59290602401613cc8565b5f5f60205f8451602086015f885af180615421576040513d5f823e3d81fd5b50505f513d91508115615438578060011415615445565b6001600160a01b0384163b155b15614f74576040517f5274afe70000000000000000000000000000000000000000000000000000000081526001600160a01b038516600482015260240161407b565b6001545f9081615495611b42565b61549f9083615a6d565b90505f856154ad578261553b565b600654604080517f961be391000000000000000000000000000000000000000000000000000000008152905185926001600160a01b03169163961be3919160048083019260209291908290030181865afa15801561550d573d5f5f3e3d5ffd5b505050506040513d601f19601f820116820180604052508101906155319190615a80565b61553b9190615ae1565b905061561261554a8287615c1b565b6003546004546155fc91906001600160a01b0316637b6b84476155756007546001600160a01b031690565b6040517fffffffff0000000000000000000000000000000000000000000000000000000060e084901b1681526001600160a01b039091166004820152602401602060405180830381865afa1580156155cf573d5f5f3e3d5ffd5b505050506040513d601f19601f820116820180604052508101906155f39190615bfa565b61ffff16614a6a565b61560861271086615c1b565b613d079190615c1b565b9695505050505050565b5f815f0361562e5761562e60126158aa565b81600184038161564057615640615c32565b04600101831515029392505050565b6040516001600160a01b0384811660248301528381166044830152606482018390525f9160609183918291891690608401604080517fffffffffffffffffffffffffffffffffffffffffffffffffffffffffffffffe08184030181529181526020820180517bffffffffffffffffffffffffffffffffffffffffffffffffffffffff167f23b872dd00000000000000000000000000000000000000000000000000000000179052516157019190615cca565b5f604051808303815f865af19150503d805f811461573a576040519150601f19603f3d011682016040523d82523d5f602084013e61573f565b606091505b509150915061574e828261577a565b615759575f8161576b565b600160405180602001604052805f8152505b93509350505094509492505050565b5f828015614a75575081511580614a7557506020825110158015614a75575081806020019051810190614a759190615ac8565b8051156157bc57805181602001fd5b6040517f2082e20000000000000000000000000000000000000000000000000000000000815260040160405180910390fd5b7ff0c57e16840df040f15088dc2f81fe391c3923bec73e23a9662efc9c229c6a005468010000000000000000900460ff16610d1a576040517fd7e6bcf800000000000000000000000000000000000000000000000000000000815260040160405180910390fd5b61585d6157ee565b610d1a6158bb565b5f5f5f5f60205f8651602088015f8a5af192503d91505f519050828015615612575081156158965780600114615612565b50505050506001600160a01b03163b151590565b634e487b715f52806020526024601cfd5b6139f56157ee565b6001600160a01b0381168114611488575f5ffd5b5f5f604083850312156158e8575f5ffd5b8235915060208301356158fa816158c3565b809150509250929050565b5f81518084528060208401602086015e5f6020828601015260207fffffffffffffffffffffffffffffffffffffffffffffffffffffffffffffffe0601f83011685010191505092915050565b602081525f614a756020830184615905565b5f60208284031215615973575f5ffd5b5035919050565b5f6020828403121561598a575f5ffd5b8135614a75816158c3565b5f5f5f606084860312156159a7575f5ffd5b8335925060208401359150604084013560ff811681146159c5575f5ffd5b809150509250925092565b5f5f5f5f608085870312156159e3575f5ffd5b84356159ee816158c3565b935060208501356159fe816158c3565b9250604085013591506060850135615a15816158c3565b939692955090935050565b5f5f60408385031215615a31575f5ffd5b50508035926020909101359150565b7f4e487b71000000000000000000000000000000000000000000000000000000005f52601160045260245ffd5b818103818111156131e5576131e5615a40565b5f60208284031215615a90575f5ffd5b5051919050565b5f5f60408385031215615aa8575f5ffd5b505080516020909101519092909150565b80518015158114611a4e575f5ffd5b5f60208284031215615ad8575f5ffd5b614a7582615ab9565b808201808211156131e5576131e5615a40565b7f4e487b71000000000000000000000000000000000000000000000000000000005f52603260045260245ffd5b5f602082016020835280845180835260408501915060408160051b8601019250602086015f5b82811015615bd3577fffffffffffffffffffffffffffffffffffffffffffffffffffffffffffffffc087860301845281516001600160a01b0381511686526001600160a01b036020820151166020870152604081015160408701526060810151905060806060870152615bbd6080870182615905565b9550506020938401939190910190600101615b47565b50929695505050505050565b5f60208284031215615bef575f5ffd5b8151614a75816158c3565b5f60208284031215615c0a575f5ffd5b815161ffff81168114614a75575f5ffd5b80820281158282048414176131e5576131e5615a40565b7f4e487b71000000000000000000000000000000000000000000000000000000005f52601260045260245ffd5b5f82615c92577f4e487b71000000000000000000000000000000000000000000000000000000005f52601260045260245ffd5b500490565b5f5f60408385031215615ca8575f5ffd5b8251615cb3816158c3565b9150615cc160208401615ab9565b90509250929050565b5f82518060208501845e5f920191825250919050565b604081525f615cf26040830185615905565b8281036020840152615d048185615905565b9594505050505056fea2646970667358221220d9fc8979a772adf06c2172b8b7036045437c1a49d1d43a9b7cdff428c4a78eae64736f6c634300081c0033","linkReferences":{}},"methodIdentifiers":{"EVC()":"a70354a1","asset()":"38d52e0f","balanceOf(address)":"70a08231","borrow(uint256,address)":"4b3fd148","borrower()":"7df1f1b9","canLiquidate()":"cd13ee77","canRebalance()":"a06880c0","checkVaultStatus()":"4b3d1223","collateralForBorrower(uint256,uint256)":"fc472b4f","collateralVaultFactory()":"5297ffbb","convertToAssets(uint256)":"07a2d13a","deposit(uint256)":"b6b55f25","depositUnderlying(uint256)":"b9f5be41","eulerEVC()":"5b3046fd","handleExternalLiquidation()":"0e308a5e","initialize(address,address,uint256,address)":"be203094","intermediateVault()":"5519129a","isExternallyLiquidated()":"e18b419f","liquidate()":"28a07025","maxRelease()":"800aac03","maxRepay()":"548e2132","name()":"06fdde03","rebalance()":"7d7c2a1c","redeemUnderlying(uint256,address)":"f0933698","repay(uint256)":"371fd8e6","setTwyneLiqLTV(uint256)":"ca19bcd4","skim()":"1dd19cb4","symbol()":"95d89b41","targetAsset()":"3d4403ac","targetVault()":"1f92db45","teleport(uint256,uint256,uint8)":"81054573","totalAssetsDepositedOrReserved()":"68851d2f","twyneLiqLTV()":"d09f2701","twyneVaultManager()":"7ff80498","version()":"54fd4d50","withdraw(uint256,address)":"00f714ce"},"id":70}