{"abi":[{"type":"function","name":"externalHF","inputs":[{"name":"collateralVault","type":"address","internalType":"address"}],"outputs":[{"name":"healthFactor","type":"uint256","internalType":"uint256"},{"name":"collateralValue","type":"uint256","internalType":"uint256"},{"name":"liabilityValue","type":"uint256","internalType":"uint256"}],"stateMutability":"view"},{"type":"function","name":"health","inputs":[{"name":"collateralVault","type":"address","internalType":"address"}],"outputs":[{"name":"extHF","type":"uint256","internalType":"uint256"},{"name":"inHF","type":"uint256","internalType":"uint256"},{"name":"externalBorrowDebtValue","type":"uint256","internalType":"uint256"},{"name":"internalBorrowDebtValue","type":"uint256","internalType":"uint256"}],"stateMutability":"view"},{"type":"function","name":"internalHF","inputs":[{"name":"collateralVault","type":"address","internalType":"address"}],"outputs":[{"name":"healthFactor","type":"uint256","internalType":"uint256"},{"name":"collateralValue","type":"uint256","internalType":"uint256"},{"name":"liabilityValue","type":"uint256","internalType":"uint256"}],"stateMutability":"view"}],"bytecode":{"object":"0x6080604052348015600e575f5ffd5b50610c7a8061001c5f395ff3fe608060405234801561000f575f5ffd5b506004361061003f575f3560e01c8063735b5401146100435780637567e27014610076578063e2d8ebee14610089575b5f5ffd5b610056610051366004610b18565b6100bc565b604080519384526020840192909252908201526060015b60405180910390f35b610056610084366004610b18565b61021e565b61009c610097366004610b18565b61026a565b60408051948552602085019390935291830152606082015260800161006d565b5f5f5f8373ffffffffffffffffffffffffffffffffffffffff16635519129a6040518163ffffffff1660e01b8152600401602060405180830381865afa158015610108573d5f5f3e3d5ffd5b505050506040513d601f19601f8201168201806040525081019061012c9190610b3a565b6040517fa824bf6700000000000000000000000000000000000000000000000000000000815273ffffffffffffffffffffffffffffffffffffffff868116600483015260016024830152919091169063a824bf67906044016040805180830381865afa15801561019e573d5f5f3e3d5ffd5b505050506040513d601f19601f820116820180604052508101906101c29190610b55565b90925090505f8190036101f7577fffffffffffffffffffffffffffffffffffffffffffffffffffffffffffffffff9250610217565b8061020a83670de0b6b3a7640000610ba4565b6102149190610bc1565b92505b9193909250565b5f5f5f8373ffffffffffffffffffffffffffffffffffffffff16631f92db456040518163ffffffff1660e01b8152600401602060405180830381865afa158015610108573d5f5f3e3d5ffd5b5f5f5f5f5f8573ffffffffffffffffffffffffffffffffffffffff16637ff804986040518163ffffffff1660e01b8152600401602060405180830381865afa1580156102b8573d5f5f3e3d5ffd5b505050506040513d601f19601f820116820180604052508101906102dc9190610b3a565b90505f8673ffffffffffffffffffffffffffffffffffffffff16631f92db456040518163ffffffff1660e01b8152600401602060405180830381865afa158015610328573d5f5f3e3d5ffd5b505050506040513d601f19601f8201168201806040525081019061034c9190610b3a565b90505f8773ffffffffffffffffffffffffffffffffffffffff166338d52e0f6040518163ffffffff1660e01b8152600401602060405180830381865afa158015610398573d5f5f3e3d5ffd5b505050506040513d601f19601f820116820180604052508101906103bc9190610b3a565b6040517fa824bf6700000000000000000000000000000000000000000000000000000000815273ffffffffffffffffffffffffffffffffffffffff8a81166004830152600160248301529192505f9184169063a824bf67906044016040805180830381865afa158015610431573d5f5f3e3d5ffd5b505050506040513d601f19601f820116820180604052508101906104559190610b55565b965090505f869003610489577fffffffffffffffffffffffffffffffffffffffffffffffffffffffffffffffff9750610553565b61049586612710610ba4565b6040517f01d488eb00000000000000000000000000000000000000000000000000000000815273ffffffffffffffffffffffffffffffffffffffff84811660048301528391908716906301d488eb90602401602060405180830381865afa158015610502573d5f5f3e3d5ffd5b505050506040513d601f19601f820116820180604052508101906105269190610bf9565b61053c9061ffff16670de0b6b3a7640000610ba4565b6105469190610ba4565b6105509190610bc1565b97505b5f8973ffffffffffffffffffffffffffffffffffffffff166368851d2f6040518163ffffffff1660e01b8152600401602060405180830381865afa15801561059d573d5f5f3e3d5ffd5b505050506040513d601f19601f820116820180604052508101906105c19190610c1a565b90505f8573ffffffffffffffffffffffffffffffffffffffff166355a29e916040518163ffffffff1660e01b8152600401602060405180830381865afa15801561060d573d5f5f3e3d5ffd5b505050506040513d601f19601f820116820180604052508101906106319190610b3a565b73ffffffffffffffffffffffffffffffffffffffff1663ae68676c83868873ffffffffffffffffffffffffffffffffffffffff16633e8333646040518163ffffffff1660e01b8152600401602060405180830381865afa158015610697573d5f5f3e3d5ffd5b505050506040513d601f19601f820116820180604052508101906106bb9190610b3a565b6040517fffffffff0000000000000000000000000000000000000000000000000000000060e086901b168152600481019390935273ffffffffffffffffffffffffffffffffffffffff9182166024840152166044820152606401602060405180830381865afa158015610730573d5f5f3e3d5ffd5b505050506040513d601f19601f820116820180604052508101906107549190610c1a565b6040517fce504bf500000000000000000000000000000000000000000000000000000000815273ffffffffffffffffffffffffffffffffffffffff86811660048301529192505f9188169063ce504bf590602401602060405180830381865afa1580156107c3573d5f5f3e3d5ffd5b505050506040513d601f19601f820116820180604052508101906107e79190610b3a565b6040517fd283e75f00000000000000000000000000000000000000000000000000000000815273ffffffffffffffffffffffffffffffffffffffff8e81166004830152919091169063d283e75f90602401602060405180830381865afa158015610853573d5f5f3e3d5ffd5b505050506040513d601f19601f820116820180604052508101906108779190610c1a565b90508673ffffffffffffffffffffffffffffffffffffffff166355a29e916040518163ffffffff1660e01b8152600401602060405180830381865afa1580156108c2573d5f5f3e3d5ffd5b505050506040513d601f19601f820116820180604052508101906108e69190610b3a565b73ffffffffffffffffffffffffffffffffffffffff1663ae68676c82878973ffffffffffffffffffffffffffffffffffffffff16633e8333646040518163ffffffff1660e01b8152600401602060405180830381865afa15801561094c573d5f5f3e3d5ffd5b505050506040513d601f19601f820116820180604052508101906109709190610b3a565b6040517fffffffff0000000000000000000000000000000000000000000000000000000060e086901b168152600481019390935273ffffffffffffffffffffffffffffffffffffffff9182166024840152166044820152606401602060405180830381865afa1580156109e5573d5f5f3e3d5ffd5b505050506040513d601f19601f82011682018060405250810190610a099190610c1a565b9750885f03610a3a577fffffffffffffffffffffffffffffffffffffffffffffffffffffffffffffffff9950610ae6565b610a466127108a610ba4565b610a508984610c31565b8d73ffffffffffffffffffffffffffffffffffffffff1663d09f27016040518163ffffffff1660e01b8152600401602060405180830381865afa158015610a99573d5f5f3e3d5ffd5b505050506040513d601f19601f82011682018060405250810190610abd9190610c1a565b610ac79190610ba4565b610ad990670de0b6b3a7640000610ba4565b610ae39190610bc1565b99505b505050505050509193509193565b73ffffffffffffffffffffffffffffffffffffffff81168114610b15575f5ffd5b50565b5f60208284031215610b28575f5ffd5b8135610b3381610af4565b9392505050565b5f60208284031215610b4a575f5ffd5b8151610b3381610af4565b5f5f60408385031215610b66575f5ffd5b505080516020909101519092909150565b7f4e487b71000000000000000000000000000000000000000000000000000000005f52601160045260245ffd5b8082028115828204841417610bbb57610bbb610b77565b92915050565b5f82610bf4577f4e487b71000000000000000000000000000000000000000000000000000000005f52601260045260245ffd5b500490565b5f60208284031215610c09575f5ffd5b815161ffff81168114610b33575f5ffd5b5f60208284031215610c2a575f5ffd5b5051919050565b81810381811115610bbb57610bbb610b7756fea2646970667358221220875970b17f42881c38dba6838438b9c98aa87463cf269f1a3f0b1f0a5398131464736f6c634300081c0033","linkReferences":{}},"methodIdentifiers":{"externalHF(address)":"7567e270","health(address)":"e2d8ebee","internalHF(address)":"735b5401"},"id":155}