{"abi":[{"type":"constructor","inputs":[{"name":"_owner","type":"address","internalType":"address"},{"name":"_factory","type":"address","internalType":"address"}],"stateMutability":"nonpayable"},{"type":"receive","stateMutability":"payable"},{"type":"function","name":"allowedTargetVaultList","inputs":[{"name":"intermediateVault","type":"address","internalType":"address"},{"name":"","type":"uint256","internalType":"uint256"}],"outputs":[{"name":"targetVaults","type":"address","internalType":"address"}],"stateMutability":"view"},{"type":"function","name":"checkLiqLTV","inputs":[{"name":"_liqLTV","type":"uint256","internalType":"uint256"},{"name":"_targetVault","type":"address","internalType":"address"},{"name":"_collateralAddress","type":"address","internalType":"address"}],"outputs":[],"stateMutability":"view"},{"type":"function","name":"collateralVaultFactory","inputs":[],"outputs":[{"name":"","type":"address","internalType":"address"}],"stateMutability":"view"},{"type":"function","name":"doCall","inputs":[{"name":"to","type":"address","internalType":"address"},{"name":"value","type":"uint256","internalType":"uint256"},{"name":"data","type":"bytes","internalType":"bytes"}],"outputs":[],"stateMutability":"payable"},{"type":"function","name":"externalLiqBuffers","inputs":[{"name":"collateralAddress","type":"address","internalType":"address"}],"outputs":[{"name":"externalLiqBuffer","type":"uint16","internalType":"uint16"}],"stateMutability":"view"},{"type":"function","name":"getIntermediateVault","inputs":[{"name":"_collateralAddress","type":"address","internalType":"address"}],"outputs":[{"name":"vault","type":"address","internalType":"address"}],"stateMutability":"view"},{"type":"function","name":"isAllowedTargetVault","inputs":[{"name":"intermediateVault","type":"address","internalType":"address"},{"name":"targetVault","type":"address","internalType":"address"}],"outputs":[{"name":"allowed","type":"bool","internalType":"bool"}],"stateMutability":"view"},{"type":"function","name":"maxTwyneLTVs","inputs":[{"name":"collateralAddress","type":"address","internalType":"address"}],"outputs":[{"name":"maxTwyneLiqLTV","type":"uint16","internalType":"uint16"}],"stateMutability":"view"},{"type":"function","name":"oracleRouter","inputs":[],"outputs":[{"name":"","type":"address","internalType":"contract EulerRouter"}],"stateMutability":"view"},{"type":"function","name":"owner","inputs":[],"outputs":[{"name":"","type":"address","internalType":"address"}],"stateMutability":"view"},{"type":"function","name":"removeAllowedTargetVault","inputs":[{"name":"_intermediateVault","type":"address","internalType":"address"},{"name":"_targetVault","type":"address","internalType":"address"},{"name":"_index","type":"uint256","internalType":"uint256"}],"outputs":[],"stateMutability":"nonpayable"},{"type":"function","name":"renounceOwnership","inputs":[],"outputs":[],"stateMutability":"nonpayable"},{"type":"function","name":"setAllowedTargetVault","inputs":[{"name":"_intermediateVault","type":"address","internalType":"address"},{"name":"_targetVault","type":"address","internalType":"address"}],"outputs":[],"stateMutability":"nonpayable"},{"type":"function","name":"setCollateralVaultFactory","inputs":[{"name":"_factory","type":"address","internalType":"address"}],"outputs":[],"stateMutability":"nonpayable"},{"type":"function","name":"setExternalLiqBuffer","inputs":[{"name":"_collateralAddress","type":"address","internalType":"address"},{"name":"_liqBuffer","type":"uint16","internalType":"uint16"}],"outputs":[],"stateMutability":"nonpayable"},{"type":"function","name":"setIntermediateVault","inputs":[{"name":"_intermediateVault","type":"address","internalType":"contract IEVault"}],"outputs":[],"stateMutability":"nonpayable"},{"type":"function","name":"setLTV","inputs":[{"name":"_intermediateVault","type":"address","internalType":"contract IEVault"},{"name":"_collateralVault","type":"address","internalType":"address"},{"name":"_borrowLimit","type":"uint16","internalType":"uint16"},{"name":"_liquidationLimit","type":"uint16","internalType":"uint16"},{"name":"_rampDuration","type":"uint32","internalType":"uint32"}],"outputs":[],"stateMutability":"nonpayable"},{"type":"function","name":"setMaxLiquidationLTV","inputs":[{"name":"_collateralAddress","type":"address","internalType":"address"},{"name":"_ltv","type":"uint16","internalType":"uint16"}],"outputs":[],"stateMutability":"nonpayable"},{"type":"function","name":"setOracleResolvedVault","inputs":[{"name":"_vault","type":"address","internalType":"address"},{"name":"_allow","type":"bool","internalType":"bool"}],"outputs":[],"stateMutability":"nonpayable"},{"type":"function","name":"setOracleRouter","inputs":[{"name":"_oracle","type":"address","internalType":"address"}],"outputs":[],"stateMutability":"nonpayable"},{"type":"function","name":"targetVaultLength","inputs":[{"name":"_intermediateVault","type":"address","internalType":"address"}],"outputs":[{"name":"","type":"uint256","internalType":"uint256"}],"stateMutability":"view"},{"type":"function","name":"transferOwnership","inputs":[{"name":"newOwner","type":"address","internalType":"address"}],"outputs":[],"stateMutability":"nonpayable"},{"type":"event","name":"OwnershipTransferred","inputs":[{"name":"previousOwner","type":"address","indexed":true,"internalType":"address"},{"name":"newOwner","type":"address","indexed":true,"internalType":"address"}],"anonymous":false},{"type":"event","name":"T_AddAllowedTargetVault","inputs":[{"name":"intermediateVault","type":"address","indexed":true,"internalType":"address"},{"name":"targetVault","type":"address","indexed":true,"internalType":"address"}],"anonymous":false},{"type":"event","name":"T_Borrow","inputs":[{"name":"targetAmount","type":"uint256","indexed":false,"internalType":"uint256"},{"name":"receiver","type":"address","indexed":true,"internalType":"address"}],"anonymous":false},{"type":"event","name":"T_CollateralVaultCreated","inputs":[{"name":"vault","type":"address","indexed":true,"internalType":"address"}],"anonymous":false},{"type":"event","name":"T_CollateralVaultInitialized","inputs":[],"anonymous":false},{"type":"event","name":"T_ControllerDisabled","inputs":[],"anonymous":false},{"type":"event","name":"T_Deposit","inputs":[{"name":"amount","type":"uint256","indexed":false,"internalType":"uint256"}],"anonymous":false},{"type":"event","name":"T_DepositUnderlying","inputs":[{"name":"amount","type":"uint256","indexed":false,"internalType":"uint256"}],"anonymous":false},{"type":"event","name":"T_DoCall","inputs":[{"name":"to","type":"address","indexed":true,"internalType":"address"},{"name":"value","type":"uint256","indexed":false,"internalType":"uint256"},{"name":"data","type":"bytes","indexed":false,"internalType":"bytes"}],"anonymous":false},{"type":"event","name":"T_FactoryPause","inputs":[{"name":"pause","type":"bool","indexed":false,"internalType":"bool"}],"anonymous":false},{"type":"event","name":"T_HandleExternalLiquidation","inputs":[],"anonymous":false},{"type":"event","name":"T_Rebalance","inputs":[],"anonymous":false},{"type":"event","name":"T_RedeemUnderlying","inputs":[{"name":"amount","type":"uint256","indexed":false,"internalType":"uint256"},{"name":"receiver","type":"address","indexed":true,"internalType":"address"}],"anonymous":false},{"type":"event","name":"T_RemoveAllowedTargetVault","inputs":[{"name":"intermediateVault","type":"address","indexed":true,"internalType":"address"},{"name":"targetVault","type":"address","indexed":true,"internalType":"address"},{"name":"index","type":"uint256","indexed":false,"internalType":"uint256"}],"anonymous":false},{"type":"event","name":"T_Repay","inputs":[{"name":"repayAmount","type":"uint256","indexed":false,"internalType":"uint256"}],"anonymous":false},{"type":"event","name":"T_SetBeacon","inputs":[{"name":"targetVault","type":"address","indexed":true,"internalType":"address"},{"name":"beacon","type":"address","indexed":true,"internalType":"address"}],"anonymous":false},{"type":"event","name":"T_SetCollateralVaultFactory","inputs":[{"name":"factory","type":"address","indexed":true,"internalType":"address"}],"anonymous":false},{"type":"event","name":"T_SetCollateralVaultLiquidated","inputs":[{"name":"collateralVault","type":"address","indexed":true,"internalType":"address"},{"name":"liquidator","type":"address","indexed":true,"internalType":"address"}],"anonymous":false},{"type":"event","name":"T_SetExternalLiqBuffer","inputs":[{"name":"collateralAddress","type":"address","indexed":true,"internalType":"address"},{"name":"liqBuffer","type":"uint16","indexed":false,"internalType":"uint16"}],"anonymous":false},{"type":"event","name":"T_SetIntermediateVault","inputs":[{"name":"intermediateVault","type":"address","indexed":true,"internalType":"address"}],"anonymous":false},{"type":"event","name":"T_SetLTV","inputs":[{"name":"intermediateVault","type":"address","indexed":true,"internalType":"address"},{"name":"collateralVault","type":"address","indexed":true,"internalType":"address"},{"name":"borrowLimit","type":"uint16","indexed":false,"internalType":"uint16"},{"name":"liquidationLimit","type":"uint16","indexed":false,"internalType":"uint16"},{"name":"rampDuration","type":"uint32","indexed":false,"internalType":"uint32"}],"anonymous":false},{"type":"event","name":"T_SetMaxLiqLTV","inputs":[{"name":"collateralAddress","type":"address","indexed":true,"internalType":"address"},{"name":"ltv","type":"uint16","indexed":false,"internalType":"uint16"}],"anonymous":false},{"type":"event","name":"T_SetOracleResolvedVault","inputs":[{"name":"collateralAddress","type":"address","indexed":true,"internalType":"address"},{"name":"allow","type":"bool","indexed":false,"internalType":"bool"}],"anonymous":false},{"type":"event","name":"T_SetOracleRouter","inputs":[{"name":"newOracleRouter","type":"address","indexed":true,"internalType":"address"}],"anonymous":false},{"type":"event","name":"T_SetTwyneLiqLTV","inputs":[{"name":"ltv","type":"uint256","indexed":false,"internalType":"uint256"}],"anonymous":false},{"type":"event","name":"T_SetVaultManager","inputs":[{"name":"vaultManager","type":"address","indexed":true,"internalType":"address"}],"anonymous":false},{"type":"event","name":"T_Teleport","inputs":[{"name":"toDeposit","type":"uint256","indexed":false,"internalType":"uint256"},{"name":"toBorrow","type":"uint256","indexed":false,"internalType":"uint256"}],"anonymous":false},{"type":"event","name":"T_Withdraw","inputs":[{"name":"amount","type":"uint256","indexed":false,"internalType":"uint256"},{"name":"receiver","type":"address","indexed":true,"internalType":"address"}],"anonymous":false},{"type":"error","name":"AssetMismatch","inputs":[]},{"type":"error","name":"CallerNotOwnerOrCollateralVaultFactory","inputs":[]},{"type":"error","name":"CannotRebalance","inputs":[]},{"type":"error","name":"E_EmptyError","inputs":[]},{"type":"error","name":"ExternallyLiquidated","inputs":[]},{"type":"error","name":"HealthyNotLiquidatable","inputs":[]},{"type":"error","name":"IncorrectIndex","inputs":[]},{"type":"error","name":"IntermediateVaultAlreadySet","inputs":[]},{"type":"error","name":"IntermediateVaultNotSet","inputs":[]},{"type":"error","name":"NotCollateralVault","inputs":[]},{"type":"error","name":"NotExternallyLiquidated","inputs":[]},{"type":"error","name":"NotIntermediateVault","inputs":[]},{"type":"error","name":"OwnableInvalidOwner","inputs":[{"name":"owner","type":"address","internalType":"address"}]},{"type":"error","name":"OwnableUnauthorizedAccount","inputs":[{"name":"account","type":"address","internalType":"address"}]},{"type":"error","name":"ReceiverNotBorrower","inputs":[]},{"type":"error","name":"ReceiverNotCollateralVault","inputs":[]},{"type":"error","name":"Reentrancy","inputs":[]},{"type":"error","name":"RepayingMoreThanMax","inputs":[]},{"type":"error","name":"SelfLiquidation","inputs":[]},{"type":"error","name":"SnapshotNotTaken","inputs":[]},{"type":"error","name":"T_CV_OperationDisabled","inputs":[]},{"type":"error","name":"T_OperationDisabled","inputs":[]},{"type":"error","name":"ValueOutOfRange","inputs":[]},{"type":"error","name":"VaultStatusLiquidatable","inputs":[]},{"type":"error","name":"ViolatorNotCollateralVault","inputs":[]}],"bytecode":{"object":"0x608060405234801561000f575f5ffd5b50604051611bd2380380611bd283398101604081905261002e916100f6565b816001600160a01b03811661005c57604051631e4fbdf760e01b81525f600482015260240160405180910390fd5b6100658161008c565b50600180546001600160a01b0319166001600160a01b039290921691909117905550610127565b5f80546001600160a01b038381166001600160a01b0319831681178455604051919092169283917f8be0079c531659141344cd1fd0a4f28419497f9722a3daafe3b4186f6b6457e09190a35050565b80516001600160a01b03811681146100f1575f5ffd5b919050565b5f5f60408385031215610107575f5ffd5b610110836100db565b915061011e602084016100db565b90509250929050565b611a9e806101345f395ff3fe608060405260043610610170575f3560e01c80637b6b8447116100c6578063bff63c671161007c578063da7f7f8011610057578063da7f7f8014610464578063ec97b18c14610483578063f2fde38b146104cc575f5ffd5b8063bff63c6714610407578063c0bcfa9214610426578063ce504bf514610445575f5ffd5b80638b9925e8116100ac5780638b9925e8146103a05780638da5cb5b146103bf578063950bc62a146103e8575f5ffd5b80637b6b8447146103525780637fcc23f014610381575f5ffd5b80635297ffbb1161012657806362844a1d1161010157806362844a1d146102d0578063715018a6146102ef57806374ad9dfa14610303575f5ffd5b80635297ffbb1461023457806354dfcf4e1461028557806355a29e91146102a4575f5ffd5b80631abdc35a116101565780631abdc35a146101e357806321f9dd48146101f65780634d69ee0e14610215575f5ffd5b806301d488eb1461017b5780630d453737146101c2575f5ffd5b3661017757005b5f5ffd5b348015610186575f5ffd5b506101aa6101953660046115f3565b60036020525f908152604090205461ffff1681565b60405161ffff90911681526020015b60405180910390f35b3480156101cd575f5ffd5b506101e16101dc3660046115f3565b6104eb565b005b6101e16101f1366004611642565b61063c565b348015610201575f5ffd5b506101e161021036600461174d565b610715565b348015610220575f5ffd5b506101e161022f3660046115f3565b610867565b34801561023f575f5ffd5b506001546102609073ffffffffffffffffffffffffffffffffffffffff1681565b60405173ffffffffffffffffffffffffffffffffffffffff90911681526020016101b9565b348015610290575f5ffd5b506101e161029f3660046115f3565b6108dd565b3480156102af575f5ffd5b506004546102609073ffffffffffffffffffffffffffffffffffffffff1681565b3480156102db575f5ffd5b506102606102ea366004611788565b610953565b3480156102fa575f5ffd5b506101e1610994565b34801561030e575f5ffd5b5061034461031d3660046115f3565b73ffffffffffffffffffffffffffffffffffffffff165f9081526007602052604090205490565b6040519081526020016101b9565b34801561035d575f5ffd5b506101aa61036c3660046115f3565b60026020525f908152604090205461ffff1681565b34801561038c575f5ffd5b506101e161039b3660046117b2565b6109a7565b3480156103ab575f5ffd5b506101e16103ba366004611800565b610aef565b3480156103ca575f5ffd5b505f5473ffffffffffffffffffffffffffffffffffffffff16610260565b3480156103f3575f5ffd5b506101e1610402366004611875565b610da5565b348015610412575f5ffd5b506101e16104213660046118a1565b610e71565b348015610431575f5ffd5b506101e16104403660046118df565b611116565b348015610450575f5ffd5b5061026061045f3660046115f3565b611325565b34801561046f575f5ffd5b506101e161047e366004611875565b611388565b34801561048e575f5ffd5b506104bc61049d3660046118df565b600660209081525f928352604080842090915290825290205460ff1681565b60405190151581526020016101b9565b3480156104d7575f5ffd5b506101e16104e63660046115f3565b611463565b6104f36114cb565b5f8173ffffffffffffffffffffffffffffffffffffffff166338d52e0f6040518163ffffffff1660e01b8152600401602060405180830381865afa15801561053d573d5f5f3e3d5ffd5b505050506040513d601f19601f82011682018060405250810190610561919061190b565b73ffffffffffffffffffffffffffffffffffffffff8082165f9081526005602052604090205491925016156105c1576040517ee658da00000000000000000000000000000000000000000000000000000000815260040160405180910390fd5b73ffffffffffffffffffffffffffffffffffffffff8181165f9081526005602052604080822080547fffffffffffffffffffffffff0000000000000000000000000000000000000000169386169384179055517f22ef484689bf8f52a76523b76f3985a5e85d716b7ee5af836f2af3c250dc607c9190a25050565b6106446114cb565b5f5f8473ffffffffffffffffffffffffffffffffffffffff16848460405161066c9190611926565b5f6040518083038185875af1925050503d805f81146106a6576040519150601f19603f3d011682016040523d82523d5f602084013e6106ab565b606091505b5091509150816106be576106be8161151d565b8473ffffffffffffffffffffffffffffffffffffffff167faa0a31269202c4785ce0060378b0e5536b5cec6ec2d6cf3cabd5bc9462d65e0a858560405161070692919061193c565b60405180910390a25050505050565b5f5473ffffffffffffffffffffffffffffffffffffffff16331480610751575060015473ffffffffffffffffffffffffffffffffffffffff1633145b610787576040517fda57fd0900000000000000000000000000000000000000000000000000000000815260040160405180910390fd5b600480546040517fd6c0292600000000000000000000000000000000000000000000000000000000815273ffffffffffffffffffffffffffffffffffffffff85811693820193909352831515602482015291169063d6c02926906044015f604051808303815f87803b1580156107fb575f5ffd5b505af115801561080d573d5f5f3e3d5ffd5b505050508173ffffffffffffffffffffffffffffffffffffffff167f5930809fcc0838c62013ba36bd54b7cf61adebe96a8ea7c7a75f5df45b695e1d8260405161085b911515815260200190565b60405180910390a25050565b61086f6114cb565b600480547fffffffffffffffffffffffff00000000000000000000000000000000000000001673ffffffffffffffffffffffffffffffffffffffff83169081179091556040517f9c06287931491ac1b0bf9eecb992cc716533e7c09b8e2b3fd1a112f3fb39a35d905f90a250565b6108e56114cb565b600180547fffffffffffffffffffffffff00000000000000000000000000000000000000001673ffffffffffffffffffffffffffffffffffffffff83169081179091556040517f6799863c8acecaec14cd4e47492ea09c5589438f0f2fff2d1d8c1655d82bb2ce905f90a250565b6007602052815f5260405f20818154811061096c575f80fd5b5f9182526020909120015473ffffffffffffffffffffffffffffffffffffffff169150829050565b61099c6114cb565b6109a55f61155e565b565b6040517faf5aaeeb00000000000000000000000000000000000000000000000000000000815273ffffffffffffffffffffffffffffffffffffffff82811660048301525f919084169063af5aaeeb90602401602060405180830381865afa158015610a14573d5f5f3e3d5ffd5b505050506040513d601f19601f82011682018060405250810190610a389190611996565b9050610a46612710856119de565b73ffffffffffffffffffffffffffffffffffffffff83165f90815260036020526040902054610a7d9061ffff9081169084166119de565b11158015610ab3575073ffffffffffffffffffffffffffffffffffffffff82165f9081526002602052604090205461ffff168411155b610ae9576040517f4eb4f9fb00000000000000000000000000000000000000000000000000000000815260040160405180910390fd5b50505050565b5f5473ffffffffffffffffffffffffffffffffffffffff16331480610b2b575060015473ffffffffffffffffffffffffffffffffffffffff1633145b610b61576040517fda57fd0900000000000000000000000000000000000000000000000000000000815260040160405180910390fd5b8473ffffffffffffffffffffffffffffffffffffffff166338d52e0f6040518163ffffffff1660e01b8152600401602060405180830381865afa158015610baa573d5f5f3e3d5ffd5b505050506040513d601f19601f82011682018060405250810190610bce919061190b565b73ffffffffffffffffffffffffffffffffffffffff168473ffffffffffffffffffffffffffffffffffffffff166338d52e0f6040518163ffffffff1660e01b8152600401602060405180830381865afa158015610c2d573d5f5f3e3d5ffd5b505050506040513d601f19601f82011682018060405250810190610c51919061190b565b73ffffffffffffffffffffffffffffffffffffffff1614610c9e576040517f83c1010a00000000000000000000000000000000000000000000000000000000815260040160405180910390fd5b6040517f4bca3d5b00000000000000000000000000000000000000000000000000000000815273ffffffffffffffffffffffffffffffffffffffff858116600483015261ffff80861660248401528416604483015263ffffffff83166064830152861690634bca3d5b906084015f604051808303815f87803b158015610d22575f5ffd5b505af1158015610d34573d5f5f3e3d5ffd5b50506040805161ffff87811682528616602082015263ffffffff851681830152905173ffffffffffffffffffffffffffffffffffffffff8881169450891692507fea5b8cb10c470c01b271642da6387adcd6027f322e322652b99e981948c90e2b9181900360600190a35050505050565b610dad6114cb565b6127108161ffff161115610ded576040517f4eb4f9fb00000000000000000000000000000000000000000000000000000000815260040160405180910390fd5b73ffffffffffffffffffffffffffffffffffffffff82165f8181526002602090815260409182902080547fffffffffffffffffffffffffffffffffffffffffffffffffffffffffffff00001661ffff861690811790915591519182527f29bcc99188c72336fdc1864dc85bd43266a3b893bf6e292ea7d5510e0ae248ef910161085b565b610e796114cb565b73ffffffffffffffffffffffffffffffffffffffff8084165f81815260066020908152604080832094871680845294825280832080547fffffffffffffffffffffffffffffffffffffffffffffffffffffffffffffff001690559282526007905220805483908110610eed57610eed6119fb565b5f9182526020909120015473ffffffffffffffffffffffffffffffffffffffff1614610f45576040517f07cc4d8f00000000000000000000000000000000000000000000000000000000815260040160405180910390fd5b73ffffffffffffffffffffffffffffffffffffffff83165f90815260076020526040812054610f7690600190611a28565b90508082146110445773ffffffffffffffffffffffffffffffffffffffff84165f908152600760205260409020805482908110610fb557610fb56119fb565b5f91825260208083209091015473ffffffffffffffffffffffffffffffffffffffff878116845260079092526040909220805491909216919084908110610ffe57610ffe6119fb565b905f5260205f20015f6101000a81548173ffffffffffffffffffffffffffffffffffffffff021916908373ffffffffffffffffffffffffffffffffffffffff1602179055505b73ffffffffffffffffffffffffffffffffffffffff84165f90815260076020526040902080548061107757611077611a3b565b600190038181905f5260205f20015f6101000a81549073ffffffffffffffffffffffffffffffffffffffff021916905590558273ffffffffffffffffffffffffffffffffffffffff168473ffffffffffffffffffffffffffffffffffffffff167f8cdf0649535799d80c21537f19ba756f7469582bb84536e93c8d701f2796a6a18460405161110891815260200190565b60405180910390a350505050565b61111e6114cb565b8073ffffffffffffffffffffffffffffffffffffffff16633e8333646040518163ffffffff1660e01b8152600401602060405180830381865afa158015611167573d5f5f3e3d5ffd5b505050506040513d601f19601f8201168201806040525081019061118b919061190b565b73ffffffffffffffffffffffffffffffffffffffff168273ffffffffffffffffffffffffffffffffffffffff16633e8333646040518163ffffffff1660e01b8152600401602060405180830381865afa1580156111ea573d5f5f3e3d5ffd5b505050506040513d601f19601f8201168201806040525081019061120e919061190b565b73ffffffffffffffffffffffffffffffffffffffff161461125b576040517f83c1010a00000000000000000000000000000000000000000000000000000000815260040160405180910390fd5b73ffffffffffffffffffffffffffffffffffffffff8083165f81815260066020908152604080832094861680845294825280832080547fffffffffffffffffffffffffffffffffffffffffffffffffffffffffffffff001660019081179091558484526007835281842080549182018155845291832090910180547fffffffffffffffffffffffff00000000000000000000000000000000000000001685179055517f50edacaf4177a0a51a3003c8c50d39a4e5929720e5b68cf56888decd5691dd129190a35050565b73ffffffffffffffffffffffffffffffffffffffff8082165f908152600560205260409020541680611383576040517f83cc6e7400000000000000000000000000000000000000000000000000000000815260040160405180910390fd5b919050565b6113906114cb565b61ffff8116158015906113a957506127108161ffff1611155b6113df576040517f4eb4f9fb00000000000000000000000000000000000000000000000000000000815260040160405180910390fd5b73ffffffffffffffffffffffffffffffffffffffff82165f8181526003602090815260409182902080547fffffffffffffffffffffffffffffffffffffffffffffffffffffffffffff00001661ffff861690811790915591519182527fd82a30016f0c547a70a7131b7b0a4812ed54aff668591763d9f605c8f8820e2e910161085b565b61146b6114cb565b73ffffffffffffffffffffffffffffffffffffffff81166114bf576040517f1e4fbdf70000000000000000000000000000000000000000000000000000000081525f60048201526024015b60405180910390fd5b6114c88161155e565b50565b5f5473ffffffffffffffffffffffffffffffffffffffff1633146109a5576040517f118cdaa70000000000000000000000000000000000000000000000000000000081523360048201526024016114b6565b80511561152c57805181602001fd5b6040517f2082e20000000000000000000000000000000000000000000000000000000000815260040160405180910390fd5b5f805473ffffffffffffffffffffffffffffffffffffffff8381167fffffffffffffffffffffffff0000000000000000000000000000000000000000831681178455604051919092169283917f8be0079c531659141344cd1fd0a4f28419497f9722a3daafe3b4186f6b6457e09190a35050565b73ffffffffffffffffffffffffffffffffffffffff811681146114c8575f5ffd5b5f60208284031215611603575f5ffd5b813561160e816115d2565b9392505050565b7f4e487b71000000000000000000000000000000000000000000000000000000005f52604160045260245ffd5b5f5f5f60608486031215611654575f5ffd5b833561165f816115d2565b925060208401359150604084013567ffffffffffffffff811115611681575f5ffd5b8401601f81018613611691575f5ffd5b803567ffffffffffffffff8111156116ab576116ab611615565b6040517fffffffffffffffffffffffffffffffffffffffffffffffffffffffffffffffe0603f7fffffffffffffffffffffffffffffffffffffffffffffffffffffffffffffffe0601f8501160116810181811067ffffffffffffffff8211171561171757611717611615565b60405281815282820160200188101561172e575f5ffd5b816020840160208301375f602083830101528093505050509250925092565b5f5f6040838503121561175e575f5ffd5b8235611769816115d2565b91506020830135801515811461177d575f5ffd5b809150509250929050565b5f5f60408385031215611799575f5ffd5b82356117a4816115d2565b946020939093013593505050565b5f5f5f606084860312156117c4575f5ffd5b8335925060208401356117d6816115d2565b915060408401356117e6816115d2565b809150509250925092565b61ffff811681146114c8575f5ffd5b5f5f5f5f5f60a08688031215611814575f5ffd5b853561181f816115d2565b9450602086013561182f816115d2565b9350604086013561183f816117f1565b9250606086013561184f816117f1565b9150608086013563ffffffff81168114611867575f5ffd5b809150509295509295909350565b5f5f60408385031215611886575f5ffd5b8235611891816115d2565b9150602083013561177d816117f1565b5f5f5f606084860312156118b3575f5ffd5b83356118be816115d2565b925060208401356118ce816115d2565b929592945050506040919091013590565b5f5f604083850312156118f0575f5ffd5b82356118fb816115d2565b9150602083013561177d816115d2565b5f6020828403121561191b575f5ffd5b815161160e816115d2565b5f82518060208501845e5f920191825250919050565b828152604060208201525f82518060408401528060208501606085015e5f6060828501015260607fffffffffffffffffffffffffffffffffffffffffffffffffffffffffffffffe0601f8301168401019150509392505050565b5f602082840312156119a6575f5ffd5b815161160e816117f1565b7f4e487b71000000000000000000000000000000000000000000000000000000005f52601160045260245ffd5b80820281158282048414176119f5576119f56119b1565b92915050565b7f4e487b71000000000000000000000000000000000000000000000000000000005f52603260045260245ffd5b818103818111156119f5576119f56119b1565b7f4e487b71000000000000000000000000000000000000000000000000000000005f52603160045260245ffdfea26469706673582212202b6e633c5596a9e2979f7cc288d4c0d560fdb601a3585fd665a02504d736452064736f6c634300081c0033","linkReferences":{}},"methodIdentifiers":{"allowedTargetVaultList(address,uint256)":"62844a1d","checkLiqLTV(uint256,address,address)":"7fcc23f0","collateralVaultFactory()":"5297ffbb","doCall(address,uint256,bytes)":"1abdc35a","externalLiqBuffers(address)":"01d488eb","getIntermediateVault(address)":"ce504bf5","isAllowedTargetVault(address,address)":"ec97b18c","maxTwyneLTVs(address)":"7b6b8447","oracleRouter()":"55a29e91","owner()":"8da5cb5b","removeAllowedTargetVault(address,address,uint256)":"bff63c67","renounceOwnership()":"715018a6","setAllowedTargetVault(address,address)":"c0bcfa92","setCollateralVaultFactory(address)":"54dfcf4e","setExternalLiqBuffer(address,uint16)":"da7f7f80","setIntermediateVault(address)":"0d453737","setLTV(address,address,uint16,uint16,uint32)":"8b9925e8","setMaxLiquidationLTV(address,uint16)":"950bc62a","setOracleResolvedVault(address,bool)":"21f9dd48","setOracleRouter(address)":"4d69ee0e","targetVaultLength(address)":"74ad9dfa","transferOwnership(address)":"f2fde38b"},"id":158}